{
  "contractName": "ChimeraRoyaltyRegistry",
  "abi": [
    {
      "anonymous": false,
      "inputs": [
        {
          "indexed": true,
          "internalType": "address",
          "name": "previousOwner",
          "type": "address"
        },
        {
          "indexed": true,
          "internalType": "address",
          "name": "newOwner",
          "type": "address"
        }
      ],
      "name": "OwnershipTransferred",
      "type": "event"
    },
    {
      "inputs": [],
      "name": "iERC721TokenCreator",
      "outputs": [
        {
          "internalType": "contract IERC721TokenCreator",
          "name": "",
          "type": "address"
        }
      ],
      "stateMutability": "view",
      "type": "function"
    },
    {
      "inputs": [],
      "name": "owner",
      "outputs": [
        {
          "internalType": "address",
          "name": "",
          "type": "address"
        }
      ],
      "stateMutability": "view",
      "type": "function"
    },
    {
      "inputs": [],
      "name": "renounceOwnership",
      "outputs": [],
      "stateMutability": "nonpayable",
      "type": "function"
    },
    {
      "inputs": [
        {
          "internalType": "address",
          "name": "newOwner",
          "type": "address"
        }
      ],
      "name": "transferOwnership",
      "outputs": [],
      "stateMutability": "nonpayable",
      "type": "function"
    },
    {
      "inputs": [
        {
          "internalType": "address",
          "name": "_iERC721TokenCreator",
          "type": "address"
        }
      ],
      "name": "initialize",
      "outputs": [],
      "stateMutability": "nonpayable",
      "type": "function"
    },
    {
      "inputs": [
        {
          "internalType": "address",
          "name": "_contractAddress",
          "type": "address"
        }
      ],
      "name": "setIERC721TokenCreator",
      "outputs": [],
      "stateMutability": "nonpayable",
      "type": "function"
    },
    {
      "inputs": [
        {
          "internalType": "address",
          "name": "_contractAddress",
          "type": "address"
        },
        {
          "internalType": "uint256",
          "name": "_tokenId",
          "type": "uint256"
        }
      ],
      "name": "getERC721TokenRoyaltyPercentage",
      "outputs": [
        {
          "internalType": "uint8",
          "name": "",
          "type": "uint8"
        }
      ],
      "stateMutability": "view",
      "type": "function"
    },
    {
      "inputs": [
        {
          "internalType": "address",
          "name": "_contractAddress",
          "type": "address"
        },
        {
          "internalType": "uint256",
          "name": "_tokenId",
          "type": "uint256"
        }
      ],
      "name": "getPercentageForSetERC721TokenRoyalty",
      "outputs": [
        {
          "internalType": "uint8",
          "name": "",
          "type": "uint8"
        }
      ],
      "stateMutability": "view",
      "type": "function"
    },
    {
      "inputs": [
        {
          "internalType": "address",
          "name": "_contractAddress",
          "type": "address"
        },
        {
          "internalType": "uint256",
          "name": "_tokenId",
          "type": "uint256"
        },
        {
          "internalType": "uint8",
          "name": "_percentage",
          "type": "uint8"
        }
      ],
      "name": "setPercentageForSetERC721TokenRoyalty",
      "outputs": [
        {
          "internalType": "uint8",
          "name": "",
          "type": "uint8"
        }
      ],
      "stateMutability": "nonpayable",
      "type": "function"
    },
    {
      "inputs": [
        {
          "internalType": "address",
          "name": "_contractAddress",
          "type": "address"
        },
        {
          "internalType": "uint256",
          "name": "_tokenId",
          "type": "uint256"
        }
      ],
      "name": "getPercentageForSetERC721CreatorRoyalty",
      "outputs": [
        {
          "internalType": "uint8",
          "name": "",
          "type": "uint8"
        }
      ],
      "stateMutability": "view",
      "type": "function"
    },
    {
      "inputs": [
        {
          "internalType": "address",
          "name": "_creatorAddress",
          "type": "address"
        },
        {
          "internalType": "uint8",
          "name": "_percentage",
          "type": "uint8"
        }
      ],
      "name": "setPercentageForSetERC721CreatorRoyalty",
      "outputs": [
        {
          "internalType": "uint8",
          "name": "",
          "type": "uint8"
        }
      ],
      "stateMutability": "nonpayable",
      "type": "function"
    },
    {
      "inputs": [
        {
          "internalType": "address",
          "name": "_contractAddress",
          "type": "address"
        }
      ],
      "name": "getPercentageForSetERC721ContractRoyalty",
      "outputs": [
        {
          "internalType": "uint8",
          "name": "",
          "type": "uint8"
        }
      ],
      "stateMutability": "view",
      "type": "function"
    },
    {
      "inputs": [
        {
          "internalType": "address",
          "name": "_contractAddress",
          "type": "address"
        },
        {
          "internalType": "uint8",
          "name": "_percentage",
          "type": "uint8"
        }
      ],
      "name": "setPercentageForSetERC721ContractRoyalty",
      "outputs": [
        {
          "internalType": "uint8",
          "name": "",
          "type": "uint8"
        }
      ],
      "stateMutability": "nonpayable",
      "type": "function"
    },
    {
      "inputs": [
        {
          "internalType": "address",
          "name": "_contractAddress",
          "type": "address"
        },
        {
          "internalType": "uint256",
          "name": "_tokenId",
          "type": "uint256"
        },
        {
          "internalType": "uint256",
          "name": "_amount",
          "type": "uint256"
        }
      ],
      "name": "calculateRoyaltyFee",
      "outputs": [
        {
          "internalType": "uint256",
          "name": "",
          "type": "uint256"
        }
      ],
      "stateMutability": "view",
      "type": "function"
    },
    {
      "inputs": [
        {
          "internalType": "address",
          "name": "_contractAddress",
          "type": "address"
        },
        {
          "internalType": "uint256",
          "name": "_tokenId",
          "type": "uint256"
        }
      ],
      "name": "tokenCreator",
      "outputs": [
        {
          "internalType": "address payable",
          "name": "",
          "type": "address"
        }
      ],
      "stateMutability": "view",
      "type": "function"
    }
  ],
  "bytecode": "0x608060405234801561001057600080fd5b50611f29806100206000396000f3fe608060405234801561001057600080fd5b50600436106100f55760003560e01c80638da5cb5b11610097578063c6ad8d7511610066578063c6ad8d7514610465578063c88a9aee146104ca578063e8b8b53d14610532578063f2fde38b146105a4576100f5565b80638da5cb5b14610310578063b85ed7e414610344578063c461f15d146103bc578063c4d66de814610421576100f5565b8063715018a6116100d3578063715018a6146101da57806376bf88b2146101e45780637c0329f71461023f578063860110f5146102a4576100f5565b80632d5baea3146100fa5780635121d5ba1461016257806358a7026614610196575b600080fd5b6101496004803603604081101561011057600080fd5b81019080803573ffffffffffffffffffffffffffffffffffffffff169060200190929190803560ff1690602001909291905050506105e8565b604051808260ff16815260200191505060405180910390f35b61016a610754565b604051808273ffffffffffffffffffffffffffffffffffffffff16815260200191505060405180910390f35b6101d8600480360360208110156101ac57600080fd5b81019080803573ffffffffffffffffffffffffffffffffffffffff16906020019092919050505061077a565b005b6101e26108f3565b005b610226600480360360208110156101fa57600080fd5b81019080803573ffffffffffffffffffffffffffffffffffffffff169060200190929190505050610a63565b604051808260ff16815260200191505060405180910390f35b61028b6004803603604081101561025557600080fd5b81019080803573ffffffffffffffffffffffffffffffffffffffff16906020019092919080359060200190929190505050610ab9565b604051808260ff16815260200191505060405180910390f35b6102fa600480360360608110156102ba57600080fd5b81019080803573ffffffffffffffffffffffffffffffffffffffff1690602001909291908035906020019092919080359060200190929190505050610d5c565b6040518082815260200191505060405180910390f35b610318610d99565b604051808273ffffffffffffffffffffffffffffffffffffffff16815260200191505060405180910390f35b6103906004803603604081101561035a57600080fd5b81019080803573ffffffffffffffffffffffffffffffffffffffff16906020019092919080359060200190929190505050610dc3565b604051808273ffffffffffffffffffffffffffffffffffffffff16815260200191505060405180910390f35b610408600480360360408110156103d257600080fd5b81019080803573ffffffffffffffffffffffffffffffffffffffff16906020019092919080359060200190929190505050610e99565b604051808260ff16815260200191505060405180910390f35b6104636004803603602081101561043757600080fd5b81019080803573ffffffffffffffffffffffffffffffffffffffff169060200190929190505050610f01565b005b6104b16004803603604081101561047b57600080fd5b81019080803573ffffffffffffffffffffffffffffffffffffffff169060200190929190803590602001909291905050506110cf565b604051808260ff16815260200191505060405180910390f35b610519600480360360408110156104e057600080fd5b81019080803573ffffffffffffffffffffffffffffffffffffffff169060200190929190803560ff1690602001909291905050506111f6565b604051808260ff16815260200191505060405180910390f35b61058b6004803603606081101561054857600080fd5b81019080803573ffffffffffffffffffffffffffffffffffffffff16906020019092919080359060200190929190803560ff169060200190929190505050611374565b604051808260ff16815260200191505060405180910390f35b6105e6600480360360208110156105ba57600080fd5b81019080803573ffffffffffffffffffffffffffffffffffffffff1690602001909291905050506115cf565b005b60006105f26117c4565b73ffffffffffffffffffffffffffffffffffffffff16610610610d99565b73ffffffffffffffffffffffffffffffffffffffff1614610699576040517f08c379a00000000000000000000000000000000000000000000000000000000081526004018080602001828103825260208152602001807f4f776e61626c653a2063616c6c6572206973206e6f7420746865206f776e657281525060200191505060405180910390fd5b60648260ff1611156106f6576040517f08c379a0000000000000000000000000000000000000000000000000000000008152600401808060200182810382526044815260200180611cd96044913960600191505060405180910390fd5b81606560008573ffffffffffffffffffffffffffffffffffffffff1673ffffffffffffffffffffffffffffffffffffffff16815260200190815260200160002060006101000a81548160ff021916908360ff16021790555092915050565b606860009054906101000a900473ffffffffffffffffffffffffffffffffffffffff1681565b6107826117c4565b73ffffffffffffffffffffffffffffffffffffffff166107a0610d99565b73ffffffffffffffffffffffffffffffffffffffff1614610829576040517f08c379a00000000000000000000000000000000000000000000000000000000081526004018080602001828103825260208152602001807f4f776e61626c653a2063616c6c6572206973206e6f7420746865206f776e657281525060200191505060405180910390fd5b600073ffffffffffffffffffffffffffffffffffffffff168173ffffffffffffffffffffffffffffffffffffffff1614156108af576040517f08c379a0000000000000000000000000000000000000000000000000000000008152600401808060200182810382526037815260200180611d606037913960400191505060405180910390fd5b80606860006101000a81548173ffffffffffffffffffffffffffffffffffffffff021916908373ffffffffffffffffffffffffffffffffffffffff16021790555050565b6108fb6117c4565b73ffffffffffffffffffffffffffffffffffffffff16610919610d99565b73ffffffffffffffffffffffffffffffffffffffff16146109a2576040517f08c379a00000000000000000000000000000000000000000000000000000000081526004018080602001828103825260208152602001807f4f776e61626c653a2063616c6c6572206973206e6f7420746865206f776e657281525060200191505060405180910390fd5b600073ffffffffffffffffffffffffffffffffffffffff16603360009054906101000a900473ffffffffffffffffffffffffffffffffffffffff1673ffffffffffffffffffffffffffffffffffffffff167f8be0079c531659141344cd1fd0a4f28419497f9722a3daafe3b4186f6b6457e060405160405180910390a36000603360006101000a81548173ffffffffffffffffffffffffffffffffffffffff021916908373ffffffffffffffffffffffffffffffffffffffff160217905550565b6000606560008373ffffffffffffffffffffffffffffffffffffffff1673ffffffffffffffffffffffffffffffffffffffff16815260200190815260200160002060009054906101000a900460ff169050919050565b600080606760008573ffffffffffffffffffffffffffffffffffffffff1673ffffffffffffffffffffffffffffffffffffffff168152602001908152602001600020600084815260200190815260200160002060009054906101000a900460ff1660ff161115610b8857606760008473ffffffffffffffffffffffffffffffffffffffff1673ffffffffffffffffffffffffffffffffffffffff168152602001908152602001600020600083815260200190815260200160002060009054906101000a900460ff169050610d56565b6000606860009054906101000a900473ffffffffffffffffffffffffffffffffffffffff1673ffffffffffffffffffffffffffffffffffffffff1663b85ed7e485856040518363ffffffff1660e01b8152600401808373ffffffffffffffffffffffffffffffffffffffff1681526020018281526020019250505060206040518083038186803b158015610c1b57600080fd5b505afa158015610c2f573d6000803e3d6000fd5b505050506040513d6020811015610c4557600080fd5b810190808051906020019092919050505090506000606660008373ffffffffffffffffffffffffffffffffffffffff1673ffffffffffffffffffffffffffffffffffffffff16815260200190815260200160002060009054906101000a900460ff1660ff161115610d0557606660008273ffffffffffffffffffffffffffffffffffffffff1673ffffffffffffffffffffffffffffffffffffffff16815260200190815260200160002060009054906101000a900460ff16915050610d56565b606560008573ffffffffffffffffffffffffffffffffffffffff1673ffffffffffffffffffffffffffffffffffffffff16815260200190815260200160002060009054906101000a900460ff169150505b92915050565b6000610d906064610d82610d708787610ab9565b60ff16856117cc90919063ffffffff16565b61185290919063ffffffff16565b90509392505050565b6000603360009054906101000a900473ffffffffffffffffffffffffffffffffffffffff16905090565b6000606860009054906101000a900473ffffffffffffffffffffffffffffffffffffffff1673ffffffffffffffffffffffffffffffffffffffff1663b85ed7e484846040518363ffffffff1660e01b8152600401808373ffffffffffffffffffffffffffffffffffffffff1681526020018281526020019250505060206040518083038186803b158015610e5657600080fd5b505afa158015610e6a573d6000803e3d6000fd5b505050506040513d6020811015610e8057600080fd5b8101908080519060200190929190505050905092915050565b6000606760008473ffffffffffffffffffffffffffffffffffffffff1673ffffffffffffffffffffffffffffffffffffffff168152602001908152602001600020600083815260200190815260200160002060009054906101000a900460ff16905092915050565b600060019054906101000a900460ff1680610f205750610f1f6118db565b5b80610f36575060008054906101000a900460ff16155b610f8b576040517f08c379a000000000000000000000000000000000000000000000000000000000815260040180806020018281038252602e815260200180611dd8602e913960400191505060405180910390fd5b60008060019054906101000a900460ff161590508015610fdb576001600060016101000a81548160ff02191690831515021790555060016000806101000a81548160ff0219169083151502179055505b600073ffffffffffffffffffffffffffffffffffffffff168273ffffffffffffffffffffffffffffffffffffffff161415611061576040517f08c379a0000000000000000000000000000000000000000000000000000000008152600401808060200182810382526043815260200180611eb16043913960600191505060405180910390fd5b6110696118ec565b81606860006101000a81548173ffffffffffffffffffffffffffffffffffffffff021916908373ffffffffffffffffffffffffffffffffffffffff16021790555080156110cb5760008060016101000a81548160ff0219169083151502179055505b5050565b600080606860009054906101000a900473ffffffffffffffffffffffffffffffffffffffff1673ffffffffffffffffffffffffffffffffffffffff1663b85ed7e485856040518363ffffffff1660e01b8152600401808373ffffffffffffffffffffffffffffffffffffffff1681526020018281526020019250505060206040518083038186803b15801561116357600080fd5b505afa158015611177573d6000803e3d6000fd5b505050506040513d602081101561118d57600080fd5b81019080805190602001909291905050509050606660008273ffffffffffffffffffffffffffffffffffffffff1673ffffffffffffffffffffffffffffffffffffffff16815260200190815260200160002060009054906101000a900460ff1691505092915050565b60008273ffffffffffffffffffffffffffffffffffffffff163373ffffffffffffffffffffffffffffffffffffffff1614806112645750611235610d99565b73ffffffffffffffffffffffffffffffffffffffff163373ffffffffffffffffffffffffffffffffffffffff16145b6112b9576040517f08c379a0000000000000000000000000000000000000000000000000000000008152600401808060200182810382526041815260200180611e276041913960600191505060405180910390fd5b60648260ff161115611316576040517f08c379a0000000000000000000000000000000000000000000000000000000008152600401808060200182810382526043815260200180611d1d6043913960600191505060405180910390fd5b81606660008573ffffffffffffffffffffffffffffffffffffffff1673ffffffffffffffffffffffffffffffffffffffff16815260200190815260200160002060006101000a81548160ff021916908360ff16021790555092915050565b6000606860009054906101000a900473ffffffffffffffffffffffffffffffffffffffff1673ffffffffffffffffffffffffffffffffffffffff1663b85ed7e485856040518363ffffffff1660e01b8152600401808373ffffffffffffffffffffffffffffffffffffffff1681526020018281526020019250505060206040518083038186803b15801561140757600080fd5b505afa15801561141b573d6000803e3d6000fd5b505050506040513d602081101561143157600080fd5b810190808051906020019092919050505073ffffffffffffffffffffffffffffffffffffffff163373ffffffffffffffffffffffffffffffffffffffff1614806114ad575061147e610d99565b73ffffffffffffffffffffffffffffffffffffffff163373ffffffffffffffffffffffffffffffffffffffff16145b611502576040517f08c379a0000000000000000000000000000000000000000000000000000000008152600401808060200182810382526049815260200180611e686049913960600191505060405180910390fd5b60648260ff16111561155f576040517f08c379a0000000000000000000000000000000000000000000000000000000008152600401808060200182810382526041815260200180611d976041913960600191505060405180910390fd5b81606760008673ffffffffffffffffffffffffffffffffffffffff1673ffffffffffffffffffffffffffffffffffffffff168152602001908152602001600020600085815260200190815260200160002060006101000a81548160ff021916908360ff1602179055509392505050565b6115d76117c4565b73ffffffffffffffffffffffffffffffffffffffff166115f5610d99565b73ffffffffffffffffffffffffffffffffffffffff161461167e576040517f08c379a00000000000000000000000000000000000000000000000000000000081526004018080602001828103825260208152602001807f4f776e61626c653a2063616c6c6572206973206e6f7420746865206f776e657281525060200191505060405180910390fd5b600073ffffffffffffffffffffffffffffffffffffffff168173ffffffffffffffffffffffffffffffffffffffff161415611704576040517f08c379a0000000000000000000000000000000000000000000000000000000008152600401808060200182810382526026815260200180611cb36026913960400191505060405180910390fd5b8073ffffffffffffffffffffffffffffffffffffffff16603360009054906101000a900473ffffffffffffffffffffffffffffffffffffffff1673ffffffffffffffffffffffffffffffffffffffff167f8be0079c531659141344cd1fd0a4f28419497f9722a3daafe3b4186f6b6457e060405160405180910390a380603360006101000a81548173ffffffffffffffffffffffffffffffffffffffff021916908373ffffffffffffffffffffffffffffffffffffffff16021790555050565b600033905090565b6000808314156117df576000905061184c565b60008284029050828482816117f057fe5b0414611847576040517f08c379a0000000000000000000000000000000000000000000000000000000008152600401808060200182810382526021815260200180611e066021913960400191505060405180910390fd5b809150505b92915050565b60008082116118c9576040517f08c379a000000000000000000000000000000000000000000000000000000000815260040180806020018281038252601a8152602001807f536166654d6174683a206469766973696f6e206279207a65726f00000000000081525060200191505060405180910390fd5b8183816118d257fe5b04905092915050565b60006118e6306119fa565b15905090565b600060019054906101000a900460ff168061190b575061190a6118db565b5b80611921575060008054906101000a900460ff16155b611976576040517f08c379a000000000000000000000000000000000000000000000000000000000815260040180806020018281038252602e815260200180611dd8602e913960400191505060405180910390fd5b60008060019054906101000a900460ff1615905080156119c6576001600060016101000a81548160ff02191690831515021790555060016000806101000a81548160ff0219169083151502179055505b6119ce611a0d565b6119d6611b0b565b80156119f75760008060016101000a81548160ff0219169083151502179055505b50565b600080823b905060008111915050919050565b600060019054906101000a900460ff1680611a2c5750611a2b6118db565b5b80611a42575060008054906101000a900460ff16155b611a97576040517f08c379a000000000000000000000000000000000000000000000000000000000815260040180806020018281038252602e815260200180611dd8602e913960400191505060405180910390fd5b60008060019054906101000a900460ff161590508015611ae7576001600060016101000a81548160ff02191690831515021790555060016000806101000a81548160ff0219169083151502179055505b8015611b085760008060016101000a81548160ff0219169083151502179055505b50565b600060019054906101000a900460ff1680611b2a5750611b296118db565b5b80611b40575060008054906101000a900460ff16155b611b95576040517f08c379a000000000000000000000000000000000000000000000000000000000815260040180806020018281038252602e815260200180611dd8602e913960400191505060405180910390fd5b60008060019054906101000a900460ff161590508015611be5576001600060016101000a81548160ff02191690831515021790555060016000806101000a81548160ff0219169083151502179055505b6000611bef6117c4565b905080603360006101000a81548173ffffffffffffffffffffffffffffffffffffffff021916908373ffffffffffffffffffffffffffffffffffffffff1602179055508073ffffffffffffffffffffffffffffffffffffffff16600073ffffffffffffffffffffffffffffffffffffffff167f8be0079c531659141344cd1fd0a4f28419497f9722a3daafe3b4186f6b6457e060405160405180910390a3508015611caf5760008060016101000a81548160ff0219169083151502179055505b5056fe4f776e61626c653a206e6577206f776e657220697320746865207a65726f206164647265737373657450657263656e74616765466f72536574455243373231436f6e7472616374526f79616c74793a3a5f70657263656e74616765206d757374206265203c3d2031303073657450657263656e74616765466f7253657445524337323143726561746f72526f79616c74793a3a5f70657263656e74616765206d757374206265203c3d2031303073657449455243373231546f6b656e43726561746f723a3a5f636f6e7472616374416464726573732063616e6e6f74206265206e756c6c73657450657263656e74616765466f72536574455243373231546f6b656e526f79616c74793a3a5f70657263656e74616765206d757374206265203c3d20313030496e697469616c697a61626c653a20636f6e747261637420697320616c726561647920696e697469616c697a6564536166654d6174683a206d756c7469706c69636174696f6e206f766572666c6f7773657450657263656e74616765466f7253657445524337323143726561746f72526f79616c74793a3a4d757374206265206f776e6572206f722063726561746f7273657450657263656e74616765466f72536574455243373231546f6b656e526f79616c74793a3a4d75737420626520636f6e7472616374206f776e6572206f722063726561746f7220636f6e7374727563746f723a3a43616e6e6f742073657420746865206e756c6c206164647265737320617320616e205f69455243373231546f6b656e43726561746f72a2646970667358221220c328e83ba100a578479662fe5475b83ebb55663e0e324b6110365d64544f76f864736f6c634300060c0033",
  "immutableReferences": {},
  "source": "// SPDX-License-Identifier: MIT\npragma solidity 0.6.12;\n\n// import 'https://github.com/OpenZeppelin/openzeppelin-contracts-upgradeable/blob/release-v3.3/contracts/math/SafeMathUpgradeable.sol';\n// import 'https://github.com/OpenZeppelin/openzeppelin-contracts-upgradeable/blob/release-v3.3/contracts/access/OwnableUpgradeable.sol';\n// import 'https://github.com/OpenZeppelin/openzeppelin-contracts-upgradeable/blob/release-v3.3/contracts/access/AccessControlUpgradeable.sol';\nimport '@openzeppelin/contracts-upgradeable/math/SafeMathUpgradeable.sol';\nimport '@openzeppelin/contracts-upgradeable/access/OwnableUpgradeable.sol';\nimport '@openzeppelin/contracts-upgradeable/access/AccessControlUpgradeable.sol';\nimport \"./IERC721CreatorRoyalty.sol\";\n\n/**\n * @title IERC721 Non-Fungible Token Creator basic interface\n */\ncontract ChimeraRoyaltyRegistry is OwnableUpgradeable, IERC721CreatorRoyalty {\n    using SafeMathUpgradeable for uint256;\n\n    /////////////////////////////////////////////////////////////////////////\n    // State Variables\n    /////////////////////////////////////////////////////////////////////////\n\n    // Mapping of ERC721 contract to royalty percentage for all NFTs,  3 == 3%\n    mapping(address => uint8) private contractRoyaltyPercentage;\n\n    // Mapping of ERC721 creator to royalty percentage for all NFTs.\n    mapping(address => uint8) private creatorRoyaltyPercentage;\n\n    // Mapping of ERC721 token to royalty percentage for all NFTs.\n    mapping(address => mapping(uint256 => uint8))\n        private tokenRoyaltyPercentage;\n\n    IERC721TokenCreator public iERC721TokenCreator;\n\n    /////////////////////////////////////////////////////////////////////////\n    // Constructor\n    /////////////////////////////////////////////////////////////////////////\n    // constructor(address _iERC721TokenCreator) public {\n    //     require(\n    //         _iERC721TokenCreator != address(0),\n    //         \"constructor::Cannot set the null address as an _iERC721TokenCreator\"\n    //     );\n    //     iERC721TokenCreator = IERC721TokenCreator(_iERC721TokenCreator);\n    // }\n     /////////////////////////////////////////////////////////////////////////\n    // Constructor\n    /////////////////////////////////////////////////////////////////////////\n    function initialize(address _iERC721TokenCreator) public initializer\n    {\n        require(\n            _iERC721TokenCreator != address(0),\n            \"constructor::Cannot set the null address as an _iERC721TokenCreator\"\n        );\n        __Ownable_init();\n        iERC721TokenCreator = IERC721TokenCreator(_iERC721TokenCreator);\n    }\n\n    /////////////////////////////////////////////////////////////////////////\n    // setIERC721TokenCreator\n    /////////////////////////////////////////////////////////////////////////\n    /**\n     * @dev Set an address as an IERC721TokenCreator\n     * @param _contractAddress address of the IERC721TokenCreator contract\n     */\n    function setIERC721TokenCreator(address _contractAddress)\n        external\n        onlyOwner\n    {\n        require(\n            _contractAddress != address(0),\n            \"setIERC721TokenCreator::_contractAddress cannot be null\"\n        );\n\n        iERC721TokenCreator = IERC721TokenCreator(_contractAddress);\n    }\n\n    /////////////////////////////////////////////////////////////////////////\n    // getERC721TokenRoyaltyPercentage\n    /////////////////////////////////////////////////////////////////////////\n    /**\n     * @dev Get the royalty fee percentage for a specific ERC721 contract.\n     * @param _contractAddress address ERC721Contract address.\n     * @param _tokenId uint256 token ID.\n     * @return uint8 wei royalty fee.\n     */\n    function getERC721TokenRoyaltyPercentage(\n        address _contractAddress,\n        uint256 _tokenId\n    ) public override view returns (uint8) {\n        if (tokenRoyaltyPercentage[_contractAddress][_tokenId] > 0) {\n            return tokenRoyaltyPercentage[_contractAddress][_tokenId];\n        }\n        address creator = iERC721TokenCreator.tokenCreator(\n            _contractAddress,\n            _tokenId\n        );\n        if (creatorRoyaltyPercentage[creator] > 0) {\n            return creatorRoyaltyPercentage[creator];\n        }\n        return contractRoyaltyPercentage[_contractAddress];\n    }\n\n    /////////////////////////////////////////////////////////////////////////\n    // getPercentageForSetERC721TokenRoyalty\n    /////////////////////////////////////////////////////////////////////////\n    /**\n     * @dev Gets the royalty percentage set for an ERC721 token\n     * @param _contractAddress address ERC721Contract address.\n     * @param _tokenId uint256 token ID.\n     * @return uint8 wei royalty fee.\n     */\n    function getPercentageForSetERC721TokenRoyalty(\n        address _contractAddress,\n        uint256 _tokenId\n    ) external view returns (uint8) {\n        return tokenRoyaltyPercentage[_contractAddress][_tokenId];\n    }\n\n    /////////////////////////////////////////////////////////////////////////\n    // setPercentageForSetERC721TokenRoyalty\n    /////////////////////////////////////////////////////////////////////////\n    /**\n     * @dev Sets the royalty percentage set for an ERC721 token\n     * Requirements:\n     * - `_percentage` must be <= 100.\n     * - only the owner of this contract or the creator can call this method.\n     * @param _contractAddress address ERC721Contract address.\n     * @param _tokenId uint256 token ID.\n     * @param _percentage uint8 wei royalty fee.\n     */\n    function setPercentageForSetERC721TokenRoyalty(\n        address _contractAddress,\n        uint256 _tokenId,\n        uint8 _percentage\n    ) external returns (uint8) {\n        require(\n            msg.sender ==\n                iERC721TokenCreator.tokenCreator(_contractAddress, _tokenId) ||\n                msg.sender == owner(),\n            \"setPercentageForSetERC721TokenRoyalty::Must be contract owner or creator \"\n        );\n        require(\n            _percentage <= 100,\n            \"setPercentageForSetERC721TokenRoyalty::_percentage must be <= 100\"\n        );\n        tokenRoyaltyPercentage[_contractAddress][_tokenId] = _percentage;\n    }\n\n    /////////////////////////////////////////////////////////////////////////\n    // getPercentageForSetERC721CreatorRoyalty\n    /////////////////////////////////////////////////////////////////////////\n    /**\n     * @dev Gets the royalty percentage set for an ERC721 creator\n     * @param _contractAddress address ERC721Contract address.\n     * @param _tokenId uint256 token ID.\n     * @return uint8 wei royalty fee.\n     */\n    function getPercentageForSetERC721CreatorRoyalty(\n        address _contractAddress,\n        uint256 _tokenId\n    ) external view returns (uint8) {\n        address creator = iERC721TokenCreator.tokenCreator(\n            _contractAddress,\n            _tokenId\n        );\n        return creatorRoyaltyPercentage[creator];\n    }\n\n    /////////////////////////////////////////////////////////////////////////\n    // setPercentageForSetERC721CreatorRoyalty\n    /////////////////////////////////////////////////////////////////////////\n    /**\n     * @dev Sets the royalty percentage set for an ERC721 creator\n     * Requirements:\n     * - `_percentage` must be <= 100.\n     * - only the owner of this contract or the creator can call this method.\n     * @param _creatorAddress address token ID.\n     * @param _percentage uint8 wei royalty fee.\n     */\n    function setPercentageForSetERC721CreatorRoyalty(\n        address _creatorAddress,\n        uint8 _percentage\n    ) external returns (uint8) {\n        require(\n            msg.sender == _creatorAddress || msg.sender == owner(),\n            \"setPercentageForSetERC721CreatorRoyalty::Must be owner or creator\"\n        );\n        require(\n            _percentage <= 100,\n            \"setPercentageForSetERC721CreatorRoyalty::_percentage must be <= 100\"\n        );\n        creatorRoyaltyPercentage[_creatorAddress] = _percentage;\n    }\n\n    /////////////////////////////////////////////////////////////////////////\n    // getPercentageForSetERC721ContractRoyalty\n    /////////////////////////////////////////////////////////////////////////\n    /**\n     * @dev Gets the royalty percentage set for an ERC721 contract\n     * @param _contractAddress address ERC721Contract address.\n     * @return uint8 wei royalty fee.\n     */\n    function getPercentageForSetERC721ContractRoyalty(address _contractAddress)\n        external\n        view\n        returns (uint8)\n    {\n        return contractRoyaltyPercentage[_contractAddress];\n    }\n\n    /////////////////////////////////////////////////////////////////////////\n    // setPercentageForSetERC721ContractRoyalty\n    /////////////////////////////////////////////////////////////////////////\n    /**\n     * @dev Sets the royalty percentage set for an ERC721 token\n     * Requirements:\n     * - `_percentage` must be <= 100.\n     * - only the owner of this contract.\n     * @param _contractAddress address ERC721Contract address.\n     * @param _percentage uint8 wei royalty fee.\n     */\n    function setPercentageForSetERC721ContractRoyalty(\n        address _contractAddress,\n        uint8 _percentage\n    ) external onlyOwner returns (uint8) {\n        require(\n            _percentage <= 100,\n            \"setPercentageForSetERC721ContractRoyalty::_percentage must be <= 100\"\n        );\n        contractRoyaltyPercentage[_contractAddress] = _percentage;\n    }\n\n    /////////////////////////////////////////////////////////////////////////\n    // calculateRoyaltyFee\n    /////////////////////////////////////////////////////////////////////////\n    /**\n     * @dev Utililty function to calculate the royalty fee for a token.\n     * @param _contractAddress address ERC721Contract address.\n     * @param _tokenId uint256 token ID.\n     * @param _amount uint256 wei amount.\n     * @return uint256 wei fee.\n     */\n    function calculateRoyaltyFee(\n        address _contractAddress,\n        uint256 _tokenId,\n        uint256 _amount\n    ) external override view returns (uint256) {\n        return\n            _amount\n                .mul(\n                getERC721TokenRoyaltyPercentage(_contractAddress, _tokenId)\n            )\n                .div(100);\n    }\n\n    /////////////////////////////////////////////////////////////////////////\n    // tokenCreator\n    /////////////////////////////////////////////////////////////////////////\n    /**\n     * @dev Gets the creator of the token\n     * @param _contractAddress address of the ERC721 contract\n     * @param _tokenId uint256 ID of the token\n     * @return address of the creator\n     */\n    function tokenCreator(address _contractAddress, uint256 _tokenId)\n        external\n        override\n        view\n        returns (address payable)\n    {\n        return iERC721TokenCreator.tokenCreator(_contractAddress, _tokenId);\n    }\n}",
  "sourcePath": "/home/aliwisam/AliWisamData/OptimusFox/chimera/repo/TruffleChimera/contracts/ChimeraRoyaltyRegistry.sol",
  "compiler": {
    "name": "solc",
    "version": "0.6.12+commit.27d51765.Emscripten.clang"
  },
  "schemaVersion": "3.4.0",
  "updatedAt": "2021-05-27T18:18:40.601Z",
  "devdoc": {
    "kind": "dev",
    "methods": {
      "calculateRoyaltyFee(address,uint256,uint256)": {
        "details": "Utililty function to calculate the royalty fee for a token.",
        "params": {
          "_amount": "uint256 wei amount.",
          "_contractAddress": "address ERC721Contract address.",
          "_tokenId": "uint256 token ID."
        },
        "returns": {
          "_0": "uint256 wei fee."
        }
      },
      "getERC721TokenRoyaltyPercentage(address,uint256)": {
        "details": "Get the royalty fee percentage for a specific ERC721 contract.",
        "params": {
          "_contractAddress": "address ERC721Contract address.",
          "_tokenId": "uint256 token ID."
        },
        "returns": {
          "_0": "uint8 wei royalty fee."
        }
      },
      "getPercentageForSetERC721ContractRoyalty(address)": {
        "details": "Gets the royalty percentage set for an ERC721 contract",
        "params": {
          "_contractAddress": "address ERC721Contract address."
        },
        "returns": {
          "_0": "uint8 wei royalty fee."
        }
      },
      "getPercentageForSetERC721CreatorRoyalty(address,uint256)": {
        "details": "Gets the royalty percentage set for an ERC721 creator",
        "params": {
          "_contractAddress": "address ERC721Contract address.",
          "_tokenId": "uint256 token ID."
        },
        "returns": {
          "_0": "uint8 wei royalty fee."
        }
      },
      "getPercentageForSetERC721TokenRoyalty(address,uint256)": {
        "details": "Gets the royalty percentage set for an ERC721 token",
        "params": {
          "_contractAddress": "address ERC721Contract address.",
          "_tokenId": "uint256 token ID."
        },
        "returns": {
          "_0": "uint8 wei royalty fee."
        }
      },
      "owner()": {
        "details": "Returns the address of the current owner."
      },
      "renounceOwnership()": {
        "details": "Leaves the contract without owner. It will not be possible to call `onlyOwner` functions anymore. Can only be called by the current owner. NOTE: Renouncing ownership will leave the contract without an owner, thereby removing any functionality that is only available to the owner."
      },
      "setIERC721TokenCreator(address)": {
        "details": "Set an address as an IERC721TokenCreator",
        "params": {
          "_contractAddress": "address of the IERC721TokenCreator contract"
        }
      },
      "setPercentageForSetERC721ContractRoyalty(address,uint8)": {
        "details": "Sets the royalty percentage set for an ERC721 token Requirements: - `_percentage` must be <= 100. - only the owner of this contract.",
        "params": {
          "_contractAddress": "address ERC721Contract address.",
          "_percentage": "uint8 wei royalty fee."
        }
      },
      "setPercentageForSetERC721CreatorRoyalty(address,uint8)": {
        "details": "Sets the royalty percentage set for an ERC721 creator Requirements: - `_percentage` must be <= 100. - only the owner of this contract or the creator can call this method.",
        "params": {
          "_creatorAddress": "address token ID.",
          "_percentage": "uint8 wei royalty fee."
        }
      },
      "setPercentageForSetERC721TokenRoyalty(address,uint256,uint8)": {
        "details": "Sets the royalty percentage set for an ERC721 token Requirements: - `_percentage` must be <= 100. - only the owner of this contract or the creator can call this method.",
        "params": {
          "_contractAddress": "address ERC721Contract address.",
          "_percentage": "uint8 wei royalty fee.",
          "_tokenId": "uint256 token ID."
        }
      },
      "tokenCreator(address,uint256)": {
        "details": "Gets the creator of the token",
        "params": {
          "_contractAddress": "address of the ERC721 contract",
          "_tokenId": "uint256 ID of the token"
        },
        "returns": {
          "_0": "address of the creator"
        }
      },
      "transferOwnership(address)": {
        "details": "Transfers ownership of the contract to a new account (`newOwner`). Can only be called by the current owner."
      }
    },
    "title": "IERC721 Non-Fungible Token Creator basic interface",
    "version": 1
  },
  "userdoc": {
    "kind": "user",
    "methods": {},
    "version": 1
  }
}