{
  "contractName": "ChimeraAuctionHouse",
  "abi": [
    {
      "anonymous": false,
      "inputs": [
        {
          "indexed": true,
          "internalType": "address",
          "name": "_contractAddress",
          "type": "address"
        },
        {
          "indexed": true,
          "internalType": "address",
          "name": "_bidder",
          "type": "address"
        },
        {
          "indexed": true,
          "internalType": "uint256",
          "name": "_tokenId",
          "type": "uint256"
        },
        {
          "indexed": false,
          "internalType": "uint256",
          "name": "_amount",
          "type": "uint256"
        },
        {
          "indexed": false,
          "internalType": "bool",
          "name": "_startedAuction",
          "type": "bool"
        },
        {
          "indexed": false,
          "internalType": "uint256",
          "name": "_newAuctionLength",
          "type": "uint256"
        },
        {
          "indexed": false,
          "internalType": "address",
          "name": "_previousBidder",
          "type": "address"
        }
      ],
      "name": "AuctionBid",
      "type": "event"
    },
    {
      "anonymous": false,
      "inputs": [
        {
          "indexed": true,
          "internalType": "address",
          "name": "_contractAddress",
          "type": "address"
        },
        {
          "indexed": true,
          "internalType": "address",
          "name": "_bidder",
          "type": "address"
        },
        {
          "indexed": false,
          "internalType": "address",
          "name": "_seller",
          "type": "address"
        },
        {
          "indexed": true,
          "internalType": "uint256",
          "name": "_tokenId",
          "type": "uint256"
        },
        {
          "indexed": false,
          "internalType": "uint256",
          "name": "_amount",
          "type": "uint256"
        }
      ],
      "name": "AuctionSettled",
      "type": "event"
    },
    {
      "anonymous": false,
      "inputs": [
        {
          "indexed": true,
          "internalType": "address",
          "name": "_contractAddress",
          "type": "address"
        },
        {
          "indexed": true,
          "internalType": "uint256",
          "name": "_tokenId",
          "type": "uint256"
        },
        {
          "indexed": true,
          "internalType": "address",
          "name": "_auctionCreator",
          "type": "address"
        }
      ],
      "name": "CancelAuction",
      "type": "event"
    },
    {
      "anonymous": false,
      "inputs": [
        {
          "indexed": true,
          "internalType": "address",
          "name": "_contractAddress",
          "type": "address"
        },
        {
          "indexed": true,
          "internalType": "uint256",
          "name": "_tokenId",
          "type": "uint256"
        },
        {
          "indexed": true,
          "internalType": "address",
          "name": "_auctionCreator",
          "type": "address"
        },
        {
          "indexed": false,
          "internalType": "uint256",
          "name": "_reservePrice",
          "type": "uint256"
        },
        {
          "indexed": false,
          "internalType": "uint256",
          "name": "_lengthOfAuction",
          "type": "uint256"
        }
      ],
      "name": "NewColdieAuction",
      "type": "event"
    },
    {
      "anonymous": false,
      "inputs": [
        {
          "indexed": true,
          "internalType": "address",
          "name": "_contractAddress",
          "type": "address"
        },
        {
          "indexed": true,
          "internalType": "uint256",
          "name": "_tokenId",
          "type": "uint256"
        },
        {
          "indexed": true,
          "internalType": "address",
          "name": "_auctionCreator",
          "type": "address"
        },
        {
          "indexed": false,
          "internalType": "uint256",
          "name": "_startingBlock",
          "type": "uint256"
        },
        {
          "indexed": false,
          "internalType": "uint256",
          "name": "_minimumBid",
          "type": "uint256"
        },
        {
          "indexed": false,
          "internalType": "uint256",
          "name": "_lengthOfAuction",
          "type": "uint256"
        }
      ],
      "name": "NewScheduledAuction",
      "type": "event"
    },
    {
      "anonymous": false,
      "inputs": [
        {
          "indexed": true,
          "internalType": "address",
          "name": "previousOwner",
          "type": "address"
        },
        {
          "indexed": true,
          "internalType": "address",
          "name": "newOwner",
          "type": "address"
        }
      ],
      "name": "OwnershipTransferred",
      "type": "event"
    },
    {
      "anonymous": false,
      "inputs": [
        {
          "indexed": true,
          "internalType": "address",
          "name": "_primarySalePayee",
          "type": "address"
        },
        {
          "indexed": false,
          "internalType": "uint256",
          "name": "primarySalePayment",
          "type": "uint256"
        }
      ],
      "name": "PrimarySalePayment",
      "type": "event"
    },
    {
      "anonymous": false,
      "inputs": [
        {
          "indexed": true,
          "internalType": "address",
          "name": "_marketplacePayee",
          "type": "address"
        },
        {
          "indexed": true,
          "internalType": "uint256",
          "name": "_marketplacePayment",
          "type": "uint256"
        }
      ],
      "name": "PrimarymarketplacePayment",
      "type": "event"
    },
    {
      "anonymous": false,
      "inputs": [
        {
          "indexed": true,
          "internalType": "address",
          "name": "_payee",
          "type": "address"
        },
        {
          "indexed": false,
          "internalType": "uint256",
          "name": "payeePayment",
          "type": "uint256"
        }
      ],
      "name": "PrimarypayeePayment",
      "type": "event"
    },
    {
      "anonymous": false,
      "inputs": [
        {
          "indexed": true,
          "internalType": "address",
          "name": "_secondarySalePayee",
          "type": "address"
        },
        {
          "indexed": false,
          "internalType": "uint256",
          "name": "primarySalePayment",
          "type": "uint256"
        }
      ],
      "name": "SecondarySalePayment",
      "type": "event"
    },
    {
      "anonymous": false,
      "inputs": [
        {
          "indexed": true,
          "internalType": "address",
          "name": "_marketplacePayee",
          "type": "address"
        },
        {
          "indexed": true,
          "internalType": "uint256",
          "name": "_marketplacePayment",
          "type": "uint256"
        }
      ],
      "name": "SecondarymarketplacePayment",
      "type": "event"
    },
    {
      "anonymous": false,
      "inputs": [
        {
          "indexed": true,
          "internalType": "address",
          "name": "_payee",
          "type": "address"
        },
        {
          "indexed": false,
          "internalType": "uint256",
          "name": "payeePayment",
          "type": "uint256"
        }
      ],
      "name": "SecondarypayeePayment",
      "type": "event"
    },
    {
      "anonymous": false,
      "inputs": [
        {
          "indexed": true,
          "internalType": "address",
          "name": "_payee",
          "type": "address"
        },
        {
          "indexed": false,
          "internalType": "uint256",
          "name": "amount",
          "type": "uint256"
        }
      ],
      "name": "SendValue",
      "type": "event"
    },
    {
      "inputs": [],
      "name": "COLDIE_AUCTION",
      "outputs": [
        {
          "internalType": "bytes32",
          "name": "",
          "type": "bytes32"
        }
      ],
      "stateMutability": "view",
      "type": "function"
    },
    {
      "inputs": [],
      "name": "NO_AUCTION",
      "outputs": [
        {
          "internalType": "bytes32",
          "name": "",
          "type": "bytes32"
        }
      ],
      "stateMutability": "view",
      "type": "function"
    },
    {
      "inputs": [],
      "name": "SCHEDULED_AUCTION",
      "outputs": [
        {
          "internalType": "bytes32",
          "name": "",
          "type": "bytes32"
        }
      ],
      "stateMutability": "view",
      "type": "function"
    },
    {
      "inputs": [],
      "name": "SendValueProxyInitialize",
      "outputs": [],
      "stateMutability": "nonpayable",
      "type": "function"
    },
    {
      "inputs": [],
      "name": "auctionLengthExtension",
      "outputs": [
        {
          "internalType": "uint256",
          "name": "",
          "type": "uint256"
        }
      ],
      "stateMutability": "view",
      "type": "function"
    },
    {
      "inputs": [],
      "name": "iERC721CreatorRoyalty",
      "outputs": [
        {
          "internalType": "contract IERC721CreatorRoyalty",
          "name": "",
          "type": "address"
        }
      ],
      "stateMutability": "view",
      "type": "function"
    },
    {
      "inputs": [],
      "name": "iMarketSettings",
      "outputs": [
        {
          "internalType": "contract IMarketplaceSettings",
          "name": "",
          "type": "address"
        }
      ],
      "stateMutability": "view",
      "type": "function"
    },
    {
      "inputs": [],
      "name": "initializePayment",
      "outputs": [],
      "stateMutability": "nonpayable",
      "type": "function"
    },
    {
      "inputs": [],
      "name": "maxLength",
      "outputs": [
        {
          "internalType": "uint256",
          "name": "",
          "type": "uint256"
        }
      ],
      "stateMutability": "view",
      "type": "function"
    },
    {
      "inputs": [],
      "name": "minimumBidIncreasePercentage",
      "outputs": [
        {
          "internalType": "uint8",
          "name": "",
          "type": "uint8"
        }
      ],
      "stateMutability": "view",
      "type": "function"
    },
    {
      "inputs": [],
      "name": "owner",
      "outputs": [
        {
          "internalType": "address",
          "name": "",
          "type": "address"
        }
      ],
      "stateMutability": "view",
      "type": "function"
    },
    {
      "inputs": [
        {
          "internalType": "address",
          "name": "dest",
          "type": "address"
        }
      ],
      "name": "payments",
      "outputs": [
        {
          "internalType": "uint256",
          "name": "",
          "type": "uint256"
        }
      ],
      "stateMutability": "view",
      "type": "function"
    },
    {
      "inputs": [],
      "name": "renounceOwnership",
      "outputs": [],
      "stateMutability": "nonpayable",
      "type": "function"
    },
    {
      "inputs": [
        {
          "internalType": "address",
          "name": "newOwner",
          "type": "address"
        }
      ],
      "name": "transferOwnership",
      "outputs": [],
      "stateMutability": "nonpayable",
      "type": "function"
    },
    {
      "inputs": [
        {
          "internalType": "address payable",
          "name": "payee",
          "type": "address"
        }
      ],
      "name": "withdrawPayments",
      "outputs": [],
      "stateMutability": "nonpayable",
      "type": "function"
    },
    {
      "inputs": [
        {
          "internalType": "address",
          "name": "_iMarketSettings",
          "type": "address"
        },
        {
          "internalType": "address",
          "name": "_iERC721CreatorRoyalty",
          "type": "address"
        }
      ],
      "name": "initialize",
      "outputs": [],
      "stateMutability": "nonpayable",
      "type": "function"
    },
    {
      "inputs": [],
      "name": "initialize",
      "outputs": [],
      "stateMutability": "nonpayable",
      "type": "function"
    },
    {
      "inputs": [
        {
          "internalType": "address",
          "name": "_address",
          "type": "address"
        }
      ],
      "name": "setMarketplaceSettings",
      "outputs": [],
      "stateMutability": "nonpayable",
      "type": "function"
    },
    {
      "inputs": [
        {
          "internalType": "address",
          "name": "_address",
          "type": "address"
        }
      ],
      "name": "setIERC721CreatorRoyalty",
      "outputs": [],
      "stateMutability": "nonpayable",
      "type": "function"
    },
    {
      "inputs": [
        {
          "internalType": "uint256",
          "name": "_maxLength",
          "type": "uint256"
        }
      ],
      "name": "setMaxLength",
      "outputs": [],
      "stateMutability": "nonpayable",
      "type": "function"
    },
    {
      "inputs": [
        {
          "internalType": "uint8",
          "name": "_percentage",
          "type": "uint8"
        }
      ],
      "name": "setMinimumBidIncreasePercentage",
      "outputs": [],
      "stateMutability": "nonpayable",
      "type": "function"
    },
    {
      "inputs": [
        {
          "internalType": "uint256",
          "name": "_auctionLengthExtension",
          "type": "uint256"
        }
      ],
      "name": "setAuctionLengthExtension",
      "outputs": [],
      "stateMutability": "nonpayable",
      "type": "function"
    },
    {
      "inputs": [
        {
          "internalType": "address",
          "name": "_contractAddress",
          "type": "address"
        },
        {
          "internalType": "uint256",
          "name": "_tokenId",
          "type": "uint256"
        },
        {
          "internalType": "uint256",
          "name": "_reservePrice",
          "type": "uint256"
        },
        {
          "internalType": "uint256",
          "name": "_lengthOfAuction",
          "type": "uint256"
        }
      ],
      "name": "createColdieAuction",
      "outputs": [],
      "stateMutability": "nonpayable",
      "type": "function"
    },
    {
      "inputs": [
        {
          "internalType": "address",
          "name": "_contractAddress",
          "type": "address"
        },
        {
          "internalType": "uint256",
          "name": "_tokenId",
          "type": "uint256"
        }
      ],
      "name": "cancelAuction",
      "outputs": [],
      "stateMutability": "nonpayable",
      "type": "function"
    },
    {
      "inputs": [
        {
          "internalType": "address",
          "name": "_contractAddress",
          "type": "address"
        },
        {
          "internalType": "uint256",
          "name": "_tokenId",
          "type": "uint256"
        },
        {
          "internalType": "uint256",
          "name": "_minimumBid",
          "type": "uint256"
        },
        {
          "internalType": "uint256",
          "name": "_lengthOfAuction",
          "type": "uint256"
        },
        {
          "internalType": "uint256",
          "name": "_startingBlock",
          "type": "uint256"
        }
      ],
      "name": "createScheduledAuction",
      "outputs": [],
      "stateMutability": "nonpayable",
      "type": "function"
    },
    {
      "inputs": [
        {
          "internalType": "address",
          "name": "_contractAddress",
          "type": "address"
        },
        {
          "internalType": "uint256",
          "name": "_tokenId",
          "type": "uint256"
        },
        {
          "internalType": "uint256",
          "name": "_amount",
          "type": "uint256"
        }
      ],
      "name": "bid",
      "outputs": [],
      "stateMutability": "payable",
      "type": "function"
    },
    {
      "inputs": [
        {
          "internalType": "address",
          "name": "_contractAddress",
          "type": "address"
        },
        {
          "internalType": "uint256",
          "name": "_tokenId",
          "type": "uint256"
        }
      ],
      "name": "settleAuction",
      "outputs": [],
      "stateMutability": "nonpayable",
      "type": "function"
    },
    {
      "inputs": [
        {
          "internalType": "address",
          "name": "_contractAddress",
          "type": "address"
        },
        {
          "internalType": "uint256",
          "name": "_tokenId",
          "type": "uint256"
        }
      ],
      "name": "getAuctionDetails",
      "outputs": [
        {
          "internalType": "bytes32",
          "name": "",
          "type": "bytes32"
        },
        {
          "internalType": "uint256",
          "name": "",
          "type": "uint256"
        },
        {
          "internalType": "address",
          "name": "",
          "type": "address"
        },
        {
          "internalType": "uint256",
          "name": "",
          "type": "uint256"
        },
        {
          "internalType": "uint256",
          "name": "",
          "type": "uint256"
        },
        {
          "internalType": "uint256",
          "name": "",
          "type": "uint256"
        },
        {
          "internalType": "uint256",
          "name": "",
          "type": "uint256"
        }
      ],
      "stateMutability": "view",
      "type": "function"
    },
    {
      "inputs": [
        {
          "internalType": "address",
          "name": "_contractAddress",
          "type": "address"
        },
        {
          "internalType": "uint256",
          "name": "_tokenId",
          "type": "uint256"
        }
      ],
      "name": "getCurrentBid",
      "outputs": [
        {
          "internalType": "address",
          "name": "",
          "type": "address"
        },
        {
          "internalType": "uint256",
          "name": "",
          "type": "uint256"
        }
      ],
      "stateMutability": "view",
      "type": "function"
    }
  ],
  "bytecode": "0x608060405234801561001057600080fd5b50617bdb80620000216000396000f3fe6080604052600436106101c25760003560e01c80638129fc1c116100f7578063cafdcad011610095578063e2982c2111610064578063e2982c2114610891578063e35ed75a146108f6578063f2fde38b14610982578063f4f75dd8146109d3576101c2565b8063cafdcad0146107bf578063d06a89a414610800578063daa264991461082b578063dc2f786714610856576101c2565b80638da5cb5b116100d15780638da5cb5b146106e75780639951c6e014610728578063b23afc2614610769578063c90b871414610794576101c2565b80638129fc1c146105fc57806385196a2d14610613578063859b97fe1461068c576101c2565b806338cdfc0c116101645780635138b08c1161013e5780635138b08c146104ed5780636fe9f44c14610548578063715018a614610576578063767b3dc91461058d576101c2565b806338cdfc0c14610427578063485cc9551461043e57806348626b90146104af576101c2565b806310f79789116101a057806310f797891461031f578063155a56b11461035a578063176ab4401461038557806331b3eb94146103d6576101c2565b80630cd87c68146101c75780630d7d703f146102765780630f41ba4b146102c7575b600080fd5b3480156101d357600080fd5b50610220600480360360408110156101ea57600080fd5b81019080803573ffffffffffffffffffffffffffffffffffffffff169060200190929190803590602001909291905050506109ea565b604051808881526020018781526020018673ffffffffffffffffffffffffffffffffffffffff16815260200185815260200184815260200183815260200182815260200197505050505050505060405180910390f35b34801561028257600080fd5b506102c56004803603602081101561029957600080fd5b81019080803573ffffffffffffffffffffffffffffffffffffffff169060200190929190505050610b2a565b005b61031d600480360360608110156102dd57600080fd5b81019080803573ffffffffffffffffffffffffffffffffffffffff1690602001909291908035906020019092919080359060200190929190505050610ca3565b005b34801561032b57600080fd5b506103586004803603602081101561034257600080fd5b8101908080359060200190929190505050611c95565b005b34801561036657600080fd5b5061036f611da7565b6040518082815260200191505060405180910390f35b34801561039157600080fd5b506103d4600480360360208110156103a857600080fd5b81019080803573ffffffffffffffffffffffffffffffffffffffff169060200190929190505050611dae565b005b3480156103e257600080fd5b50610425600480360360208110156103f957600080fd5b81019080803573ffffffffffffffffffffffffffffffffffffffff169060200190929190505050611f27565b005b34801561043357600080fd5b5061043c611fcd565b005b34801561044a57600080fd5b506104ad6004803603604081101561046157600080fd5b81019080803573ffffffffffffffffffffffffffffffffffffffff169060200190929190803573ffffffffffffffffffffffffffffffffffffffff1690602001909291905050506120d3565b005b3480156104bb57600080fd5b506104eb600480360360208110156104d257600080fd5b81019080803560ff169060200190929190505050612396565b005b3480156104f957600080fd5b506105466004803603604081101561051057600080fd5b81019080803573ffffffffffffffffffffffffffffffffffffffff16906020019092919080359060200190929190505050612463565b005b34801561055457600080fd5b5061055d61300f565b604051808260ff16815260200191505060405180910390f35b34801561058257600080fd5b5061058b613022565b005b34801561059957600080fd5b506105fa600480360360808110156105b057600080fd5b81019080803573ffffffffffffffffffffffffffffffffffffffff169060200190929190803590602001909291908035906020019092919080359060200190929190505050613192565b005b34801561060857600080fd5b506106116136bc565b005b34801561061f57600080fd5b5061068a600480360360a081101561063657600080fd5b81019080803573ffffffffffffffffffffffffffffffffffffffff169060200190929190803590602001909291908035906020019092919080359060200190929190803590602001909291905050506137c2565b005b34801561069857600080fd5b506106e5600480360360408110156106af57600080fd5b81019080803573ffffffffffffffffffffffffffffffffffffffff16906020019092919080359060200190929190505050613d9f565b005b3480156106f357600080fd5b506106fc61443e565b604051808273ffffffffffffffffffffffffffffffffffffffff16815260200191505060405180910390f35b34801561073457600080fd5b5061073d614468565b604051808273ffffffffffffffffffffffffffffffffffffffff16815260200191505060405180910390f35b34801561077557600080fd5b5061077e61448e565b6040518082815260200191505060405180910390f35b3480156107a057600080fd5b506107a96144b2565b6040518082815260200191505060405180910390f35b3480156107cb57600080fd5b506107d46144d6565b604051808273ffffffffffffffffffffffffffffffffffffffff16815260200191505060405180910390f35b34801561080c57600080fd5b506108156144fc565b6040518082815260200191505060405180910390f35b34801561083757600080fd5b50610840614502565b6040518082815260200191505060405180910390f35b34801561086257600080fd5b5061088f6004803603602081101561087957600080fd5b8101908080359060200190929190505050614508565b005b34801561089d57600080fd5b506108e0600480360360208110156108b457600080fd5b81019080803573ffffffffffffffffffffffffffffffffffffffff16906020019092919050505061461a565b6040518082815260200191505060405180910390f35b34801561090257600080fd5b5061094f6004803603604081101561091957600080fd5b81019080803573ffffffffffffffffffffffffffffffffffffffff169060200190929190803590602001909291905050506146e7565b604051808373ffffffffffffffffffffffffffffffffffffffff1681526020018281526020019250505060405180910390f35b34801561098e57600080fd5b506109d1600480360360208110156109a557600080fd5b81019080803573ffffffffffffffffffffffffffffffffffffffff1690602001909291905050506147bd565b005b3480156109df57600080fd5b506109e86149b2565b005b60008060008060008060006109fd61606f565b609a60008b73ffffffffffffffffffffffffffffffffffffffff1673ffffffffffffffffffffffffffffffffffffffff16815260200190815260200160002060008a81526020019081526020016000206040518060e00160405290816000820160009054906101000a900473ffffffffffffffffffffffffffffffffffffffff1673ffffffffffffffffffffffffffffffffffffffff1673ffffffffffffffffffffffffffffffffffffffff168152602001600182015481526020016002820154815260200160038201548152602001600482015481526020016005820154815260200160068201548152505090508060c0015181602001518260000151836040015184606001518560a00151866080015197509750975097509750975097505092959891949750929550565b610b32614b19565b73ffffffffffffffffffffffffffffffffffffffff16610b5061443e565b73ffffffffffffffffffffffffffffffffffffffff1614610bd9576040517f08c379a00000000000000000000000000000000000000000000000000000000081526004018080602001828103825260208152602001807f4f776e61626c653a2063616c6c6572206973206e6f7420746865206f776e657281525060200191505060405180910390fd5b600073ffffffffffffffffffffffffffffffffffffffff168173ffffffffffffffffffffffffffffffffffffffff161415610c5f576040517f08c379a000000000000000000000000000000000000000000000000000000000815260040180806020018281038252604d815260200180617422604d913960600191505060405180910390fd5b80609960006101000a81548173ffffffffffffffffffffffffffffffffffffffff021916908373ffffffffffffffffffffffffffffffffffffffff16021790555050565b610cab61606f565b609a60008573ffffffffffffffffffffffffffffffffffffffff1673ffffffffffffffffffffffffffffffffffffffff16815260200190815260200160002060008481526020019081526020016000206040518060e00160405290816000820160009054906101000a900473ffffffffffffffffffffffffffffffffffffffff1673ffffffffffffffffffffffffffffffffffffffff1673ffffffffffffffffffffffffffffffffffffffff168152602001600182015481526020016002820154815260200160038201548152602001600482015481526020016005820154815260200160068201548152505090506000801b8160c001511415610e17576040517f08c379a000000000000000000000000000000000000000000000000000000000815260040180806020018281038252601f8152602001807f6269643a3a4d7573742068617665206578697374696e672061756374696f6e0081525060200191505060405180910390fd5b3373ffffffffffffffffffffffffffffffffffffffff16816000015173ffffffffffffffffffffffffffffffffffffffff161415610ea0576040517f08c379a00000000000000000000000000000000000000000000000000000000081526004018080602001828103825260238152602001806176d76023913960400191505060405180910390fd5b4381606001511115610efd576040517f08c379a000000000000000000000000000000000000000000000000000000000815260040180806020018281038252603a815260200180617498603a913960400191505060405180910390fd5b60008211610f73576040517f08c379a00000000000000000000000000000000000000000000000000000000081526004018080602001828103825260168152602001807f6269643a3a43616e6e6f74206269642030205765692e0000000000000000000081525060200191505060405180910390fd5b609860009054906101000a900473ffffffffffffffffffffffffffffffffffffffff1673ffffffffffffffffffffffffffffffffffffffff1663f9a23e866040518163ffffffff1660e01b815260040160206040518083038186803b158015610fdb57600080fd5b505afa158015610fef573d6000803e3d6000fd5b505050506040513d602081101561100557600080fd5b810190808051906020019092919050505082111561106e576040517f08c379a00000000000000000000000000000000000000000000000000000000081526004018080602001828103825260258152602001806175fb6025913960400191505060405180910390fd5b609860009054906101000a900473ffffffffffffffffffffffffffffffffffffffff1673ffffffffffffffffffffffffffffffffffffffff16635c1b40f16040518163ffffffff1660e01b815260040160206040518083038186803b1580156110d657600080fd5b505afa1580156110ea573d6000803e3d6000fd5b505050506040513d602081101561110057600080fd5b8101908080519060200190929190505050821015611169576040517f08c379a00000000000000000000000000000000000000000000000000000000081526004018080602001828103825260248152602001806176816024913960400191505060405180910390fd5b80608001518210158015611181575060008160a00151145b806111a057508060a00151821015801561119f575060008160800151145b5b6111f5576040517f08c379a00000000000000000000000000000000000000000000000000000000081526004018080602001828103825260318152602001806175ca6031913960400191505060405180910390fd5b600081606001511480611221575061121e81604001518260600151614b2190919063ffffffff16565b43105b611293576040517f08c379a00000000000000000000000000000000000000000000000000000000081526004018080602001828103825260168152602001807f6269643a3a43616e6e6f74206861766520656e6465640000000000000000000081525060200191505060405180910390fd5b6000611355609860009054906101000a900473ffffffffffffffffffffffffffffffffffffffff1673ffffffffffffffffffffffffffffffffffffffff1663c3fc4952856040518263ffffffff1660e01b81526004018082815260200191505060206040518083038186803b15801561130b57600080fd5b505afa15801561131f573d6000803e3d6000fd5b505050506040513d602081101561133557600080fd5b810190808051906020019092919050505084614b2190919063ffffffff16565b90503481146113af576040517f08c379a00000000000000000000000000000000000000000000000000000000081526004018080602001828103825260218152602001806179666021913960400191505060405180910390fd5b600085905060008173ffffffffffffffffffffffffffffffffffffffff16636352211e876040518263ffffffff1660e01b81526004018082815260200191505060206040518083038186803b15801561140757600080fd5b505afa15801561141b573d6000803e3d6000fd5b505050506040513d602081101561143157600080fd5b810190808051906020019092919050505090508073ffffffffffffffffffffffffffffffffffffffff16846000015173ffffffffffffffffffffffffffffffffffffffff1614806114ad57503073ffffffffffffffffffffffffffffffffffffffff168173ffffffffffffffffffffffffffffffffffffffff16145b611502576040517f08c379a0000000000000000000000000000000000000000000000000000000008152600401808060200182810382526041815260200180617b656041913960600191505060405180910390fd5b8073ffffffffffffffffffffffffffffffffffffffff16846000015173ffffffffffffffffffffffffffffffffffffffff161415611545576115448787614ba9565b5b61154d6160c5565b609b60008973ffffffffffffffffffffffffffffffffffffffff1673ffffffffffffffffffffffffffffffffffffffff16815260200190815260200160002060008881526020019081526020016000206040518060600160405290816000820160009054906101000a900473ffffffffffffffffffffffffffffffffffffffff1673ffffffffffffffffffffffffffffffffffffffff1673ffffffffffffffffffffffffffffffffffffffff1681526020016000820160149054906101000a900460ff1660ff1660ff168152602001600182015481525050905080604001518611801561168b57506116876116746064611666609e60009054906101000a900460ff1660ff168560400151614d5990919063ffffffff16565b614ddf90919063ffffffff16565b8260400151614b2190919063ffffffff16565b8610155b6116e0576040517f08c379a0000000000000000000000000000000000000000000000000000000008152600401808060200182810382526045815260200180617a716045913960600191505060405180910390fd5b60008160400151146116f7576116f68888614e68565b5b60405180606001604052803373ffffffffffffffffffffffffffffffffffffffff168152602001609860009054906101000a900473ffffffffffffffffffffffffffffffffffffffff1673ffffffffffffffffffffffffffffffffffffffff1663834759216040518163ffffffff1660e01b815260040160206040518083038186803b15801561178657600080fd5b505afa15801561179a573d6000803e3d6000fd5b505050506040513d60208110156117b057600080fd5b810190808051906020019092919050505060ff16815260200187815250609b60008a73ffffffffffffffffffffffffffffffffffffffff1673ffffffffffffffffffffffffffffffffffffffff168152602001908152602001600020600089815260200190815260200160002060008201518160000160006101000a81548173ffffffffffffffffffffffffffffffffffffffff021916908373ffffffffffffffffffffffffffffffffffffffff16021790555060208201518160000160146101000a81548160ff021916908360ff16021790555060408201518160010155905050600085606001511415611a435743609a60008a73ffffffffffffffffffffffffffffffffffffffff1673ffffffffffffffffffffffffffffffffffffffff1681526020019081526020016000206000898152602001908152602001600020600301819055508273ffffffffffffffffffffffffffffffffffffffff166323b872dd8660000151308a6040518463ffffffff1660e01b8152600401808473ffffffffffffffffffffffffffffffffffffffff1681526020018373ffffffffffffffffffffffffffffffffffffffff1681526020018281526020019350505050600060405180830381600087803b15801561198a57600080fd5b505af115801561199e573d6000803e3d6000fd5b50505050863373ffffffffffffffffffffffffffffffffffffffff168973ffffffffffffffffffffffffffffffffffffffff167f5d22b2d23515fb6c26c46ebec88f4a8b503493be518661c852adf894344cbae7896001600087600001516040518085815260200184151581526020018381526020018273ffffffffffffffffffffffffffffffffffffffff16815260200194505050505060405180910390a4611c8b565b609c54611a7343611a6588604001518960600151614b2190919063ffffffff16565b6150a290919063ffffffff16565b1015611bee57611aa48560600151611a96609c5443614b2190919063ffffffff16565b6150a290919063ffffffff16565b609a60008a73ffffffffffffffffffffffffffffffffffffffff1673ffffffffffffffffffffffffffffffffffffffff168152602001908152602001600020600089815260200190815260200160002060020181905550863373ffffffffffffffffffffffffffffffffffffffff168973ffffffffffffffffffffffffffffffffffffffff167f5d22b2d23515fb6c26c46ebec88f4a8b503493be518661c852adf894344cbae7896000609a60008f73ffffffffffffffffffffffffffffffffffffffff1673ffffffffffffffffffffffffffffffffffffffff16815260200190815260200160002060008e81526020019081526020016000206002015487600001516040518085815260200184151581526020018381526020018273ffffffffffffffffffffffffffffffffffffffff16815260200194505050505060405180910390a4611c8a565b863373ffffffffffffffffffffffffffffffffffffffff168973ffffffffffffffffffffffffffffffffffffffff167f5d22b2d23515fb6c26c46ebec88f4a8b503493be518661c852adf894344cbae78960008087600001516040518085815260200184151581526020018381526020018273ffffffffffffffffffffffffffffffffffffffff16815260200194505050505060405180910390a45b5b5050505050505050565b611c9d614b19565b73ffffffffffffffffffffffffffffffffffffffff16611cbb61443e565b73ffffffffffffffffffffffffffffffffffffffff1614611d44576040517f08c379a00000000000000000000000000000000000000000000000000000000081526004018080602001828103825260208152602001807f4f776e61626c653a2063616c6c6572206973206e6f7420746865206f776e657281525060200191505060405180910390fd5b60008111611d9d576040517f08c379a0000000000000000000000000000000000000000000000000000000008152600401808060200182810382526049815260200180617a286049913960600191505060405180910390fd5b80609c8190555050565b6000801b81565b611db6614b19565b73ffffffffffffffffffffffffffffffffffffffff16611dd461443e565b73ffffffffffffffffffffffffffffffffffffffff1614611e5d576040517f08c379a00000000000000000000000000000000000000000000000000000000081526004018080602001828103825260208152602001807f4f776e61626c653a2063616c6c6572206973206e6f7420746865206f776e657281525060200191505060405180910390fd5b600073ffffffffffffffffffffffffffffffffffffffff168173ffffffffffffffffffffffffffffffffffffffff161415611ee3576040517f08c379a00000000000000000000000000000000000000000000000000000000081526004018080602001828103825260458152602001806177506045913960600191505060405180910390fd5b80609860006101000a81548173ffffffffffffffffffffffffffffffffffffffff021916908373ffffffffffffffffffffffffffffffffffffffff16021790555050565b606660009054906101000a900473ffffffffffffffffffffffffffffffffffffffff1673ffffffffffffffffffffffffffffffffffffffff166351cff8d9826040518263ffffffff1660e01b8152600401808273ffffffffffffffffffffffffffffffffffffffff168152602001915050600060405180830381600087803b158015611fb257600080fd5b505af1158015611fc6573d6000803e3d6000fd5b5050505050565b600060019054906101000a900460ff1680611fec5750611feb615125565b5b80612002575060008054906101000a900460ff16155b612057576040517f08c379a000000000000000000000000000000000000000000000000000000000815260040180806020018281038252602e8152602001806176fa602e913960400191505060405180910390fd5b60008060019054906101000a900460ff1615905080156120a7576001600060016101000a81548160ff02191690831515021790555060016000806101000a81548160ff0219169083151502179055505b6120af6136bc565b80156120d05760008060016101000a81548160ff0219169083151502179055505b50565b600060019054906101000a900460ff16806120f257506120f1615125565b5b80612108575060008054906101000a900460ff16155b61215d576040517f08c379a000000000000000000000000000000000000000000000000000000000815260040180806020018281038252602e8152602001806176fa602e913960400191505060405180910390fd5b60008060019054906101000a900460ff1615905080156121ad576001600060016101000a81548160ff02191690831515021790555060016000806101000a81548160ff0219169083151502179055505b61a8c0609d819055506041609c81905550600073ffffffffffffffffffffffffffffffffffffffff168373ffffffffffffffffffffffffffffffffffffffff161415612244576040517f08c379a000000000000000000000000000000000000000000000000000000000815260040180806020018281038252603a815260200180617889603a913960400191505060405180910390fd5b600073ffffffffffffffffffffffffffffffffffffffff168273ffffffffffffffffffffffffffffffffffffffff1614156122ca576040517f08c379a00000000000000000000000000000000000000000000000000000000081526004018080602001828103825260408152602001806177956040913960400191505060405180910390fd5b6122d2615136565b82609860006101000a81548173ffffffffffffffffffffffffffffffffffffffff021916908373ffffffffffffffffffffffffffffffffffffffff16021790555081609960006101000a81548173ffffffffffffffffffffffffffffffffffffffff021916908373ffffffffffffffffffffffffffffffffffffffff160217905550600a609e60006101000a81548160ff021916908360ff16021790555080156123915760008060016101000a81548160ff0219169083151502179055505b505050565b61239e614b19565b73ffffffffffffffffffffffffffffffffffffffff166123bc61443e565b73ffffffffffffffffffffffffffffffffffffffff1614612445576040517f08c379a00000000000000000000000000000000000000000000000000000000081526004018080602001828103825260208152602001807f4f776e61626c653a2063616c6c6572206973206e6f7420746865206f776e657281525060200191505060405180910390fd5b80609e60006101000a81548160ff021916908360ff16021790555050565b61246b61606f565b609a60008473ffffffffffffffffffffffffffffffffffffffff1673ffffffffffffffffffffffffffffffffffffffff16815260200190815260200160002060008381526020019081526020016000206040518060e00160405290816000820160009054906101000a900473ffffffffffffffffffffffffffffffffffffffff1673ffffffffffffffffffffffffffffffffffffffff1673ffffffffffffffffffffffffffffffffffffffff168152602001600182015481526020016002820154815260200160038201548152602001600482015481526020016005820154815260200160068201548152505090506000801b8160c001511415801561257657506000816060015114155b6125cb576040517f08c379a000000000000000000000000000000000000000000000000000000000815260040180806020018281038252603b81526020018061758f603b913960400191505060405180910390fd5b6125e681604001518260600151614b2190919063ffffffff16565b43101561263e576040517f08c379a000000000000000000000000000000000000000000000000000000000815260040180806020018281038252602e815260200180617ab6602e913960400191505060405180910390fd5b6126466160c5565b609b60008573ffffffffffffffffffffffffffffffffffffffff1673ffffffffffffffffffffffffffffffffffffffff16815260200190815260200160002060008481526020019081526020016000206040518060600160405290816000820160009054906101000a900473ffffffffffffffffffffffffffffffffffffffff1673ffffffffffffffffffffffffffffffffffffffff1673ffffffffffffffffffffffffffffffffffffffff1681526020016000820160149054906101000a900460ff1660ff1660ff16815260200160018201548152505090506040518060600160405280600073ffffffffffffffffffffffffffffffffffffffff168152602001600060ff1681526020016000815250609b60008673ffffffffffffffffffffffffffffffffffffffff1673ffffffffffffffffffffffffffffffffffffffff168152602001908152602001600020600085815260200190815260200160002060008201518160000160006101000a81548173ffffffffffffffffffffffffffffffffffffffff021916908373ffffffffffffffffffffffffffffffffffffffff16021790555060208201518160000160146101000a81548160ff021916908360ff160217905550604082015181600101559050506040518060e00160405280600073ffffffffffffffffffffffffffffffffffffffff16815260200160008152602001600081526020016000815260200160008152602001600081526020016000801b815250609a60008673ffffffffffffffffffffffffffffffffffffffff1673ffffffffffffffffffffffffffffffffffffffff168152602001908152602001600020600085815260200190815260200160002060008201518160000160006101000a81548173ffffffffffffffffffffffffffffffffffffffff021916908373ffffffffffffffffffffffffffffffffffffffff1602179055506020820151816001015560408201518160020155606082015181600301556080820151816004015560a0820151816005015560c082015181600601559050506000849050600073ffffffffffffffffffffffffffffffffffffffff16826000015173ffffffffffffffffffffffffffffffffffffffff161415612abf578073ffffffffffffffffffffffffffffffffffffffff166323b872dd308560000151876040518463ffffffff1660e01b8152600401808473ffffffffffffffffffffffffffffffffffffffff1681526020018373ffffffffffffffffffffffffffffffffffffffff1681526020018281526020019350505050600060405180830381600087803b158015612a1557600080fd5b505af1158015612a29573d6000803e3d6000fd5b5050505083600073ffffffffffffffffffffffffffffffffffffffff168673ffffffffffffffffffffffffffffffffffffffff167fea6d16c6bfcad11577aef5cc6728231c9f069ac78393828f8ca96847405902a986600001516000604051808373ffffffffffffffffffffffffffffffffffffffff1681526020018281526020019250505060405180910390a450505061300b565b8073ffffffffffffffffffffffffffffffffffffffff166323b872dd308460000151876040518463ffffffff1660e01b8152600401808473ffffffffffffffffffffffffffffffffffffffff1681526020018373ffffffffffffffffffffffffffffffffffffffff1681526020018281526020019350505050600060405180830381600087803b158015612b5257600080fd5b505af1158015612b66573d6000803e3d6000fd5b505050506000612b7c612b7761443e565b615244565b9050612ec08360400151609860009054906101000a900473ffffffffffffffffffffffffffffffffffffffff1673ffffffffffffffffffffffffffffffffffffffff1663511bc84c89896040518363ffffffff1660e01b8152600401808373ffffffffffffffffffffffffffffffffffffffff1681526020018281526020019250505060206040518083038186803b158015612c1757600080fd5b505afa158015612c2b573d6000803e3d6000fd5b505050506040513d6020811015612c4157600080fd5b8101908080519060200190929190505050158560200151609960009054906101000a900473ffffffffffffffffffffffffffffffffffffffff1673ffffffffffffffffffffffffffffffffffffffff16637c0329f78b8b6040518363ffffffff1660e01b8152600401808373ffffffffffffffffffffffffffffffffffffffff1681526020018281526020019250505060206040518083038186803b158015612ce957600080fd5b505afa158015612cfd573d6000803e3d6000fd5b505050506040513d6020811015612d1357600080fd5b8101908080519060200190929190505050609860009054906101000a900473ffffffffffffffffffffffffffffffffffffffff1673ffffffffffffffffffffffffffffffffffffffff1663b28a7bad8c6040518263ffffffff1660e01b8152600401808273ffffffffffffffffffffffffffffffffffffffff16815260200191505060206040518083038186803b158015612dad57600080fd5b505afa158015612dc1573d6000803e3d6000fd5b505050506040513d6020811015612dd757600080fd5b8101908080519060200190929190505050896000015187609960009054906101000a900473ffffffffffffffffffffffffffffffffffffffff1673ffffffffffffffffffffffffffffffffffffffff1663b85ed7e48f8f6040518363ffffffff1660e01b8152600401808373ffffffffffffffffffffffffffffffffffffffff1681526020018281526020019250505060206040518083038186803b158015612e7f57600080fd5b505afa158015612e93573d6000803e3d6000fd5b505050506040513d6020811015612ea957600080fd5b81019080805190602001909291905050508961524e565b609860009054906101000a900473ffffffffffffffffffffffffffffffffffffffff1673ffffffffffffffffffffffffffffffffffffffff16635a3c652d878760016040518463ffffffff1660e01b8152600401808473ffffffffffffffffffffffffffffffffffffffff16815260200183815260200182151581526020019350505050600060405180830381600087803b158015612f5e57600080fd5b505af1158015612f72573d6000803e3d6000fd5b5050505084836000015173ffffffffffffffffffffffffffffffffffffffff168773ffffffffffffffffffffffffffffffffffffffff167fea6d16c6bfcad11577aef5cc6728231c9f069ac78393828f8ca96847405902a987600001518760400151604051808373ffffffffffffffffffffffffffffffffffffffff1681526020018281526020019250505060405180910390a4505050505b5050565b609e60009054906101000a900460ff1681565b61302a614b19565b73ffffffffffffffffffffffffffffffffffffffff1661304861443e565b73ffffffffffffffffffffffffffffffffffffffff16146130d1576040517f08c379a00000000000000000000000000000000000000000000000000000000081526004018080602001828103825260208152602001807f4f776e61626c653a2063616c6c6572206973206e6f7420746865206f776e657281525060200191505060405180910390fd5b600073ffffffffffffffffffffffffffffffffffffffff16603360009054906101000a900473ffffffffffffffffffffffffffffffffffffffff1673ffffffffffffffffffffffffffffffffffffffff167f8be0079c531659141344cd1fd0a4f28419497f9722a3daafe3b4186f6b6457e060405160405180910390a36000603360006101000a81548173ffffffffffffffffffffffffffffffffffffffff021916908373ffffffffffffffffffffffffffffffffffffffff160217905550565b61319c8484614ba9565b6131a684846156e9565b609d54811115613201576040517f08c379a000000000000000000000000000000000000000000000000000000000815260040180806020018281038252603e815260200180617b27603e913960400191505060405180910390fd5b6000801b609a60008673ffffffffffffffffffffffffffffffffffffffff1673ffffffffffffffffffffffffffffffffffffffff16815260200190815260200160002060008581526020019081526020016000206006015414806133045750609a60008573ffffffffffffffffffffffffffffffffffffffff1673ffffffffffffffffffffffffffffffffffffffff168152602001908152602001600020600084815260200190815260200160002060000160009054906101000a900473ffffffffffffffffffffffffffffffffffffffff1673ffffffffffffffffffffffffffffffffffffffff163373ffffffffffffffffffffffffffffffffffffffff1614155b613359576040517f08c379a00000000000000000000000000000000000000000000000000000000081526004018080602001828103825260328152602001806176a56032913960400191505060405180910390fd5b600081116133b2576040517f08c379a00000000000000000000000000000000000000000000000000000000081526004018080602001828103825260318152602001806178586031913960400191505060405180910390fd5b600082101561340c576040517f08c379a000000000000000000000000000000000000000000000000000000000815260040180806020018281038252602f815260200180617620602f913960400191505060405180910390fd5b609860009054906101000a900473ffffffffffffffffffffffffffffffffffffffff1673ffffffffffffffffffffffffffffffffffffffff1663f9a23e866040518163ffffffff1660e01b815260040160206040518083038186803b15801561347457600080fd5b505afa158015613488573d6000803e3d6000fd5b505050506040513d602081101561349e57600080fd5b8101908080519060200190929190505050821115613507576040517f08c379a0000000000000000000000000000000000000000000000000000000008152600401808060200182810382526043815260200180617ae46043913960600191505060405180910390fd5b6040518060e001604052803373ffffffffffffffffffffffffffffffffffffffff16815260200143815260200182815260200160008152602001838152602001600081526020017f434f4c4449455f41554354494f4e000000000000000000000000000000000000815250609a60008673ffffffffffffffffffffffffffffffffffffffff1673ffffffffffffffffffffffffffffffffffffffff168152602001908152602001600020600085815260200190815260200160002060008201518160000160006101000a81548173ffffffffffffffffffffffffffffffffffffffff021916908373ffffffffffffffffffffffffffffffffffffffff1602179055506020820151816001015560408201518160020155606082015181600301556080820151816004015560a0820151816005015560c082015181600601559050503373ffffffffffffffffffffffffffffffffffffffff16838573ffffffffffffffffffffffffffffffffffffffff167f51d3615735f04b7ff33bfd9f5eb857d899bf9b848d3858cba7db855bc69fb9148585604051808381526020018281526020019250505060405180910390a450505050565b600060019054906101000a900460ff16806136db57506136da615125565b5b806136f1575060008054906101000a900460ff16155b613746576040517f08c379a000000000000000000000000000000000000000000000000000000000815260040180806020018281038252602e8152602001806176fa602e913960400191505060405180910390fd5b60008060019054906101000a900460ff161590508015613796576001600060016101000a81548160ff02191690831515021790555060016000806101000a81548160ff0219169083151502179055505b61379e615825565b80156137bf5760008060016101000a81548160ff0219169083151502179055505b50565b6000821161381b576040517f08c379a000000000000000000000000000000000000000000000000000000000815260040180806020018281038252603f8152602001806178f2603f913960400191505060405180910390fd5b609d54821115613876576040517f08c379a00000000000000000000000000000000000000000000000000000000081526004018080602001828103825260418152602001806177d56041913960600191505060405180910390fd5b4381116138ce576040517f08c379a00000000000000000000000000000000000000000000000000000000081526004018080602001828103825260488152602001806179876048913960600191505060405180910390fd5b609860009054906101000a900473ffffffffffffffffffffffffffffffffffffffff1673ffffffffffffffffffffffffffffffffffffffff1663f9a23e866040518163ffffffff1660e01b815260040160206040518083038186803b15801561393657600080fd5b505afa15801561394a573d6000803e3d6000fd5b505050506040513d602081101561396057600080fd5b81019080805190602001909291905050508311156139c9576040517f08c379a00000000000000000000000000000000000000000000000000000000081526004018080602001828103825260448152602001806175256044913960600191505060405180910390fd5b6139d38585614ba9565b6139dd85856156e9565b6000801b609a60008773ffffffffffffffffffffffffffffffffffffffff1673ffffffffffffffffffffffffffffffffffffffff1681526020019081526020016000206000868152602001908152602001600020600601541480613ae05750609a60008673ffffffffffffffffffffffffffffffffffffffff1673ffffffffffffffffffffffffffffffffffffffff168152602001908152602001600020600085815260200190815260200160002060000160009054906101000a900473ffffffffffffffffffffffffffffffffffffffff1673ffffffffffffffffffffffffffffffffffffffff163373ffffffffffffffffffffffffffffffffffffffff1614155b613b35576040517f08c379a00000000000000000000000000000000000000000000000000000000081526004018080602001828103825260358152602001806179316035913960400191505060405180910390fd5b6040518060e001604052803373ffffffffffffffffffffffffffffffffffffffff168152602001438152602001838152602001828152602001600081526020018481526020017f5343484544554c45445f41554354494f4e000000000000000000000000000000815250609a60008773ffffffffffffffffffffffffffffffffffffffff1673ffffffffffffffffffffffffffffffffffffffff168152602001908152602001600020600086815260200190815260200160002060008201518160000160006101000a81548173ffffffffffffffffffffffffffffffffffffffff021916908373ffffffffffffffffffffffffffffffffffffffff1602179055506020820151816001015560408201518160020155606082015181600301556080820151816004015560a0820151816005015560c0820151816006015590505060008590508073ffffffffffffffffffffffffffffffffffffffff166323b872dd3330886040518463ffffffff1660e01b8152600401808473ffffffffffffffffffffffffffffffffffffffff1681526020018373ffffffffffffffffffffffffffffffffffffffff1681526020018281526020019350505050600060405180830381600087803b158015613d0957600080fd5b505af1158015613d1d573d6000803e3d6000fd5b505050503373ffffffffffffffffffffffffffffffffffffffff16858773ffffffffffffffffffffffffffffffffffffffff167f97ef537a4a14d8899c80db7b0665dac266da778443e37e073ec2a11ec62bea5b85888860405180848152602001838152602001828152602001935050505060405180910390a4505050505050565b6000801b609a60008473ffffffffffffffffffffffffffffffffffffffff1673ffffffffffffffffffffffffffffffffffffffff1681526020019081526020016000206000838152602001908152602001600020600601541415613e4e576040517f08c379a000000000000000000000000000000000000000000000000000000000815260040180806020018281038252602a8152602001806174fb602a913960400191505060405180910390fd5b6000609a60008473ffffffffffffffffffffffffffffffffffffffff1673ffffffffffffffffffffffffffffffffffffffff1681526020019081526020016000206000838152602001908152602001600020600301541480613f02575043609a60008473ffffffffffffffffffffffffffffffffffffffff1673ffffffffffffffffffffffffffffffffffffffff168152602001908152602001600020600083815260200190815260200160002060030154115b613f57576040517f08c379a00000000000000000000000000000000000000000000000000000000081526004018080602001828103825260288152602001806179cf6028913960400191505060405180910390fd5b3373ffffffffffffffffffffffffffffffffffffffff16609a60008473ffffffffffffffffffffffffffffffffffffffff1673ffffffffffffffffffffffffffffffffffffffff168152602001908152602001600020600083815260200190815260200160002060000160009054906101000a900473ffffffffffffffffffffffffffffffffffffffff1673ffffffffffffffffffffffffffffffffffffffff161461404e576040517f08c379a00000000000000000000000000000000000000000000000000000000081526004018080602001828103825260318152602001806179f76031913960400191505060405180910390fd5b61405661606f565b609a60008473ffffffffffffffffffffffffffffffffffffffff1673ffffffffffffffffffffffffffffffffffffffff16815260200190815260200160002060008381526020019081526020016000206040518060e00160405290816000820160009054906101000a900473ffffffffffffffffffffffffffffffffffffffff1673ffffffffffffffffffffffffffffffffffffffff1673ffffffffffffffffffffffffffffffffffffffff168152602001600182015481526020016002820154815260200160038201548152602001600482015481526020016005820154815260200160068201548152505090506040518060e00160405280600073ffffffffffffffffffffffffffffffffffffffff16815260200160008152602001600081526020016000815260200160008152602001600081526020016000801b815250609a60008573ffffffffffffffffffffffffffffffffffffffff1673ffffffffffffffffffffffffffffffffffffffff168152602001908152602001600020600084815260200190815260200160002060008201518160000160006101000a81548173ffffffffffffffffffffffffffffffffffffffff021916908373ffffffffffffffffffffffffffffffffffffffff1602179055506020820151816001015560408201518160020155606082015181600301556080820151816004015560a0820151816005015560c0820151816006015590505060008390503073ffffffffffffffffffffffffffffffffffffffff168173ffffffffffffffffffffffffffffffffffffffff16636352211e856040518263ffffffff1660e01b81526004018082815260200191505060206040518083038186803b1580156142da57600080fd5b505afa1580156142ee573d6000803e3d6000fd5b505050506040513d602081101561430457600080fd5b810190808051906020019092919050505073ffffffffffffffffffffffffffffffffffffffff1614156143d9578073ffffffffffffffffffffffffffffffffffffffff166323b872dd3033866040518463ffffffff1660e01b8152600401808473ffffffffffffffffffffffffffffffffffffffff1681526020018373ffffffffffffffffffffffffffffffffffffffff1681526020018281526020019350505050600060405180830381600087803b1580156143c057600080fd5b505af11580156143d4573d6000803e3d6000fd5b505050505b816000015173ffffffffffffffffffffffffffffffffffffffff16838573ffffffffffffffffffffffffffffffffffffffff167f26d4510b556e779d6507640413e013206e44c8f5d018c7c74ed8926f3f024a9c60405160405180910390a450505050565b6000603360009054906101000a900473ffffffffffffffffffffffffffffffffffffffff16905090565b609860009054906101000a900473ffffffffffffffffffffffffffffffffffffffff1681565b7f5343484544554c45445f41554354494f4e00000000000000000000000000000081565b7f434f4c4449455f41554354494f4e00000000000000000000000000000000000081565b609960009054906101000a900473ffffffffffffffffffffffffffffffffffffffff1681565b609d5481565b609c5481565b614510614b19565b73ffffffffffffffffffffffffffffffffffffffff1661452e61443e565b73ffffffffffffffffffffffffffffffffffffffff16146145b7576040517f08c379a00000000000000000000000000000000000000000000000000000000081526004018080602001828103825260208152602001807f4f776e61626c653a2063616c6c6572206973206e6f7420746865206f776e657281525060200191505060405180910390fd5b60008111614610576040517f08c379a000000000000000000000000000000000000000000000000000000000815260040180806020018281038252602f8152602001806178c3602f913960400191505060405180910390fd5b80609d8190555050565b6000606660009054906101000a900473ffffffffffffffffffffffffffffffffffffffff1673ffffffffffffffffffffffffffffffffffffffff1663e3a9db1a836040518263ffffffff1660e01b8152600401808273ffffffffffffffffffffffffffffffffffffffff16815260200191505060206040518083038186803b1580156146a557600080fd5b505afa1580156146b9573d6000803e3d6000fd5b505050506040513d60208110156146cf57600080fd5b81019080805190602001909291905050509050919050565b600080609b60008573ffffffffffffffffffffffffffffffffffffffff1673ffffffffffffffffffffffffffffffffffffffff168152602001908152602001600020600084815260200190815260200160002060000160009054906101000a900473ffffffffffffffffffffffffffffffffffffffff16609b60008673ffffffffffffffffffffffffffffffffffffffff1673ffffffffffffffffffffffffffffffffffffffff168152602001908152602001600020600085815260200190815260200160002060010154915091509250929050565b6147c5614b19565b73ffffffffffffffffffffffffffffffffffffffff166147e361443e565b73ffffffffffffffffffffffffffffffffffffffff161461486c576040517f08c379a00000000000000000000000000000000000000000000000000000000081526004018080602001828103825260208152602001807f4f776e61626c653a2063616c6c6572206973206e6f7420746865206f776e657281525060200191505060405180910390fd5b600073ffffffffffffffffffffffffffffffffffffffff168173ffffffffffffffffffffffffffffffffffffffff1614156148f2576040517f08c379a00000000000000000000000000000000000000000000000000000000081526004018080602001828103825260268152602001806175696026913960400191505060405180910390fd5b8073ffffffffffffffffffffffffffffffffffffffff16603360009054906101000a900473ffffffffffffffffffffffffffffffffffffffff1673ffffffffffffffffffffffffffffffffffffffff167f8be0079c531659141344cd1fd0a4f28419497f9722a3daafe3b4186f6b6457e060405160405180910390a380603360006101000a81548173ffffffffffffffffffffffffffffffffffffffff021916908373ffffffffffffffffffffffffffffffffffffffff16021790555050565b600060019054906101000a900460ff16806149d157506149d0615125565b5b806149e7575060008054906101000a900460ff16155b614a3c576040517f08c379a000000000000000000000000000000000000000000000000000000000815260040180806020018281038252602e8152602001806176fa602e913960400191505060405180910390fd5b60008060019054906101000a900460ff161590508015614a8c576001600060016101000a81548160ff02191690831515021790555060016000806101000a81548160ff0219169083151502179055505b604051614a98906160ff565b604051809103906000f080158015614ab4573d6000803e3d6000fd5b50606560006101000a81548173ffffffffffffffffffffffffffffffffffffffff021916908373ffffffffffffffffffffffffffffffffffffffff1602179055508015614b165760008060016101000a81548160ff0219169083151502179055505b50565b600033905090565b600080828401905083811015614b9f576040517f08c379a000000000000000000000000000000000000000000000000000000000815260040180806020018281038252601b8152602001807f536166654d6174683a206164646974696f6e206f766572666c6f77000000000081525060200191505060405180910390fd5b8091505092915050565b600082905060008173ffffffffffffffffffffffffffffffffffffffff16636352211e846040518263ffffffff1660e01b81526004018082815260200191505060206040518083038186803b158015614c0157600080fd5b505afa158015614c15573d6000803e3d6000fd5b505050506040513d6020811015614c2b57600080fd5b810190808051906020019092919050505090508173ffffffffffffffffffffffffffffffffffffffff1663e985e9c582306040518363ffffffff1660e01b8152600401808373ffffffffffffffffffffffffffffffffffffffff1681526020018273ffffffffffffffffffffffffffffffffffffffff1681526020019250505060206040518083038186803b158015614cc357600080fd5b505afa158015614cd7573d6000803e3d6000fd5b505050506040513d6020811015614ced57600080fd5b8101908080519060200190929190505050614d53576040517f08c379a00000000000000000000000000000000000000000000000000000000081526004018080602001828103825260218152602001806178376021913960400191505060405180910390fd5b50505050565b600080831415614d6c5760009050614dd9565b6000828402905082848281614d7d57fe5b0414614dd4576040517f08c379a00000000000000000000000000000000000000000000000000000000081526004018080602001828103825260218152602001806178166021913960400191505060405180910390fd5b809150505b92915050565b6000808211614e56576040517f08c379a000000000000000000000000000000000000000000000000000000000815260040180806020018281038252601a8152602001807f536166654d6174683a206469766973696f6e206279207a65726f00000000000081525060200191505060405180910390fd5b818381614e5f57fe5b04905092915050565b614e706160c5565b609b60008473ffffffffffffffffffffffffffffffffffffffff1673ffffffffffffffffffffffffffffffffffffffff16815260200190815260200160002060008381526020019081526020016000206040518060600160405290816000820160009054906101000a900473ffffffffffffffffffffffffffffffffffffffff1673ffffffffffffffffffffffffffffffffffffffff1673ffffffffffffffffffffffffffffffffffffffff1681526020016000820160149054906101000a900460ff1660ff1660ff1681526020016001820154815250509050600073ffffffffffffffffffffffffffffffffffffffff16816000015173ffffffffffffffffffffffffffffffffffffffff161415614f89575061509e565b6040518060600160405280600073ffffffffffffffffffffffffffffffffffffffff168152602001600060ff1681526020016000815250609b60008573ffffffffffffffffffffffffffffffffffffffff1673ffffffffffffffffffffffffffffffffffffffff168152602001908152602001600020600084815260200190815260200160002060008201518160000160006101000a81548173ffffffffffffffffffffffffffffffffffffffff021916908373ffffffffffffffffffffffffffffffffffffffff16021790555060208201518160000160146101000a81548160ff021916908360ff1602179055506040820151816001015590505061509c81602001518260000151836040015161592b565b505b5050565b60008282111561511a576040517f08c379a000000000000000000000000000000000000000000000000000000000815260040180806020018281038252601e8152602001807f536166654d6174683a207375627472616374696f6e206f766572666c6f77000081525060200191505060405180910390fd5b818303905092915050565b6000615130306159e5565b15905090565b600060019054906101000a900460ff16806151555750615154615125565b5b8061516b575060008054906101000a900460ff16155b6151c0576040517f08c379a000000000000000000000000000000000000000000000000000000000815260040180806020018281038252602e8152602001806176fa602e913960400191505060405180910390fd5b60008060019054906101000a900460ff161590508015615210576001600060016101000a81548160ff02191690831515021790555060016000806101000a81548160ff0219169083151502179055505b6152186159f8565b615220615af6565b80156152415760008060016101000a81548160ff0219169083151502179055505b50565b6000819050919050565b60648760ff1611156152ab576040517f08c379a000000000000000000000000000000000000000000000000000000000815260040180806020018281038252603281526020018061764f6032913960400191505060405180910390fd5b60646152c68660ff168860ff16614b2190919063ffffffff16565b111561531d576040517f08c379a00000000000000000000000000000000000000000000000000000000081526004018080602001828103825260288152602001806177286028913960400191505060405180910390fd5b600073ffffffffffffffffffffffffffffffffffffffff168473ffffffffffffffffffffffffffffffffffffffff16141580156153875750600073ffffffffffffffffffffffffffffffffffffffff168173ffffffffffffffffffffffffffffffffffffffff1614155b80156153c05750600073ffffffffffffffffffffffffffffffffffffffff168373ffffffffffffffffffffffffffffffffffffffff1614155b80156153f95750600073ffffffffffffffffffffffffffffffffffffffff168273ffffffffffffffffffffffffffffffffffffffff1614155b61544e576040517f08c379a000000000000000000000000000000000000000000000000000000000815260040180806020018281038252602981526020018061746f6029913960400191505060405180910390fd5b61545661610c565b6154608a89615c9d565b8160006004811061546d57fe5b602002018181525050615481898b89615cd0565b8160016004811061548e57fe5b6020020181815250506154a2898b88615cf5565b816002600481106154af57fe5b6020020181815250506154dc816002600481106154c857fe5b60200201518b6150a290919063ffffffff16565b816003600481106154e957fe5b60200201818152505060008160006004811061550157fe5b6020020151111561557d57615527848260006004811061551d57fe5b6020020151615d1a565b8060006004811061553457fe5b60200201518473ffffffffffffffffffffffffffffffffffffffff167fa9fc7bb5e4b4d7971ef0c84708e14f2f199e11a9715d4886572e0304e8c73fe860405160405180910390a35b60008160016004811061558c57fe5b602002015111156155b3576155b283826001600481106155a857fe5b6020020151615d1a565b5b6000816002600481106155c257fe5b60200201511115615648576155e882826002600481106155de57fe5b6020020151615d1a565b8173ffffffffffffffffffffffffffffffffffffffff167f8417e0b8385f07a54787925d3a4071ef159568b5572174d7a7495c3eca0090d18260026004811061562d57fe5b60200201516040518082815260200191505060405180910390a25b60008160036004811061565757fe5b602002015111156156dd5761567d858260036004811061567357fe5b6020020151615d1a565b8473ffffffffffffffffffffffffffffffffffffffff167fafc216cffbed749a53a4b413bd36b80b147454a28fd3115902e58a501ffba382826003600481106156c257fe5b60200201516040518082815260200191505060405180910390a25b50505050505050505050565b600082905060008173ffffffffffffffffffffffffffffffffffffffff16636352211e846040518263ffffffff1660e01b81526004018082815260200191505060206040518083038186803b15801561574157600080fd5b505afa158015615755573d6000803e3d6000fd5b505050506040513d602081101561576b57600080fd5b810190808051906020019092919050505090503373ffffffffffffffffffffffffffffffffffffffff168173ffffffffffffffffffffffffffffffffffffffff161461581f576040517f08c379a000000000000000000000000000000000000000000000000000000000815260040180806020018281038252601c8152602001807f6f776e6572206d757374206265206d6573736167652073656e6465720000000081525060200191505060405180910390fd5b50505050565b600060019054906101000a900460ff16806158445750615843615125565b5b8061585a575060008054906101000a900460ff16155b6158af576040517f08c379a000000000000000000000000000000000000000000000000000000000815260040180806020018281038252602e8152602001806176fa602e913960400191505060405180910390fd5b60008060019054906101000a900460ff1615905080156158ff576001600060016101000a81548160ff02191690831515021790555060016000806101000a81548160ff0219169083151502179055505b615907615d8b565b80156159285760008060016101000a81548160ff0219169083151502179055505b50565b600073ffffffffffffffffffffffffffffffffffffffff168273ffffffffffffffffffffffffffffffffffffffff1614156159b1576040517f08c379a00000000000000000000000000000000000000000000000000000000081526004018080602001828103825260298152602001806174d26029913960400191505060405180910390fd5b60008111156159e0576159df826159da6159cb8487615c9d565b84614b2190919063ffffffff16565b615d1a565b5b505050565b600080823b905060008111915050919050565b600060019054906101000a900460ff1680615a175750615a16615125565b5b80615a2d575060008054906101000a900460ff16155b615a82576040517f08c379a000000000000000000000000000000000000000000000000000000000815260040180806020018281038252602e8152602001806176fa602e913960400191505060405180910390fd5b60008060019054906101000a900460ff161590508015615ad2576001600060016101000a81548160ff02191690831515021790555060016000806101000a81548160ff0219169083151502179055505b8015615af35760008060016101000a81548160ff0219169083151502179055505b50565b600060019054906101000a900460ff1680615b155750615b14615125565b5b80615b2b575060008054906101000a900460ff16155b615b80576040517f08c379a000000000000000000000000000000000000000000000000000000000815260040180806020018281038252602e8152602001806176fa602e913960400191505060405180910390fd5b60008060019054906101000a900460ff161590508015615bd0576001600060016101000a81548160ff02191690831515021790555060016000806101000a81548160ff0219169083151502179055505b6000615bda614b19565b905080603360006101000a81548173ffffffffffffffffffffffffffffffffffffffff021916908373ffffffffffffffffffffffffffffffffffffffff1602179055508073ffffffffffffffffffffffffffffffffffffffff16600073ffffffffffffffffffffffffffffffffffffffff167f8be0079c531659141344cd1fd0a4f28419497f9722a3daafe3b4186f6b6457e060405160405180910390a3508015615c9a5760008060016101000a81548160ff0219169083151502179055505b50565b6000615cc86064615cba8460ff1686614d5990919063ffffffff16565b614ddf90919063ffffffff16565b905092915050565b60008315615ce15760009050615cee565b615ceb8383615c9d565b90505b9392505050565b60008315615d0e57615d078383615c9d565b9050615d13565b600090505b9392505050565b6000615d268383615f74565b905080615d3857615d378383615fc7565b5b8273ffffffffffffffffffffffffffffffffffffffff167fd88d14434dd4c47d8cd227a931f475ddfaa46a219994f6c5094bd04d940c3c1b836040518082815260200191505060405180910390a2505050565b600060019054906101000a900460ff1680615daa5750615da9615125565b5b80615dc0575060008054906101000a900460ff16155b615e15576040517f08c379a000000000000000000000000000000000000000000000000000000000815260040180806020018281038252602e8152602001806176fa602e913960400191505060405180910390fd5b60008060019054906101000a900460ff161590508015615e65576001600060016101000a81548160ff02191690831515021790555060016000806101000a81548160ff0219169083151502179055505b604051615e719061612e565b604051809103906000f080158015615e8d573d6000803e3d6000fd5b50606660006101000a81548173ffffffffffffffffffffffffffffffffffffffff021916908373ffffffffffffffffffffffffffffffffffffffff160217905550606660009054906101000a900473ffffffffffffffffffffffffffffffffffffffff1673ffffffffffffffffffffffffffffffffffffffff16638129fc1c6040518163ffffffff1660e01b8152600401600060405180830381600087803b158015615f3857600080fd5b505af1158015615f4c573d6000803e3d6000fd5b505050508015615f715760008060016101000a81548160ff0219169083151502179055505b50565b60008273ffffffffffffffffffffffffffffffffffffffff166108fc839081150290604051600060405180830381858888f19350505050158015615fbc573d6000803e3d6000fd5b506001905092915050565b606660009054906101000a900473ffffffffffffffffffffffffffffffffffffffff1673ffffffffffffffffffffffffffffffffffffffff1663f340fa0182846040518363ffffffff1660e01b8152600401808273ffffffffffffffffffffffffffffffffffffffff1681526020019150506000604051808303818588803b15801561605257600080fd5b505af1158015616066573d6000803e3d6000fd5b50505050505050565b6040518060e00160405280600073ffffffffffffffffffffffffffffffffffffffff1681526020016000815260200160008152602001600081526020016000815260200160008152602001600080191681525090565b6040518060600160405280600073ffffffffffffffffffffffffffffffffffffffff168152602001600060ff168152602001600081525090565b6101008061613c83390190565b6040518060800160405280600490602082028036833780820191505090505090565b6111e68061623c8339019056fe608060405234801561001057600080fd5b5060e18061001f6000396000f3fe608060405260043610601c5760003560e01c80637d286e48146021575b600080fd5b606060048036036020811015603557600080fd5b81019080803573ffffffffffffffffffffffffffffffffffffffff1690602001909291905050506062565b005b8073ffffffffffffffffffffffffffffffffffffffff166108fc349081150290604051600060405180830381858888f1935050505015801560a7573d6000803e3d6000fd5b505056fea26469706673582212209d4bb92bba59e6e6598ed051bdc3305415b31db6f7c47cdb08e9819d044f643864736f6c634300060c0033608060405234801561001057600080fd5b506111c6806100206000396000f3fe6080604052600436106100705760003560e01c80638da5cb5b1161004e5780638da5cb5b146100f4578063e3a9db1a14610135578063f2fde38b1461019a578063f340fa01146101eb57610070565b806351cff8d914610075578063715018a6146100c65780638129fc1c146100dd575b600080fd5b34801561008157600080fd5b506100c46004803603602081101561009857600080fd5b81019080803573ffffffffffffffffffffffffffffffffffffffff16906020019092919050505061022f565b005b3480156100d257600080fd5b506100db6103e2565b005b3480156100e957600080fd5b506100f2610552565b005b34801561010057600080fd5b50610109610658565b604051808273ffffffffffffffffffffffffffffffffffffffff16815260200191505060405180910390f35b34801561014157600080fd5b506101846004803603602081101561015857600080fd5b81019080803573ffffffffffffffffffffffffffffffffffffffff169060200190929190505050610682565b6040518082815260200191505060405180910390f35b3480156101a657600080fd5b506101e9600480360360208110156101bd57600080fd5b81019080803573ffffffffffffffffffffffffffffffffffffffff1690602001909291905050506106cb565b005b61022d6004803603602081101561020157600080fd5b81019080803573ffffffffffffffffffffffffffffffffffffffff1690602001909291905050506108c0565b005b610237610a5b565b73ffffffffffffffffffffffffffffffffffffffff16610255610658565b73ffffffffffffffffffffffffffffffffffffffff16146102de576040517f08c379a00000000000000000000000000000000000000000000000000000000081526004018080602001828103825260208152602001807f4f776e61626c653a2063616c6c6572206973206e6f7420746865206f776e657281525060200191505060405180910390fd5b6000606560008373ffffffffffffffffffffffffffffffffffffffff1673ffffffffffffffffffffffffffffffffffffffff1681526020019081526020016000205490506000606560008473ffffffffffffffffffffffffffffffffffffffff1673ffffffffffffffffffffffffffffffffffffffff16815260200190815260200160002081905550610390818373ffffffffffffffffffffffffffffffffffffffff16610a6390919063ffffffff16565b8173ffffffffffffffffffffffffffffffffffffffff167f7084f5476618d8e60b11ef0d7d3f06914655adb8793e28ff7f018d4c76d505d5826040518082815260200191505060405180910390a25050565b6103ea610a5b565b73ffffffffffffffffffffffffffffffffffffffff16610408610658565b73ffffffffffffffffffffffffffffffffffffffff1614610491576040517f08c379a00000000000000000000000000000000000000000000000000000000081526004018080602001828103825260208152602001807f4f776e61626c653a2063616c6c6572206973206e6f7420746865206f776e657281525060200191505060405180910390fd5b600073ffffffffffffffffffffffffffffffffffffffff16603360009054906101000a900473ffffffffffffffffffffffffffffffffffffffff1673ffffffffffffffffffffffffffffffffffffffff167f8be0079c531659141344cd1fd0a4f28419497f9722a3daafe3b4186f6b6457e060405160405180910390a36000603360006101000a81548173ffffffffffffffffffffffffffffffffffffffff021916908373ffffffffffffffffffffffffffffffffffffffff160217905550565b600060019054906101000a900460ff16806105715750610570610b9d565b5b80610587575060008054906101000a900460ff16155b6105dc576040517f08c379a000000000000000000000000000000000000000000000000000000000815260040180806020018281038252602e815260200180611163602e913960400191505060405180910390fd5b60008060019054906101000a900460ff16159050801561062c576001600060016101000a81548160ff02191690831515021790555060016000806101000a81548160ff0219169083151502179055505b610634610bae565b80156106555760008060016101000a81548160ff0219169083151502179055505b50565b6000603360009054906101000a900473ffffffffffffffffffffffffffffffffffffffff16905090565b6000606560008373ffffffffffffffffffffffffffffffffffffffff1673ffffffffffffffffffffffffffffffffffffffff168152602001908152602001600020549050919050565b6106d3610a5b565b73ffffffffffffffffffffffffffffffffffffffff166106f1610658565b73ffffffffffffffffffffffffffffffffffffffff161461077a576040517f08c379a00000000000000000000000000000000000000000000000000000000081526004018080602001828103825260208152602001807f4f776e61626c653a2063616c6c6572206973206e6f7420746865206f776e657281525060200191505060405180910390fd5b600073ffffffffffffffffffffffffffffffffffffffff168173ffffffffffffffffffffffffffffffffffffffff161415610800576040517f08c379a00000000000000000000000000000000000000000000000000000000081526004018080602001828103825260268152602001806111036026913960400191505060405180910390fd5b8073ffffffffffffffffffffffffffffffffffffffff16603360009054906101000a900473ffffffffffffffffffffffffffffffffffffffff1673ffffffffffffffffffffffffffffffffffffffff167f8be0079c531659141344cd1fd0a4f28419497f9722a3daafe3b4186f6b6457e060405160405180910390a380603360006101000a81548173ffffffffffffffffffffffffffffffffffffffff021916908373ffffffffffffffffffffffffffffffffffffffff16021790555050565b6108c8610a5b565b73ffffffffffffffffffffffffffffffffffffffff166108e6610658565b73ffffffffffffffffffffffffffffffffffffffff161461096f576040517f08c379a00000000000000000000000000000000000000000000000000000000081526004018080602001828103825260208152602001807f4f776e61626c653a2063616c6c6572206973206e6f7420746865206f776e657281525060200191505060405180910390fd5b60003490506109c681606560008573ffffffffffffffffffffffffffffffffffffffff1673ffffffffffffffffffffffffffffffffffffffff16815260200190815260200160002054610cc490919063ffffffff16565b606560008473ffffffffffffffffffffffffffffffffffffffff1673ffffffffffffffffffffffffffffffffffffffff168152602001908152602001600020819055508173ffffffffffffffffffffffffffffffffffffffff167f2da466a7b24304f47e87fa2e1e5a81b9831ce54fec19055ce277ca2f39ba42c4826040518082815260200191505060405180910390a25050565b600033905090565b80471015610ad9576040517f08c379a000000000000000000000000000000000000000000000000000000000815260040180806020018281038252601d8152602001807f416464726573733a20696e73756666696369656e742062616c616e636500000081525060200191505060405180910390fd5b60008273ffffffffffffffffffffffffffffffffffffffff168260405180600001905060006040518083038185875af1925050503d8060008114610b39576040519150601f19603f3d011682016040523d82523d6000602084013e610b3e565b606091505b5050905080610b98576040517f08c379a000000000000000000000000000000000000000000000000000000000815260040180806020018281038252603a815260200180611129603a913960400191505060405180910390fd5b505050565b6000610ba830610d4c565b15905090565b600060019054906101000a900460ff1680610bcd5750610bcc610b9d565b5b80610be3575060008054906101000a900460ff16155b610c38576040517f08c379a000000000000000000000000000000000000000000000000000000000815260040180806020018281038252602e815260200180611163602e913960400191505060405180910390fd5b60008060019054906101000a900460ff161590508015610c88576001600060016101000a81548160ff02191690831515021790555060016000806101000a81548160ff0219169083151502179055505b610c90610d5f565b610c98610e5d565b610ca0611004565b8015610cc15760008060016101000a81548160ff0219169083151502179055505b50565b600080828401905083811015610d42576040517f08c379a000000000000000000000000000000000000000000000000000000000815260040180806020018281038252601b8152602001807f536166654d6174683a206164646974696f6e206f766572666c6f77000000000081525060200191505060405180910390fd5b8091505092915050565b600080823b905060008111915050919050565b600060019054906101000a900460ff1680610d7e5750610d7d610b9d565b5b80610d94575060008054906101000a900460ff16155b610de9576040517f08c379a000000000000000000000000000000000000000000000000000000000815260040180806020018281038252602e815260200180611163602e913960400191505060405180910390fd5b60008060019054906101000a900460ff161590508015610e39576001600060016101000a81548160ff02191690831515021790555060016000806101000a81548160ff0219169083151502179055505b8015610e5a5760008060016101000a81548160ff0219169083151502179055505b50565b600060019054906101000a900460ff1680610e7c5750610e7b610b9d565b5b80610e92575060008054906101000a900460ff16155b610ee7576040517f08c379a000000000000000000000000000000000000000000000000000000000815260040180806020018281038252602e815260200180611163602e913960400191505060405180910390fd5b60008060019054906101000a900460ff161590508015610f37576001600060016101000a81548160ff02191690831515021790555060016000806101000a81548160ff0219169083151502179055505b6000610f41610a5b565b905080603360006101000a81548173ffffffffffffffffffffffffffffffffffffffff021916908373ffffffffffffffffffffffffffffffffffffffff1602179055508073ffffffffffffffffffffffffffffffffffffffff16600073ffffffffffffffffffffffffffffffffffffffff167f8be0079c531659141344cd1fd0a4f28419497f9722a3daafe3b4186f6b6457e060405160405180910390a35080156110015760008060016101000a81548160ff0219169083151502179055505b50565b600060019054906101000a900460ff16806110235750611022610b9d565b5b80611039575060008054906101000a900460ff16155b61108e576040517f08c379a000000000000000000000000000000000000000000000000000000000815260040180806020018281038252602e815260200180611163602e913960400191505060405180910390fd5b60008060019054906101000a900460ff1615905080156110de576001600060016101000a81548160ff02191690831515021790555060016000806101000a81548160ff0219169083151502179055505b80156110ff5760008060016101000a81548160ff0219169083151502179055505b5056fe4f776e61626c653a206e6577206f776e657220697320746865207a65726f2061646472657373416464726573733a20756e61626c6520746f2073656e642076616c75652c20726563697069656e74206d61792068617665207265766572746564496e697469616c697a61626c653a20636f6e747261637420697320616c726561647920696e697469616c697a6564a2646970667358221220aa14e0debf5e30504e73a4c337c930e63a8e5048b7d863e29c86505f3089d55864736f6c634300060c00337365744945524337323143726561746f72526f79616c74793a3a43616e6e6f742068617665206e756c6c206164647265737320666f72205f6945524337323143726561746f72526f79616c74797061796f75743a3a6e6f207061796565732063616e20626520746865207a65726f20616464726573736269643a3a4d757374206861766520612072756e6e696e672061756374696f6e206f722070656e64696e6720636f6c6469652061756374696f6e726566756e643a3a6e6f207061796565732063616e20626520746865207a65726f206164647265737363616e63656c41756374696f6e3a3a4d757374206861766520612063757272656e742061756374696f6e6372656174655363686564756c656441756374696f6e3a3a43616e6e6f7420736574206d696e696d756d2062696420686967686572207468616e206d61782076616c75654f776e61626c653a206e6577206f776e657220697320746865207a65726f2061646472657373736574746c6541756374696f6e3a3a4d757374206861766520612063757272656e742061756374696f6e20746861742068617320737461727465646269643a3a43616e6e6f7420626964206c6f776572207468616e2072657365727665206f72206d696e696d756d206269646269643a3a43616e6e6f742062696420686967686572207468616e206d61782076616c7565637265617465436f6c64696541756374696f6e3a3a5f726573657276655072696365206d757374206265203e3d20307061796f75743a3a6d61726b6574706c6163652070657263656e746167652063616e6e6f742062652061626f7665203130306269643a3a43616e6e6f7420626964206c6f776572207468616e206d696e2076616c7565637265617465436f6c64696541756374696f6e3a3a43616e6e6f74206861766520612063757272656e742061756374696f6e6269643a3a43616e6e6f7420626964206f6e20796f7572206f776e2061756374696f6e496e697469616c697a61626c653a20636f6e747261637420697320616c726561647920696e697469616c697a65647061796f75743a3a70657263656e74616765732063616e6e6f7420676f206265796f6e64203130307365744d61726b6574706c61636553657474696e67733a3a43616e6e6f742068617665206e756c6c206164647265737320666f72205f694d61726b657453657474696e6773636f6e7374727563746f723a3a43616e6e6f742068617665206e756c6c206164647265737320666f72205f6945524337323143726561746f72526f79616c74796372656174655363686564756c656441756374696f6e3a3a43616e6e6f7420686176652061756374696f6e206c6f6e676572207468616e206d61784c656e677468536166654d6174683a206d756c7469706c69636174696f6e206f766572666c6f776f776e6572206d757374206861766520617070726f76656420636f6e7472616374637265617465436f6c64696541756374696f6e3a3a5f6c656e6774684f6641756374696f6e206d757374206265203e2030636f6e7374727563746f723a3a43616e6e6f742068617665206e756c6c206164647265737320666f72205f694d61726b657453657474696e67737365744d61784c656e6774683a3a5f6d61784c656e677468206d7573742062652067726561746572207468616e20306372656174655363686564756c656441756374696f6e3a3a5f6c656e6774684f6641756374696f6e206d7573742062652067726561746572207468616e20306372656174655363686564756c656441756374696f6e3a3a43616e6e6f74206861766520612063757272656e742061756374696f6e6269643a3a4d757374206269642074686520636f727265637420616d6f756e742e6372656174655363686564756c656441756374696f6e3a3a5f7374617274696e67426c6f636b206d7573742062652067726561746572207468616e20626c6f636b2e6e756d62657263616e63656c41756374696f6e3a3a61756374696f6e2063616e6e6f74206265207374617274656463616e63656c41756374696f6e3a3a6d757374206265207468652063726561746f72206f66207468652061756374696f6e73657441756374696f6e4c656e677468457874656e73696f6e3a3a5f61756374696f6e4c656e677468457874656e73696f6e206d7573742062652067726561746572207468616e20306269643a3a6d7573742062696420686967686572207468616e2070726576696f757320626964202b206d696e696d756d2070657263656e7461676520696e6372656173652e736574746c6541756374696f6e3a3a43616e206f6e6c7920736574746c6520656e6465642061756374696f6e732e637265617465436f6c64696541756374696f6e3a3a43616e6e6f7420736574207265736572766520707269636520686967686572207468616e206d61782076616c7565637265617465436f6c64696541756374696f6e3a3a43616e6e6f7420686176652061756374696f6e206c6f6e676572207468616e206d61784c656e6774686269643a3a43616e6e6f7420626964206f6e2061756374696f6e2069662061756374696f6e2063726561746f72206973206e6f206c6f6e676572206f776e65722ea2646970667358221220eb6c6f1aa4fd97a026c5742fc3ea2a2e75aa689c8fda4238f83330ae0bd4fdb364736f6c634300060c0033",
  "immutableReferences": {},
  "source": "pragma solidity 0.6.12;\n\n\nimport '@openzeppelin/contracts-upgradeable/token/ERC721/IERC721Upgradeable.sol';\nimport '@openzeppelin/contracts-upgradeable/math/SafeMathUpgradeable.sol';\nimport '@openzeppelin/contracts-upgradeable/access/OwnableUpgradeable.sol';\nimport '@openzeppelin/contracts-upgradeable/proxy/Initializable.sol';\n\nimport \"./IERC721CreatorRoyalty.sol\";\nimport \"./IMarketplaceSettings.sol\";\nimport \"./Payments.sol\";\n\ncontract ChimeraAuctionHouse is Initializable, OwnableUpgradeable, Payments {\n    using SafeMathUpgradeable for uint256;\n\n    /////////////////////////////////////////////////////////////////////////\n    // Constants\n    /////////////////////////////////////////////////////////////////////////\n\n    // Types of Auctions\n    bytes32 public constant COLDIE_AUCTION = \"COLDIE_AUCTION\";\n    bytes32 public constant SCHEDULED_AUCTION = \"SCHEDULED_AUCTION\";\n    bytes32 public constant NO_AUCTION = bytes32(0);\n\n    /////////////////////////////////////////////////////////////////////////\n    // Structs\n    /////////////////////////////////////////////////////////////////////////\n    // A reserve auction.\n    struct Auction {\n        address payable auctionCreator;\n        uint256 creationBlock;\n        uint256 lengthOfAuction;\n        uint256 startingBlock;\n        uint256 reservePrice;\n        uint256 minimumBid;\n        bytes32 auctionType;\n    }\n\n    // The active bid for a given token, contains the bidder, the marketplace fee at the time of the bid, and the amount of wei placed on the token\n    struct ActiveBid {\n        address payable bidder;\n        uint8 marketplaceFee;\n        uint256 amount;\n    }\n\n    /////////////////////////////////////////////////////////////////////////\n    // State Variables\n    /////////////////////////////////////////////////////////////////////////\n\n    // Marketplace Settings Interface\n    IMarketplaceSettings public iMarketSettings;\n\n    // Creator Royalty Interface\n    IERC721CreatorRoyalty public iERC721CreatorRoyalty;\n\n    // Mapping from ERC721 contract to mapping of tokenId to Auctions.\n    mapping(address => mapping(uint256 => Auction)) private auctions;\n\n    // Mapping of ERC721 contract to mapping of token ID to the current bid amount.\n    mapping(address => mapping(uint256 => ActiveBid)) private currentBids;\n\n    // Number of blocks to begin refreshing auction lengths\n    uint256 public auctionLengthExtension;\n\n    // Max Length that an auction can be\n    uint256 public maxLength;\n\n    // A minimum increase in bid amount when out bidding someone.\n    uint8 public minimumBidIncreasePercentage; // 10 = 10%\n    /////////////////////////////////////////////////////////////////////////\n    // Events\n    /////////////////////////////////////////////////////////////////////////\n    event NewColdieAuction(\n        address indexed _contractAddress,\n        uint256 indexed _tokenId,\n        address indexed _auctionCreator,\n        uint256 _reservePrice,\n        uint256 _lengthOfAuction\n    );\n\n    event CancelAuction(\n        address indexed _contractAddress,\n        uint256 indexed _tokenId,\n        address indexed _auctionCreator\n    );\n\n    event NewScheduledAuction(\n        address indexed _contractAddress,\n        uint256 indexed _tokenId,\n        address indexed _auctionCreator,\n        uint256 _startingBlock,\n        uint256 _minimumBid,\n        uint256 _lengthOfAuction\n    );\n\n    event AuctionBid(\n        address indexed _contractAddress,\n        address indexed _bidder,\n        uint256 indexed _tokenId,\n        uint256 _amount,\n        bool _startedAuction,\n        uint256 _newAuctionLength,\n        address _previousBidder\n    );\n\n    event AuctionSettled(\n        address indexed _contractAddress,\n        address indexed _bidder,\n        address _seller,\n        uint256 indexed _tokenId,\n        uint256 _amount\n    );\n\n    /////////////////////////////////////////////////////////////////////////\n    // Constructor\n    /////////////////////////////////////////////////////////////////////////\n    /**\n     * @dev Initializes the contract setting the market settings and creator royalty interfaces.\n     * @param _iMarketSettings address to set as iMarketSettings.\n     * @param _iERC721CreatorRoyalty address to set as iERC721CreatorRoyalty.\n     */\n    // constructor(address _iMarketSettings, address _iERC721CreatorRoyalty)\n    //     public\n    // {\n    //     maxLength = 43200; // ~ 7 days == 7 days * 24 hours * 3600s / 14s per block\n    //     auctionLengthExtension = 65; // ~ 15 min == 15 min * 60s / 14s per block\n\n    //     require(\n    //         _iMarketSettings != address(0),\n    //         \"constructor::Cannot have null address for _iMarketSettings\"\n    //     );\n\n    //     require(\n    //         _iERC721CreatorRoyalty != address(0),\n    //         \"constructor::Cannot have null address for _iERC721CreatorRoyalty\"\n    //     );\n\n    //     // Set iMarketSettings\n    //     iMarketSettings = IMarketplaceSettings(_iMarketSettings);\n\n    //     // Set iERC721CreatorRoyalty\n    //     iERC721CreatorRoyalty = IERC721CreatorRoyalty(_iERC721CreatorRoyalty);\n\n    //     minimumBidIncreasePercentage = 10;\n    // }\n    \n    //function initialize(uint256 _x) public initializer\n    \n    /////////////////////////////////////////////////////////////////////////\n    // initializer\n    /////////////////////////////////////////////////////////////////////////\n    /**\n     * @dev Initializes the contract setting the market settings and creator royalty interfaces.\n     * @param _iMarketSettings address to set as iMarketSettings.\n     * @param _iERC721CreatorRoyalty address to set as iERC721CreatorRoyalty.\n     */\n     function initialize(address _iMarketSettings, address _iERC721CreatorRoyalty) public initializer\n    {\n        maxLength = 43200; // ~ 7 days == 7 days * 24 hours * 3600s / 14s per block\n        auctionLengthExtension = 65; // ~ 15 min == 15 min * 60s / 14s per block\n\n        require(\n            _iMarketSettings != address(0),\n            \"constructor::Cannot have null address for _iMarketSettings\"\n        );\n\n        require(\n            _iERC721CreatorRoyalty != address(0),\n            \"constructor::Cannot have null address for _iERC721CreatorRoyalty\"\n        );\n         __Ownable_init();\n       \n        // Set iMarketSettings\n        iMarketSettings = IMarketplaceSettings(_iMarketSettings);\n\n        // Set iERC721CreatorRoyalty\n        iERC721CreatorRoyalty = IERC721CreatorRoyalty(_iERC721CreatorRoyalty);\n\n        minimumBidIncreasePercentage = 10;\n    }\n\n    /////////////////////////////////////////////////////////////////////////\n    // setIMarketplaceSettings\n    /////////////////////////////////////////////////////////////////////////\n    /**\n     * @dev Admin function to set the marketplace settings.\n     * Rules:\n     * - only owner\n     * - _address != address(0)\n     * @param _address address of the IMarketplaceSettings.\n     */\n    function setMarketplaceSettings(address _address) public onlyOwner {\n        require(\n            _address != address(0),\n            \"setMarketplaceSettings::Cannot have null address for _iMarketSettings\"\n        );\n\n        iMarketSettings = IMarketplaceSettings(_address);\n    }\n\n    /////////////////////////////////////////////////////////////////////////\n    // setIERC721CreatorRoyalty\n    /////////////////////////////////////////////////////////////////////////\n    /**\n     * @dev Admin function to set the IERC721CreatorRoyalty.\n     * Rules:\n     * - only owner\n     * - _address != address(0)\n     * @param _address address of the IERC721CreatorRoyalty.\n     */\n    function setIERC721CreatorRoyalty(address _address) public onlyOwner {\n        require(\n            _address != address(0),\n            \"setIERC721CreatorRoyalty::Cannot have null address for _iERC721CreatorRoyalty\"\n        );\n\n        iERC721CreatorRoyalty = IERC721CreatorRoyalty(_address);\n    }\n\n    /////////////////////////////////////////////////////////////////////////\n    // setMaxLength\n    /////////////////////////////////////////////////////////////////////////\n    /**\n     * @dev Admin function to set the maxLength of an auction.\n     * Rules:\n     * - only owner\n     * - _maxLangth > 0\n     * @param _maxLength uint256 max length of an auction.\n     */\n    function setMaxLength(uint256 _maxLength) public onlyOwner {\n        require(\n            _maxLength > 0,\n            \"setMaxLength::_maxLength must be greater than 0\"\n        );\n\n        maxLength = _maxLength;\n    }\n\n    /////////////////////////////////////////////////////////////////////////\n    // setMinimumBidIncreasePercentage\n    /////////////////////////////////////////////////////////////////////////\n    /**\n     * @dev Admin function to set the minimum bid increase percentage.\n     * Rules:\n     * - only owner\n     * @param _percentage uint8 to set as the new percentage.\n     */\n    function setMinimumBidIncreasePercentage(uint8 _percentage)\n        public\n        onlyOwner\n    {\n        minimumBidIncreasePercentage = _percentage;\n    }\n\n    /////////////////////////////////////////////////////////////////////////\n    // setAuctionLengthExtension\n    /////////////////////////////////////////////////////////////////////////\n    /**\n     * @dev Admin function to set the auctionLengthExtension of an auction.\n     * Rules:\n     * - only owner\n     * - _auctionLengthExtension > 0\n     * @param _auctionLengthExtension uint256 max length of an auction.\n     */\n    function setAuctionLengthExtension(uint256 _auctionLengthExtension)\n        public\n        onlyOwner\n    {\n        require(\n            _auctionLengthExtension > 0,\n            \"setAuctionLengthExtension::_auctionLengthExtension must be greater than 0\"\n        );\n\n        auctionLengthExtension = _auctionLengthExtension;\n    }\n\n    /////////////////////////////////////////////////////////////////////////\n    // createColdieAuction\n    /////////////////////////////////////////////////////////////////////////\n    /**\n     * @dev create a reserve auction token contract address, token id, price\n     * Rules:\n     * - Cannot create an auction if contract isn't approved by owner\n     * - lengthOfAuction (in blocks) > 0\n     * - lengthOfAuction (in blocks) <= maxLength\n     * - Reserve price must be >= 0\n     * - Must be owner of the token\n     * - Cannot have a current auction going\n     * @param _contractAddress address of ERC721 contract.\n     * @param _tokenId uint256 id of the token.\n     * @param _reservePrice uint256 Wei value of the reserve price.\n     * @param _lengthOfAuction uint256 length of auction in blocks.\n     */\n    function createColdieAuction(\n        address _contractAddress,\n        uint256 _tokenId,\n        uint256 _reservePrice,\n        uint256 _lengthOfAuction\n    ) public {\n        // Rules\n        _requireOwnerApproval(_contractAddress, _tokenId);\n        _requireOwnerAsSender(_contractAddress, _tokenId);\n        require(\n            _lengthOfAuction <= maxLength,\n            \"createColdieAuction::Cannot have auction longer than maxLength\"\n        );\n        require(\n            auctions[_contractAddress][_tokenId].auctionType == NO_AUCTION ||\n                (msg.sender !=\n                    auctions[_contractAddress][_tokenId].auctionCreator),\n            \"createColdieAuction::Cannot have a current auction\"\n        );\n        require(\n            _lengthOfAuction > 0,\n            \"createColdieAuction::_lengthOfAuction must be > 0\"\n        );\n        require(\n            _reservePrice >= 0,\n            \"createColdieAuction::_reservePrice must be >= 0\"\n        );\n        require(\n            _reservePrice <= iMarketSettings.getMarketplaceMaxValue(),\n            \"createColdieAuction::Cannot set reserve price higher than max value\"\n        );\n\n        // Create the auction\n        auctions[_contractAddress][_tokenId] = Auction(\n            msg.sender,\n            block.number,\n            _lengthOfAuction,\n            0,\n            _reservePrice,\n            0,\n            COLDIE_AUCTION\n        );\n\n        emit NewColdieAuction(\n            _contractAddress,\n            _tokenId,\n            msg.sender,\n            _reservePrice,\n            _lengthOfAuction\n        );\n    }\n\n    /////////////////////////////////////////////////////////////////////////\n    // cancelAuction\n    /////////////////////////////////////////////////////////////////////////\n    /**\n     * @dev cancel an auction\n     * Rules:\n     * - Must have an auction for the token\n     * - Auction cannot have started\n     * - Must be the creator of the auction\n     * - Must return token to owner if escrowed\n     * @param _contractAddress address of ERC721 contract.\n     * @param _tokenId uint256 id of the token.\n     */\n    function cancelAuction(address _contractAddress, uint256 _tokenId)\n        external\n    {\n        require(\n            auctions[_contractAddress][_tokenId].auctionType != NO_AUCTION,\n            \"cancelAuction::Must have a current auction\"\n        );\n        require(\n            auctions[_contractAddress][_tokenId].startingBlock == 0 ||\n                auctions[_contractAddress][_tokenId].startingBlock >\n                block.number,\n            \"cancelAuction::auction cannot be started\"\n        );\n        require(\n            auctions[_contractAddress][_tokenId].auctionCreator == msg.sender,\n            \"cancelAuction::must be the creator of the auction\"\n        );\n\n        Auction memory auction = auctions[_contractAddress][_tokenId];\n\n        auctions[_contractAddress][_tokenId] = Auction(\n            address(0),\n            0,\n            0,\n            0,\n            0,\n            0,\n            NO_AUCTION\n        );\n\n        // Return the token if this contract escrowed it\n        IERC721Upgradeable erc721 = IERC721Upgradeable(_contractAddress);\n        if (erc721.ownerOf(_tokenId) == address(this)) {\n            erc721.transferFrom(address(this), msg.sender, _tokenId);\n        }\n\n        emit CancelAuction(_contractAddress, _tokenId, auction.auctionCreator);\n    }\n\n    /////////////////////////////////////////////////////////////////////////\n    // createScheduledAuction\n    /////////////////////////////////////////////////////////////////////////\n    /**\n     * @dev create a scheduled auction token contract address, token id\n     * Rules:\n     * - lengthOfAuction (in blocks) > 0\n     * - startingBlock > currentBlock\n     * - Cannot create an auction if contract isn't approved by owner\n     * - Minimum bid must be >= 0\n     * - Must be owner of the token\n     * - Cannot have a current auction going for this token\n     * @param _contractAddress address of ERC721 contract.\n     * @param _tokenId uint256 id of the token.\n     * @param _minimumBid uint256 Wei value of the reserve price.\n     * @param _lengthOfAuction uint256 length of auction in blocks.\n     * @param _startingBlock uint256 block number to start the auction on.\n     */\n    function createScheduledAuction(\n        address _contractAddress,\n        uint256 _tokenId,\n        uint256 _minimumBid,\n        uint256 _lengthOfAuction,\n        uint256 _startingBlock\n    ) external {\n        require(\n            _lengthOfAuction > 0,\n            \"createScheduledAuction::_lengthOfAuction must be greater than 0\"\n        );\n        require(\n            _lengthOfAuction <= maxLength,\n            \"createScheduledAuction::Cannot have auction longer than maxLength\"\n        );\n        require(\n            _startingBlock > block.number,\n            \"createScheduledAuction::_startingBlock must be greater than block.number\"\n        );\n        require(\n            _minimumBid <= iMarketSettings.getMarketplaceMaxValue(),\n            \"createScheduledAuction::Cannot set minimum bid higher than max value\"\n        );\n        _requireOwnerApproval(_contractAddress, _tokenId);\n        _requireOwnerAsSender(_contractAddress, _tokenId);\n        require(\n            auctions[_contractAddress][_tokenId].auctionType == NO_AUCTION ||\n                (msg.sender !=\n                    auctions[_contractAddress][_tokenId].auctionCreator),\n            \"createScheduledAuction::Cannot have a current auction\"\n        );\n\n        // Create the scheduled auction.\n        auctions[_contractAddress][_tokenId] = Auction(\n            msg.sender,\n            block.number,\n            _lengthOfAuction,\n            _startingBlock,\n            0,\n            _minimumBid,\n            SCHEDULED_AUCTION\n        );\n\n        // Transfer the token to this contract to act as escrow.\n        IERC721Upgradeable erc721 = IERC721Upgradeable(_contractAddress);\n        erc721.transferFrom(msg.sender, address(this), _tokenId);\n\n        emit NewScheduledAuction(\n            _contractAddress,\n            _tokenId,\n            msg.sender,\n            _startingBlock,\n            _minimumBid,\n            _lengthOfAuction\n        );\n    }\n\n    /////////////////////////////////////////////////////////////////////////\n    // bid\n    /////////////////////////////////////////////////////////////////////////\n    /**\n     * @dev Bid on artwork with an auction.\n     * Rules:\n     * - if auction creator is still owner, owner must have contract approved\n     * - There must be a running auction or a reserve price auction for the token\n     * - bid > 0\n     * - if startingBlock - block.number < auctionLengthExtension\n     * -    then auctionLength = Starting block - (currentBlock + extension)\n     * - Auction creator != bidder\n     * - bid >= minimum bid\n     * - bid >= reserve price\n     * - block.number < startingBlock + lengthOfAuction\n     * - bid > current bid\n     * - if previous bid then returned\n     * @param _contractAddress address of ERC721 contract.\n     * @param _tokenId uint256 id of the token.\n     * @param _amount uint256 Wei value of the bid.\n     */\n    function bid(\n        address _contractAddress,\n        uint256 _tokenId,\n        uint256 _amount\n    ) external payable {\n        Auction memory auction = auctions[_contractAddress][_tokenId];\n\n        // Must have existing auction.\n        require(\n            auction.auctionType != NO_AUCTION,\n            \"bid::Must have existing auction\"\n        );\n\n        // Must have existing auction.\n        require(\n            auction.auctionCreator != msg.sender,\n            \"bid::Cannot bid on your own auction\"\n        );\n\n        // Must have pending coldie auction or running auction.\n        require(\n            auction.startingBlock <= block.number,\n            \"bid::Must have a running auction or pending coldie auction\"\n        );\n\n        // Check that bid is greater than 0.\n        require(_amount > 0, \"bid::Cannot bid 0 Wei.\");\n\n        // Check that bid is less than max value.\n        require(\n            _amount <= iMarketSettings.getMarketplaceMaxValue(),\n            \"bid::Cannot bid higher than max value\"\n        );\n\n        // Check that bid is larger than min value.\n        require(\n            _amount >= iMarketSettings.getMarketplaceMinValue(),\n            \"bid::Cannot bid lower than min value\"\n        );\n\n        // Check that bid is larger than minimum bid value or the reserve price.\n        require(\n            (_amount >= auction.reservePrice && auction.minimumBid == 0) ||\n                (_amount >= auction.minimumBid && auction.reservePrice == 0),\n            \"bid::Cannot bid lower than reserve or minimum bid\"\n        );\n\n        // Auction cannot have ended.\n        require(\n            auction.startingBlock == 0 ||\n                block.number <\n                auction.startingBlock.add(auction.lengthOfAuction),\n            \"bid::Cannot have ended\"\n        );\n\n        // Check that enough ether was sent.\n        uint256 requiredCost =\n            _amount.add(iMarketSettings.calculateMarketplaceFee(_amount));\n        require(requiredCost == msg.value, \"bid::Must bid the correct amount.\");\n\n        // If owner of token is auction creator make sure they have contract approved\n        IERC721Upgradeable erc721 = IERC721Upgradeable(_contractAddress);\n        address owner = erc721.ownerOf(_tokenId);\n\n        // Check that token is owned by creator or by this contract\n        require(\n            auction.auctionCreator == owner || owner == address(this),\n            \"bid::Cannot bid on auction if auction creator is no longer owner.\"\n        );\n\n        if (auction.auctionCreator == owner) {\n            _requireOwnerApproval(_contractAddress, _tokenId);\n        }\n\n        ActiveBid memory currentBid = currentBids[_contractAddress][_tokenId];\n\n        // Must bid higher than current bid.\n        require(\n            _amount > currentBid.amount &&\n                _amount >=\n                currentBid.amount.add(\n                    currentBid.amount.mul(minimumBidIncreasePercentage).div(100)\n                ),\n            \"bid::must bid higher than previous bid + minimum percentage increase.\"\n        );\n\n        // Return previous bid\n        // We do this here because it clears the bid for the refund. This makes it safe from reentrence.\n        if (currentBid.amount != 0) {\n            _refundBid(_contractAddress, _tokenId);\n        }\n\n        // Set the new bid\n        currentBids[_contractAddress][_tokenId] = ActiveBid(\n            msg.sender,\n            iMarketSettings.getMarketplaceFeePercentage(),\n            _amount\n        );\n\n        // If is a pending coldie auction, start the auction\n        if (auction.startingBlock == 0) {\n            auctions[_contractAddress][_tokenId].startingBlock = block.number;\n            erc721.transferFrom(\n                auction.auctionCreator,\n                address(this),\n                _tokenId\n            );\n            emit AuctionBid(\n                _contractAddress,\n                msg.sender,\n                _tokenId,\n                _amount,\n                true,\n                0,\n                currentBid.bidder\n            );\n        }\n        // If the time left for the auction is less than the extension limit bump the length of the auction.\n        else if (\n            (auction.startingBlock.add(auction.lengthOfAuction)).sub(\n                block.number\n            ) < auctionLengthExtension\n        ) {\n            auctions[_contractAddress][_tokenId].lengthOfAuction = (\n                block.number.add(auctionLengthExtension)\n            )\n                .sub(auction.startingBlock);\n            emit AuctionBid(\n                _contractAddress,\n                msg.sender,\n                _tokenId,\n                _amount,\n                false,\n                auctions[_contractAddress][_tokenId].lengthOfAuction,\n                currentBid.bidder\n            );\n        }\n        // Otherwise, it's a normal bid\n        else {\n            emit AuctionBid(\n                _contractAddress,\n                msg.sender,\n                _tokenId,\n                _amount,\n                false,\n                0,\n                currentBid.bidder\n            );\n        }\n    }\n\n    /////////////////////////////////////////////////////////////////////////\n    // settleAuction\n    /////////////////////////////////////////////////////////////////////////\n    /**\n     * @dev Settles the auction, transferring the auctioned token to the bidder and the bid to auction creator.\n     * Rules:\n     * - There must be an unsettled auction for the token\n     * - current bidder becomes new owner\n     * - auction creator gets paid\n     * - there is no longer an auction for the token\n     * @param _contractAddress address of ERC721 contract.\n     * @param _tokenId uint256 id of the token.\n     */\n    function settleAuction(address _contractAddress, uint256 _tokenId)\n        external\n    {\n        Auction memory auction = auctions[_contractAddress][_tokenId];\n\n        require(\n            auction.auctionType != NO_AUCTION && auction.startingBlock != 0,\n            \"settleAuction::Must have a current auction that has started\"\n        );\n        require(\n            block.number >= auction.startingBlock.add(auction.lengthOfAuction),\n            \"settleAuction::Can only settle ended auctions.\"\n        );\n\n        ActiveBid memory currentBid = currentBids[_contractAddress][_tokenId];\n\n        currentBids[_contractAddress][_tokenId] = ActiveBid(address(0), 0, 0);\n        auctions[_contractAddress][_tokenId] = Auction(\n            address(0),\n            0,\n            0,\n            0,\n            0,\n            0,\n            NO_AUCTION\n        );\n        IERC721Upgradeable erc721 = IERC721Upgradeable(_contractAddress);\n\n        // If there were no bids then end the auction and return the token to its original owner.\n        if (currentBid.bidder == address(0)) {\n            // Transfer the token to back to original owner.\n            erc721.transferFrom(\n                address(this),\n                auction.auctionCreator,\n                _tokenId\n            );\n            emit AuctionSettled(\n                _contractAddress,\n                address(0),\n                auction.auctionCreator,\n                _tokenId,\n                0\n            );\n            return;\n        }\n\n        // Transfer the token to the winner of the auction.\n        erc721.transferFrom(address(this), currentBid.bidder, _tokenId);\n\n        address payable owner = _makePayable(owner());\n        Payments.payoutPrimary(\n            currentBid.amount,\n            !iMarketSettings.hasERC721TokenSold(_contractAddress, _tokenId),\n            currentBid.marketplaceFee,\n            iERC721CreatorRoyalty.getERC721TokenRoyaltyPercentage(\n                _contractAddress,\n                _tokenId\n            ),\n            iMarketSettings.getERC721ContractPrimarySaleFeePercentage(\n                _contractAddress\n            ),\n            auction.auctionCreator,\n            owner,\n            iERC721CreatorRoyalty.tokenCreator(_contractAddress, _tokenId),\n            owner\n        );\n        iMarketSettings.markERC721Token(_contractAddress, _tokenId, true);\n        emit AuctionSettled(\n            _contractAddress,\n            currentBid.bidder,\n            auction.auctionCreator,\n            _tokenId,\n            currentBid.amount\n        );\n    }\n\n    /////////////////////////////////////////////////////////////////////////\n    // getAuctionDetails\n    /////////////////////////////////////////////////////////////////////////\n    /**\n     * @dev Get current auction details for a token\n     * Rules:\n     * - Return empty when there's no auction\n     * @param _contractAddress address of ERC721 contract.\n     * @param _tokenId uint256 id of the token.\n     */\n    function getAuctionDetails(address _contractAddress, uint256 _tokenId)\n        external\n        view\n        returns (\n            bytes32,\n            uint256,\n            address,\n            uint256,\n            uint256,\n            uint256,\n            uint256\n        )\n    {\n        Auction memory auction = auctions[_contractAddress][_tokenId];\n\n        return (\n            auction.auctionType,\n            auction.creationBlock,\n            auction.auctionCreator,\n            auction.lengthOfAuction,\n            auction.startingBlock,\n            auction.minimumBid,\n            auction.reservePrice\n        );\n    }\n\n    /////////////////////////////////////////////////////////////////////////\n    // getCurrentBid\n    /////////////////////////////////////////////////////////////////////////\n    /**\n     * @dev Get the current bid\n     * Rules:\n     * - Return empty when there's no bid\n     * @param _contractAddress address of ERC721 contract.\n     * @param _tokenId uint256 id of the token.\n     */\n    function getCurrentBid(address _contractAddress, uint256 _tokenId)\n        external\n        view\n        returns (address, uint256)\n    {\n        return (\n            currentBids[_contractAddress][_tokenId].bidder,\n            currentBids[_contractAddress][_tokenId].amount\n        );\n    }\n\n    /////////////////////////////////////////////////////////////////////////\n    // _requireOwnerApproval\n    /////////////////////////////////////////////////////////////////////////\n    /**\n     * @dev Require that the owner have the ChimeraAuctionHouse approved.\n     * @param _contractAddress address of ERC721 contract.\n     * @param _tokenId uint256 id of the token.\n     */\n    function _requireOwnerApproval(address _contractAddress, uint256 _tokenId)\n        internal\n        view\n    {\n        IERC721Upgradeable erc721 = IERC721Upgradeable(_contractAddress);\n        address owner = erc721.ownerOf(_tokenId);\n        require(\n            erc721.isApprovedForAll(owner, address(this)),\n            \"owner must have approved contract\"\n        );\n    }\n\n    /////////////////////////////////////////////////////////////////////////\n    // _requireOwnerAsSender\n    /////////////////////////////////////////////////////////////////////////\n    /**\n     * @dev Require that the owner be the sender.\n     * @param _contractAddress address of ERC721 contract.\n     * @param _tokenId uint256 id of the token.\n     */\n    function _requireOwnerAsSender(address _contractAddress, uint256 _tokenId)\n        internal\n        view\n    {\n        IERC721Upgradeable erc721 = IERC721Upgradeable(_contractAddress);\n        address owner = erc721.ownerOf(_tokenId);\n        require(owner == msg.sender, \"owner must be message sender\");\n    }\n\n    /////////////////////////////////////////////////////////////////////////\n    // _refundBid\n    /////////////////////////////////////////////////////////////////////////\n    /**\n     * @dev Internal function to return an existing bid on a token to the\n     *      bidder and reset bid.\n     * @param _contractAddress address of ERC721 contract.\n     * @param _tokenId uin256 id of the token.\n     */\n    function _refundBid(address _contractAddress, uint256 _tokenId) internal {\n        ActiveBid memory currentBid = currentBids[_contractAddress][_tokenId];\n        if (currentBid.bidder == address(0)) {\n            return;\n        }\n\n        currentBids[_contractAddress][_tokenId] = ActiveBid(address(0), 0, 0);\n\n        // refund the bidder\n        Payments.refund(\n            currentBid.marketplaceFee,\n            currentBid.bidder,\n            currentBid.amount\n        );\n    }\n\n    /////////////////////////////////////////////////////////////////////////\n    // _makePayable\n    /////////////////////////////////////////////////////////////////////////\n    /**\n     * @dev Internal function to set a bid.\n     * @param _address non-payable address\n     * @return payable address\n     */\n    function _makePayable(address _address)\n        internal\n        pure\n        returns (address payable)\n    {\n        return address(uint160(_address));\n    }\n}\n",
  "sourcePath": "/home/aliwisam/AliWisamData/OptimusFox/chimera/repo/TruffleChimera/contracts/ChimeraAuctionHouse.sol",
  "compiler": {
    "name": "solc",
    "version": "0.6.12+commit.27d51765.Emscripten.clang"
  },
  "schemaVersion": "3.4.0",
  "updatedAt": "2021-05-26T10:30:52.417Z",
  "devdoc": {
    "kind": "dev",
    "methods": {
      "bid(address,uint256,uint256)": {
        "details": "Bid on artwork with an auction. Rules: - if auction creator is still owner, owner must have contract approved - There must be a running auction or a reserve price auction for the token - bid > 0 - if startingBlock - block.number < auctionLengthExtension -    then auctionLength = Starting block - (currentBlock + extension) - Auction creator != bidder - bid >= minimum bid - bid >= reserve price - block.number < startingBlock + lengthOfAuction - bid > current bid - if previous bid then returned",
        "params": {
          "_amount": "uint256 Wei value of the bid.",
          "_contractAddress": "address of ERC721 contract.",
          "_tokenId": "uint256 id of the token."
        }
      },
      "cancelAuction(address,uint256)": {
        "details": "cancel an auction Rules: - Must have an auction for the token - Auction cannot have started - Must be the creator of the auction - Must return token to owner if escrowed",
        "params": {
          "_contractAddress": "address of ERC721 contract.",
          "_tokenId": "uint256 id of the token."
        }
      },
      "createColdieAuction(address,uint256,uint256,uint256)": {
        "details": "create a reserve auction token contract address, token id, price Rules: - Cannot create an auction if contract isn't approved by owner - lengthOfAuction (in blocks) > 0 - lengthOfAuction (in blocks) <= maxLength - Reserve price must be >= 0 - Must be owner of the token - Cannot have a current auction going",
        "params": {
          "_contractAddress": "address of ERC721 contract.",
          "_lengthOfAuction": "uint256 length of auction in blocks.",
          "_reservePrice": "uint256 Wei value of the reserve price.",
          "_tokenId": "uint256 id of the token."
        }
      },
      "createScheduledAuction(address,uint256,uint256,uint256,uint256)": {
        "details": "create a scheduled auction token contract address, token id Rules: - lengthOfAuction (in blocks) > 0 - startingBlock > currentBlock - Cannot create an auction if contract isn't approved by owner - Minimum bid must be >= 0 - Must be owner of the token - Cannot have a current auction going for this token",
        "params": {
          "_contractAddress": "address of ERC721 contract.",
          "_lengthOfAuction": "uint256 length of auction in blocks.",
          "_minimumBid": "uint256 Wei value of the reserve price.",
          "_startingBlock": "uint256 block number to start the auction on.",
          "_tokenId": "uint256 id of the token."
        }
      },
      "getAuctionDetails(address,uint256)": {
        "details": "Get current auction details for a token Rules: - Return empty when there's no auction",
        "params": {
          "_contractAddress": "address of ERC721 contract.",
          "_tokenId": "uint256 id of the token."
        }
      },
      "getCurrentBid(address,uint256)": {
        "details": "Get the current bid Rules: - Return empty when there's no bid",
        "params": {
          "_contractAddress": "address of ERC721 contract.",
          "_tokenId": "uint256 id of the token."
        }
      },
      "initialize(address,address)": {
        "details": "Initializes the contract setting the market settings and creator royalty interfaces.",
        "params": {
          "_iERC721CreatorRoyalty": "address to set as iERC721CreatorRoyalty.",
          "_iMarketSettings": "address to set as iMarketSettings."
        }
      },
      "owner()": {
        "details": "Returns the address of the current owner."
      },
      "payments(address)": {
        "details": "Returns the payments owed to an address.",
        "params": {
          "dest": "The creditor's address."
        }
      },
      "renounceOwnership()": {
        "details": "Leaves the contract without owner. It will not be possible to call `onlyOwner` functions anymore. Can only be called by the current owner. NOTE: Renouncing ownership will leave the contract without an owner, thereby removing any functionality that is only available to the owner."
      },
      "setAuctionLengthExtension(uint256)": {
        "details": "Admin function to set the auctionLengthExtension of an auction. Rules: - only owner - _auctionLengthExtension > 0",
        "params": {
          "_auctionLengthExtension": "uint256 max length of an auction."
        }
      },
      "setIERC721CreatorRoyalty(address)": {
        "details": "Admin function to set the IERC721CreatorRoyalty. Rules: - only owner - _address != address(0)",
        "params": {
          "_address": "address of the IERC721CreatorRoyalty."
        }
      },
      "setMarketplaceSettings(address)": {
        "details": "Admin function to set the marketplace settings. Rules: - only owner - _address != address(0)",
        "params": {
          "_address": "address of the IMarketplaceSettings."
        }
      },
      "setMaxLength(uint256)": {
        "details": "Admin function to set the maxLength of an auction. Rules: - only owner - _maxLangth > 0",
        "params": {
          "_maxLength": "uint256 max length of an auction."
        }
      },
      "setMinimumBidIncreasePercentage(uint8)": {
        "details": "Admin function to set the minimum bid increase percentage. Rules: - only owner",
        "params": {
          "_percentage": "uint8 to set as the new percentage."
        }
      },
      "settleAuction(address,uint256)": {
        "details": "Settles the auction, transferring the auctioned token to the bidder and the bid to auction creator. Rules: - There must be an unsettled auction for the token - current bidder becomes new owner - auction creator gets paid - there is no longer an auction for the token",
        "params": {
          "_contractAddress": "address of ERC721 contract.",
          "_tokenId": "uint256 id of the token."
        }
      },
      "transferOwnership(address)": {
        "details": "Transfers ownership of the contract to a new account (`newOwner`). Can only be called by the current owner."
      },
      "withdrawPayments(address)": {
        "details": "Withdraw accumulated payments, forwarding all gas to the recipient. Note that _any_ account can call this function, not just the `payee`. This means that contracts unaware of the `PullPayment` protocol can still receive funds this way, by having a separate account call {withdrawPayments}. WARNING: Forwarding all gas opens the door to reentrancy vulnerabilities. Make sure you trust the recipient, or are either following the checks-effects-interactions pattern or using {ReentrancyGuard}.",
        "params": {
          "payee": "Whose payments will be withdrawn."
        }
      }
    },
    "version": 1
  },
  "userdoc": {
    "kind": "user",
    "methods": {},
    "version": 1
  }
}