{
  "contractName": "ChimeraMarketAuctionV2",
  "abi": [
    {
      "anonymous": false,
      "inputs": [
        {
          "indexed": true,
          "internalType": "address",
          "name": "_originContract",
          "type": "address"
        },
        {
          "indexed": true,
          "internalType": "address",
          "name": "_bidder",
          "type": "address"
        },
        {
          "indexed": true,
          "internalType": "address",
          "name": "_seller",
          "type": "address"
        },
        {
          "indexed": false,
          "internalType": "uint256",
          "name": "_amount",
          "type": "uint256"
        },
        {
          "indexed": false,
          "internalType": "uint256",
          "name": "_tokenId",
          "type": "uint256"
        }
      ],
      "name": "AcceptBid",
      "type": "event"
    },
    {
      "anonymous": false,
      "inputs": [
        {
          "indexed": true,
          "internalType": "address",
          "name": "_originContract",
          "type": "address"
        },
        {
          "indexed": true,
          "internalType": "address",
          "name": "_bidder",
          "type": "address"
        },
        {
          "indexed": false,
          "internalType": "uint256",
          "name": "_amount",
          "type": "uint256"
        },
        {
          "indexed": false,
          "internalType": "uint256",
          "name": "_tokenId",
          "type": "uint256"
        }
      ],
      "name": "Bid",
      "type": "event"
    },
    {
      "anonymous": false,
      "inputs": [
        {
          "indexed": true,
          "internalType": "address",
          "name": "_originContract",
          "type": "address"
        },
        {
          "indexed": true,
          "internalType": "address",
          "name": "_bidder",
          "type": "address"
        },
        {
          "indexed": false,
          "internalType": "uint256",
          "name": "_amount",
          "type": "uint256"
        },
        {
          "indexed": false,
          "internalType": "uint256",
          "name": "_tokenId",
          "type": "uint256"
        }
      ],
      "name": "CancelBid",
      "type": "event"
    },
    {
      "anonymous": false,
      "inputs": [
        {
          "indexed": true,
          "internalType": "address",
          "name": "previousOwner",
          "type": "address"
        },
        {
          "indexed": true,
          "internalType": "address",
          "name": "newOwner",
          "type": "address"
        }
      ],
      "name": "OwnershipTransferred",
      "type": "event"
    },
    {
      "anonymous": false,
      "inputs": [
        {
          "indexed": true,
          "internalType": "address",
          "name": "_primarySalePayee",
          "type": "address"
        },
        {
          "indexed": false,
          "internalType": "uint256",
          "name": "primarySalePayment",
          "type": "uint256"
        }
      ],
      "name": "PrimarySalePayment",
      "type": "event"
    },
    {
      "anonymous": false,
      "inputs": [
        {
          "indexed": true,
          "internalType": "address",
          "name": "_marketplacePayee",
          "type": "address"
        },
        {
          "indexed": true,
          "internalType": "uint256",
          "name": "_marketplacePayment",
          "type": "uint256"
        }
      ],
      "name": "PrimarymarketplacePayment",
      "type": "event"
    },
    {
      "anonymous": false,
      "inputs": [
        {
          "indexed": true,
          "internalType": "address",
          "name": "_payee",
          "type": "address"
        },
        {
          "indexed": false,
          "internalType": "uint256",
          "name": "payeePayment",
          "type": "uint256"
        }
      ],
      "name": "PrimarypayeePayment",
      "type": "event"
    },
    {
      "anonymous": false,
      "inputs": [
        {
          "indexed": true,
          "internalType": "bytes32",
          "name": "role",
          "type": "bytes32"
        },
        {
          "indexed": true,
          "internalType": "bytes32",
          "name": "previousAdminRole",
          "type": "bytes32"
        },
        {
          "indexed": true,
          "internalType": "bytes32",
          "name": "newAdminRole",
          "type": "bytes32"
        }
      ],
      "name": "RoleAdminChanged",
      "type": "event"
    },
    {
      "anonymous": false,
      "inputs": [
        {
          "indexed": true,
          "internalType": "bytes32",
          "name": "role",
          "type": "bytes32"
        },
        {
          "indexed": true,
          "internalType": "address",
          "name": "account",
          "type": "address"
        },
        {
          "indexed": true,
          "internalType": "address",
          "name": "sender",
          "type": "address"
        }
      ],
      "name": "RoleGranted",
      "type": "event"
    },
    {
      "anonymous": false,
      "inputs": [
        {
          "indexed": true,
          "internalType": "bytes32",
          "name": "role",
          "type": "bytes32"
        },
        {
          "indexed": true,
          "internalType": "address",
          "name": "account",
          "type": "address"
        },
        {
          "indexed": true,
          "internalType": "address",
          "name": "sender",
          "type": "address"
        }
      ],
      "name": "RoleRevoked",
      "type": "event"
    },
    {
      "anonymous": false,
      "inputs": [
        {
          "indexed": true,
          "internalType": "address",
          "name": "_secondarySalePayee",
          "type": "address"
        },
        {
          "indexed": false,
          "internalType": "uint256",
          "name": "primarySalePayment",
          "type": "uint256"
        }
      ],
      "name": "SecondarySalePayment",
      "type": "event"
    },
    {
      "anonymous": false,
      "inputs": [
        {
          "indexed": true,
          "internalType": "address",
          "name": "_marketplacePayee",
          "type": "address"
        },
        {
          "indexed": true,
          "internalType": "uint256",
          "name": "_marketplacePayment",
          "type": "uint256"
        }
      ],
      "name": "SecondarymarketplacePayment",
      "type": "event"
    },
    {
      "anonymous": false,
      "inputs": [
        {
          "indexed": true,
          "internalType": "address",
          "name": "_payee",
          "type": "address"
        },
        {
          "indexed": false,
          "internalType": "uint256",
          "name": "payeePayment",
          "type": "uint256"
        }
      ],
      "name": "SecondarypayeePayment",
      "type": "event"
    },
    {
      "anonymous": false,
      "inputs": [
        {
          "indexed": true,
          "internalType": "address",
          "name": "_payee",
          "type": "address"
        },
        {
          "indexed": false,
          "internalType": "uint256",
          "name": "amount",
          "type": "uint256"
        }
      ],
      "name": "SendValue",
      "type": "event"
    },
    {
      "anonymous": false,
      "inputs": [
        {
          "indexed": true,
          "internalType": "address",
          "name": "_originContract",
          "type": "address"
        },
        {
          "indexed": false,
          "internalType": "uint256",
          "name": "_amount",
          "type": "uint256"
        },
        {
          "indexed": false,
          "internalType": "uint256",
          "name": "_tokenId",
          "type": "uint256"
        }
      ],
      "name": "SetSalePrice",
      "type": "event"
    },
    {
      "anonymous": false,
      "inputs": [
        {
          "indexed": true,
          "internalType": "address",
          "name": "_originContract",
          "type": "address"
        },
        {
          "indexed": true,
          "internalType": "address",
          "name": "_buyer",
          "type": "address"
        },
        {
          "indexed": true,
          "internalType": "address",
          "name": "_seller",
          "type": "address"
        },
        {
          "indexed": false,
          "internalType": "uint256",
          "name": "_amount",
          "type": "uint256"
        },
        {
          "indexed": false,
          "internalType": "uint256",
          "name": "_tokenId",
          "type": "uint256"
        }
      ],
      "name": "Sold",
      "type": "event"
    },
    {
      "anonymous": false,
      "inputs": [
        {
          "indexed": false,
          "internalType": "address",
          "name": "_collector",
          "type": "address"
        }
      ],
      "name": "collectorRoleGrantedTo",
      "type": "event"
    },
    {
      "anonymous": false,
      "inputs": [
        {
          "indexed": false,
          "internalType": "address",
          "name": "_collector",
          "type": "address"
        }
      ],
      "name": "collectorRoleRevokedTo",
      "type": "event"
    },
    {
      "inputs": [],
      "name": "DEFAULT_ADMIN_ROLE",
      "outputs": [
        {
          "internalType": "bytes32",
          "name": "",
          "type": "bytes32"
        }
      ],
      "stateMutability": "view",
      "type": "function"
    },
    {
      "inputs": [],
      "name": "SendValueProxyInitialize",
      "outputs": [],
      "stateMutability": "nonpayable",
      "type": "function"
    },
    {
      "inputs": [],
      "name": "TOKEN_COLLECTOR_ROLE",
      "outputs": [
        {
          "internalType": "bytes32",
          "name": "",
          "type": "bytes32"
        }
      ],
      "stateMutability": "view",
      "type": "function"
    },
    {
      "inputs": [
        {
          "internalType": "bytes32",
          "name": "role",
          "type": "bytes32"
        }
      ],
      "name": "getRoleAdmin",
      "outputs": [
        {
          "internalType": "bytes32",
          "name": "",
          "type": "bytes32"
        }
      ],
      "stateMutability": "view",
      "type": "function"
    },
    {
      "inputs": [
        {
          "internalType": "bytes32",
          "name": "role",
          "type": "bytes32"
        },
        {
          "internalType": "uint256",
          "name": "index",
          "type": "uint256"
        }
      ],
      "name": "getRoleMember",
      "outputs": [
        {
          "internalType": "address",
          "name": "",
          "type": "address"
        }
      ],
      "stateMutability": "view",
      "type": "function"
    },
    {
      "inputs": [
        {
          "internalType": "bytes32",
          "name": "role",
          "type": "bytes32"
        }
      ],
      "name": "getRoleMemberCount",
      "outputs": [
        {
          "internalType": "uint256",
          "name": "",
          "type": "uint256"
        }
      ],
      "stateMutability": "view",
      "type": "function"
    },
    {
      "inputs": [
        {
          "internalType": "bytes32",
          "name": "role",
          "type": "bytes32"
        },
        {
          "internalType": "address",
          "name": "account",
          "type": "address"
        }
      ],
      "name": "grantRole",
      "outputs": [],
      "stateMutability": "nonpayable",
      "type": "function"
    },
    {
      "inputs": [
        {
          "internalType": "bytes32",
          "name": "role",
          "type": "bytes32"
        },
        {
          "internalType": "address",
          "name": "account",
          "type": "address"
        }
      ],
      "name": "hasRole",
      "outputs": [
        {
          "internalType": "bool",
          "name": "",
          "type": "bool"
        }
      ],
      "stateMutability": "view",
      "type": "function"
    },
    {
      "inputs": [],
      "name": "iERC721CreatorRoyalty",
      "outputs": [
        {
          "internalType": "contract IERC721CreatorRoyalty",
          "name": "",
          "type": "address"
        }
      ],
      "stateMutability": "view",
      "type": "function"
    },
    {
      "inputs": [],
      "name": "iMarketplaceSettings",
      "outputs": [
        {
          "internalType": "contract IMarketplaceSettings",
          "name": "",
          "type": "address"
        }
      ],
      "stateMutability": "view",
      "type": "function"
    },
    {
      "inputs": [],
      "name": "initializePayment",
      "outputs": [],
      "stateMutability": "nonpayable",
      "type": "function"
    },
    {
      "inputs": [],
      "name": "minimumBidIncreasePercentage",
      "outputs": [
        {
          "internalType": "uint8",
          "name": "",
          "type": "uint8"
        }
      ],
      "stateMutability": "view",
      "type": "function"
    },
    {
      "inputs": [],
      "name": "owner",
      "outputs": [
        {
          "internalType": "address",
          "name": "",
          "type": "address"
        }
      ],
      "stateMutability": "view",
      "type": "function"
    },
    {
      "inputs": [
        {
          "internalType": "address",
          "name": "dest",
          "type": "address"
        }
      ],
      "name": "payments",
      "outputs": [
        {
          "internalType": "uint256",
          "name": "",
          "type": "uint256"
        }
      ],
      "stateMutability": "view",
      "type": "function"
    },
    {
      "inputs": [],
      "name": "renounceOwnership",
      "outputs": [],
      "stateMutability": "nonpayable",
      "type": "function"
    },
    {
      "inputs": [
        {
          "internalType": "bytes32",
          "name": "role",
          "type": "bytes32"
        },
        {
          "internalType": "address",
          "name": "account",
          "type": "address"
        }
      ],
      "name": "renounceRole",
      "outputs": [],
      "stateMutability": "nonpayable",
      "type": "function"
    },
    {
      "inputs": [
        {
          "internalType": "bytes32",
          "name": "role",
          "type": "bytes32"
        },
        {
          "internalType": "address",
          "name": "account",
          "type": "address"
        }
      ],
      "name": "revokeRole",
      "outputs": [],
      "stateMutability": "nonpayable",
      "type": "function"
    },
    {
      "inputs": [
        {
          "internalType": "address",
          "name": "newOwner",
          "type": "address"
        }
      ],
      "name": "transferOwnership",
      "outputs": [],
      "stateMutability": "nonpayable",
      "type": "function"
    },
    {
      "inputs": [
        {
          "internalType": "address payable",
          "name": "payee",
          "type": "address"
        }
      ],
      "name": "withdrawPayments",
      "outputs": [],
      "stateMutability": "nonpayable",
      "type": "function"
    },
    {
      "inputs": [
        {
          "internalType": "uint256",
          "name": "_tokenId",
          "type": "uint256"
        },
        {
          "internalType": "address",
          "name": "_originContract",
          "type": "address"
        }
      ],
      "name": "confirmTokenByAdmin",
      "outputs": [],
      "stateMutability": "nonpayable",
      "type": "function"
    },
    {
      "inputs": [
        {
          "internalType": "uint256",
          "name": "_tokenId",
          "type": "uint256"
        }
      ],
      "name": "isTokenConfirmedByAdmin",
      "outputs": [
        {
          "internalType": "bool",
          "name": "",
          "type": "bool"
        }
      ],
      "stateMutability": "view",
      "type": "function"
    },
    {
      "inputs": [
        {
          "internalType": "address",
          "name": "_iMarketSettings",
          "type": "address"
        },
        {
          "internalType": "address",
          "name": "_iERC721CreatorRoyalty",
          "type": "address"
        }
      ],
      "name": "initialize",
      "outputs": [],
      "stateMutability": "nonpayable",
      "type": "function"
    },
    {
      "inputs": [],
      "name": "initialize",
      "outputs": [],
      "stateMutability": "nonpayable",
      "type": "function"
    },
    {
      "inputs": [
        {
          "internalType": "address",
          "name": "_address",
          "type": "address"
        }
      ],
      "name": "setMarketplaceSettings",
      "outputs": [],
      "stateMutability": "nonpayable",
      "type": "function"
    },
    {
      "inputs": [
        {
          "internalType": "address",
          "name": "_address",
          "type": "address"
        }
      ],
      "name": "setIERC721CreatorRoyalty",
      "outputs": [],
      "stateMutability": "nonpayable",
      "type": "function"
    },
    {
      "inputs": [
        {
          "internalType": "uint8",
          "name": "_percentage",
          "type": "uint8"
        }
      ],
      "name": "setMinimumBidIncreasePercentage",
      "outputs": [],
      "stateMutability": "nonpayable",
      "type": "function"
    },
    {
      "inputs": [
        {
          "internalType": "address",
          "name": "_originContract",
          "type": "address"
        },
        {
          "internalType": "uint256",
          "name": "_tokenId",
          "type": "uint256"
        },
        {
          "internalType": "uint256",
          "name": "_amount",
          "type": "uint256"
        }
      ],
      "name": "setSalePrice",
      "outputs": [],
      "stateMutability": "nonpayable",
      "type": "function"
    },
    {
      "inputs": [
        {
          "internalType": "address",
          "name": "_originContract",
          "type": "address"
        },
        {
          "internalType": "uint256",
          "name": "_tokenId",
          "type": "uint256"
        },
        {
          "internalType": "uint256",
          "name": "_amount",
          "type": "uint256"
        }
      ],
      "name": "safeBuy",
      "outputs": [],
      "stateMutability": "payable",
      "type": "function"
    },
    {
      "inputs": [
        {
          "internalType": "address",
          "name": "_originContract",
          "type": "address"
        },
        {
          "internalType": "uint256",
          "name": "_tokenId",
          "type": "uint256"
        }
      ],
      "name": "buy",
      "outputs": [],
      "stateMutability": "payable",
      "type": "function"
    },
    {
      "inputs": [
        {
          "internalType": "address",
          "name": "_originContract",
          "type": "address"
        },
        {
          "internalType": "uint256",
          "name": "_tokenId",
          "type": "uint256"
        }
      ],
      "name": "tokenPrice",
      "outputs": [
        {
          "internalType": "uint256",
          "name": "",
          "type": "uint256"
        }
      ],
      "stateMutability": "view",
      "type": "function"
    },
    {
      "inputs": [
        {
          "internalType": "address",
          "name": "_originContract",
          "type": "address"
        },
        {
          "internalType": "uint256",
          "name": "_tokenId",
          "type": "uint256"
        }
      ],
      "name": "tokenPriceFeeIncluded",
      "outputs": [
        {
          "internalType": "uint256",
          "name": "",
          "type": "uint256"
        }
      ],
      "stateMutability": "view",
      "type": "function"
    },
    {
      "inputs": [
        {
          "internalType": "uint256",
          "name": "_newBidAmount",
          "type": "uint256"
        },
        {
          "internalType": "address",
          "name": "_originContract",
          "type": "address"
        },
        {
          "internalType": "uint256",
          "name": "_tokenId",
          "type": "uint256"
        }
      ],
      "name": "bid",
      "outputs": [],
      "stateMutability": "payable",
      "type": "function"
    },
    {
      "inputs": [
        {
          "internalType": "address",
          "name": "_originContract",
          "type": "address"
        },
        {
          "internalType": "uint256",
          "name": "_tokenId",
          "type": "uint256"
        },
        {
          "internalType": "uint256",
          "name": "_amount",
          "type": "uint256"
        }
      ],
      "name": "safeAcceptBid",
      "outputs": [],
      "stateMutability": "nonpayable",
      "type": "function"
    },
    {
      "inputs": [
        {
          "internalType": "address",
          "name": "_originContract",
          "type": "address"
        },
        {
          "internalType": "uint256",
          "name": "_tokenId",
          "type": "uint256"
        }
      ],
      "name": "acceptBid",
      "outputs": [],
      "stateMutability": "nonpayable",
      "type": "function"
    },
    {
      "inputs": [
        {
          "internalType": "address",
          "name": "_originContract",
          "type": "address"
        },
        {
          "internalType": "uint256",
          "name": "_tokenId",
          "type": "uint256"
        }
      ],
      "name": "cancelBid",
      "outputs": [],
      "stateMutability": "nonpayable",
      "type": "function"
    },
    {
      "inputs": [
        {
          "internalType": "address",
          "name": "_originContract",
          "type": "address"
        },
        {
          "internalType": "uint256",
          "name": "_tokenId",
          "type": "uint256"
        }
      ],
      "name": "currentBidDetailsOfToken",
      "outputs": [
        {
          "internalType": "uint256",
          "name": "",
          "type": "uint256"
        },
        {
          "internalType": "address",
          "name": "",
          "type": "address"
        }
      ],
      "stateMutability": "view",
      "type": "function"
    }
  ],
  "bytecode": "0x608060405234801561001057600080fd5b5061891a80620000216000396000f3fe60806040526004361061020f5760003560e01c80638da5cb5b11610118578063c4be66f3116100a0578063cce7ec131161006f578063cce7ec1314610bbc578063d547741f14610c0a578063e2982c2114610c65578063f2fde38b14610cca578063f4f75dd814610d1b5761020f565b8063c4be66f314610a79578063c8db696214610ad4578063ca15c87314610b2c578063cafdcad014610b7b5761020f565b806393d10cea116100e757806393d10cea146108eb578063955a5a761461095a578063a217fddf146109b5578063a334c844146109e0578063c0f4ed3114610a215761020f565b80638da5cb5b1461075b5780639010d07c1461079c578063916c03ba1461080b57806391d148541461087a5761020f565b806339b6b1e51161019b5780635b24b1c51161016a5780635b24b1c5146106495780636fe9f44c1461069a578063715018a6146106c85780637598fdb3146106df5780638129fc1c146107445761020f565b806339b6b1e5146104da578063485cc9551461053557806348626b90146105a6578063508c1dbd146105e45761020f565b8063248a9ca3116101e2578063248a9ca31461036d5780632f2ff15d146103bc57806331b3eb941461041757806336568abe1461046857806338cdfc0c146104c35761020f565b80630d7d703f1461021457806314df85e914610265578063176ab440146102f15780631d99572a14610342575b600080fd5b34801561022057600080fd5b506102636004803603602081101561023757600080fd5b81019080803573ffffffffffffffffffffffffffffffffffffffff169060200190929190505050610d32565b005b34801561027157600080fd5b506102be6004803603604081101561028857600080fd5b81019080803573ffffffffffffffffffffffffffffffffffffffff16906020019092919080359060200190929190505050610eab565b604051808381526020018273ffffffffffffffffffffffffffffffffffffffff1681526020019250505060405180910390f35b3480156102fd57600080fd5b506103406004803603602081101561031457600080fd5b81019080803573ffffffffffffffffffffffffffffffffffffffff169060200190929190505050610f81565b005b34801561034e57600080fd5b506103576110fa565b6040518082815260200191505060405180910390f35b34801561037957600080fd5b506103a66004803603602081101561039057600080fd5b810190808035906020019092919050505061111e565b6040518082815260200191505060405180910390f35b3480156103c857600080fd5b50610415600480360360408110156103df57600080fd5b8101908080359060200190929190803573ffffffffffffffffffffffffffffffffffffffff16906020019092919050505061113e565b005b34801561042357600080fd5b506104666004803603602081101561043a57600080fd5b81019080803573ffffffffffffffffffffffffffffffffffffffff1690602001909291905050506111c8565b005b34801561047457600080fd5b506104c16004803603604081101561048b57600080fd5b8101908080359060200190929190803573ffffffffffffffffffffffffffffffffffffffff16906020019092919050505061126e565b005b3480156104cf57600080fd5b506104d8611307565b005b3480156104e657600080fd5b50610533600480360360408110156104fd57600080fd5b81019080803573ffffffffffffffffffffffffffffffffffffffff1690602001909291908035906020019092919050505061140d565b005b34801561054157600080fd5b506105a46004803603604081101561055857600080fd5b81019080803573ffffffffffffffffffffffffffffffffffffffff169060200190929190803573ffffffffffffffffffffffffffffffffffffffff16906020019092919050505061153b565b005b3480156105b257600080fd5b506105e2600480360360208110156105c957600080fd5b81019080803560ff169060200190929190505050611811565b005b3480156105f057600080fd5b506106476004803603606081101561060757600080fd5b81019080803573ffffffffffffffffffffffffffffffffffffffff16906020019092919080359060200190929190803590602001909291905050506118de565b005b34801561065557600080fd5b506106826004803603602081101561066c57600080fd5b8101908080359060200190929190505050611af0565b60405180821515815260200191505060405180910390f35b3480156106a657600080fd5b506106af611b1a565b604051808260ff16815260200191505060405180910390f35b3480156106d457600080fd5b506106dd611b2d565b005b3480156106eb57600080fd5b506107426004803603606081101561070257600080fd5b81019080803573ffffffffffffffffffffffffffffffffffffffff1690602001909291908035906020019092919080359060200190929190505050611c9d565b005b34801561075057600080fd5b50610759611d57565b005b34801561076757600080fd5b50610770611e5d565b604051808273ffffffffffffffffffffffffffffffffffffffff16815260200191505060405180910390f35b3480156107a857600080fd5b506107df600480360360408110156107bf57600080fd5b810190808035906020019092919080359060200190929190505050611e87565b604051808273ffffffffffffffffffffffffffffffffffffffff16815260200191505060405180910390f35b34801561081757600080fd5b506108646004803603604081101561082e57600080fd5b81019080803573ffffffffffffffffffffffffffffffffffffffff16906020019092919080359060200190929190505050611eb9565b6040518082815260200191505060405180910390f35b34801561088657600080fd5b506108d36004803603604081101561089d57600080fd5b8101908080359060200190929190803573ffffffffffffffffffffffffffffffffffffffff169060200190929190505050611f3a565b60405180821515815260200191505060405180910390f35b3480156108f757600080fd5b506109446004803603604081101561090e57600080fd5b81019080803573ffffffffffffffffffffffffffffffffffffffff16906020019092919080359060200190929190505050611f6c565b6040518082815260200191505060405180910390f35b34801561096657600080fd5b506109b36004803603604081101561097d57600080fd5b81019080803573ffffffffffffffffffffffffffffffffffffffff169060200190929190803590602001909291905050506120ff565b005b3480156109c157600080fd5b506109ca612e45565b6040518082815260200191505060405180910390f35b3480156109ec57600080fd5b506109f5612e4c565b604051808273ffffffffffffffffffffffffffffffffffffffff16815260200191505060405180910390f35b610a7760048036036060811015610a3757600080fd5b8101908080359060200190929190803573ffffffffffffffffffffffffffffffffffffffff16906020019092919080359060200190929190505050612e72565b005b348015610a8557600080fd5b50610ad260048036036040811015610a9c57600080fd5b8101908080359060200190929190803573ffffffffffffffffffffffffffffffffffffffff16906020019092919050505061334b565b005b610b2a60048036036060811015610aea57600080fd5b81019080803573ffffffffffffffffffffffffffffffffffffffff1690602001909291908035906020019092919080359060200190929190505050613547565b005b348015610b3857600080fd5b50610b6560048036036020811015610b4f57600080fd5b8101908080359060200190929190505050613601565b6040518082815260200191505060405180910390f35b348015610b8757600080fd5b50610b90613628565b604051808273ffffffffffffffffffffffffffffffffffffffff16815260200191505060405180910390f35b610c0860048036036040811015610bd257600080fd5b81019080803573ffffffffffffffffffffffffffffffffffffffff1690602001909291908035906020019092919050505061364e565b005b348015610c1657600080fd5b50610c6360048036036040811015610c2d57600080fd5b8101908080359060200190929190803573ffffffffffffffffffffffffffffffffffffffff169060200190929190505050614550565b005b348015610c7157600080fd5b50610cb460048036036020811015610c8857600080fd5b81019080803573ffffffffffffffffffffffffffffffffffffffff1690602001909291905050506145da565b6040518082815260200191505060405180910390f35b348015610cd657600080fd5b50610d1960048036036020811015610ced57600080fd5b81019080803573ffffffffffffffffffffffffffffffffffffffff1690602001909291905050506146a7565b005b348015610d2757600080fd5b50610d3061489c565b005b610d3a614a03565b73ffffffffffffffffffffffffffffffffffffffff16610d58611e5d565b73ffffffffffffffffffffffffffffffffffffffff1614610de1576040517f08c379a00000000000000000000000000000000000000000000000000000000081526004018080602001828103825260208152602001807f4f776e61626c653a2063616c6c6572206973206e6f7420746865206f776e657281525060200191505060405180910390fd5b600073ffffffffffffffffffffffffffffffffffffffff168173ffffffffffffffffffffffffffffffffffffffff161415610e67576040517f08c379a000000000000000000000000000000000000000000000000000000000815260040180806020018281038252604d81526020018061838f604d913960600191505060405180910390fd5b8060cb60006101000a81548173ffffffffffffffffffffffffffffffffffffffff021916908373ffffffffffffffffffffffffffffffffffffffff16021790555050565b60008060cd60008573ffffffffffffffffffffffffffffffffffffffff1673ffffffffffffffffffffffffffffffffffffffff16815260200190815260200160002060008481526020019081526020016000206001015460cd60008673ffffffffffffffffffffffffffffffffffffffff1673ffffffffffffffffffffffffffffffffffffffff168152602001908152602001600020600085815260200190815260200160002060000160009054906101000a900473ffffffffffffffffffffffffffffffffffffffff16915091509250929050565b610f89614a03565b73ffffffffffffffffffffffffffffffffffffffff16610fa7611e5d565b73ffffffffffffffffffffffffffffffffffffffff1614611030576040517f08c379a00000000000000000000000000000000000000000000000000000000081526004018080602001828103825260208152602001807f4f776e61626c653a2063616c6c6572206973206e6f7420746865206f776e657281525060200191505060405180910390fd5b600073ffffffffffffffffffffffffffffffffffffffff168173ffffffffffffffffffffffffffffffffffffffff1614156110b6576040517f08c379a00000000000000000000000000000000000000000000000000000000081526004018080602001828103825260458152602001806187296045913960600191505060405180910390fd5b8060ca60006101000a81548173ffffffffffffffffffffffffffffffffffffffff021916908373ffffffffffffffffffffffffffffffffffffffff16021790555050565b7f544f4b454e5f434f4c4c4543544f525f524f4c4500000000000000000000000081565b600060656000838152602001908152602001600020600201549050919050565b6111656065600084815260200190815260200160002060020154611160614a03565b611f3a565b6111ba576040517f08c379a000000000000000000000000000000000000000000000000000000000815260040180806020018281038252602f815260200180618449602f913960400191505060405180910390fd5b6111c48282614a0b565b5050565b609860009054906101000a900473ffffffffffffffffffffffffffffffffffffffff1673ffffffffffffffffffffffffffffffffffffffff166351cff8d9826040518263ffffffff1660e01b8152600401808273ffffffffffffffffffffffffffffffffffffffff168152602001915050600060405180830381600087803b15801561125357600080fd5b505af1158015611267573d6000803e3d6000fd5b5050505050565b611276614a03565b73ffffffffffffffffffffffffffffffffffffffff168173ffffffffffffffffffffffffffffffffffffffff16146112f9576040517f08c379a000000000000000000000000000000000000000000000000000000000815260040180806020018281038252602f8152602001806188b6602f913960400191505060405180910390fd5b6113038282614a9f565b5050565b600060019054906101000a900460ff16806113265750611325614b33565b5b8061133c575060008054906101000a900460ff16155b611391576040517f08c379a000000000000000000000000000000000000000000000000000000000815260040180806020018281038252602e8152602001806186d3602e913960400191505060405180910390fd5b60008060019054906101000a900460ff1615905080156113e1576001600060016101000a81548160ff02191690831515021790555060016000806101000a81548160ff0219169083151502179055505b6113e9611d57565b801561140a5760008060016101000a81548160ff0219169083151502179055505b50565b611418338383614b44565b61146d576040517f08c379a00000000000000000000000000000000000000000000000000000000081526004018080602001828103825260398152602001806186016039913960400191505060405180910390fd5b6114778282614bf1565b3373ffffffffffffffffffffffffffffffffffffffff168273ffffffffffffffffffffffffffffffffffffffff167f99a3761c98d7a0c3980cbeb3d8009b315a463f8020b43ca1e6901611b06547f960cd60008673ffffffffffffffffffffffffffffffffffffffff1673ffffffffffffffffffffffffffffffffffffffff16815260200190815260200160002060008581526020019081526020016000206001015484604051808381526020018281526020019250505060405180910390a35050565b600060019054906101000a900460ff168061155a5750611559614b33565b5b80611570575060008054906101000a900460ff16155b6115c5576040517f08c379a000000000000000000000000000000000000000000000000000000000815260040180806020018281038252602e8152602001806186d3602e913960400191505060405180910390fd5b60008060019054906101000a900460ff161590508015611615576001600060016101000a81548160ff02191690831515021790555060016000806101000a81548160ff0219169083151502179055505b600073ffffffffffffffffffffffffffffffffffffffff168373ffffffffffffffffffffffffffffffffffffffff16141561169b576040517f08c379a000000000000000000000000000000000000000000000000000000000815260040180806020018281038252603a815260200180618815603a913960400191505060405180910390fd5b600073ffffffffffffffffffffffffffffffffffffffff168273ffffffffffffffffffffffffffffffffffffffff161415611721576040517f08c379a00000000000000000000000000000000000000000000000000000000081526004018080602001828103825260408152602001806187936040913960400191505060405180910390fd5b611729614d39565b611731614e47565b611739611307565b61174d6000801b611748611e5d565b614f55565b8260ca60006101000a81548173ffffffffffffffffffffffffffffffffffffffff021916908373ffffffffffffffffffffffffffffffffffffffff1602179055508160cb60006101000a81548173ffffffffffffffffffffffffffffffffffffffff021916908373ffffffffffffffffffffffffffffffffffffffff160217905550600a60ce60006101000a81548160ff021916908360ff160217905550801561180c5760008060016101000a81548160ff0219169083151502179055505b505050565b611819614a03565b73ffffffffffffffffffffffffffffffffffffffff16611837611e5d565b73ffffffffffffffffffffffffffffffffffffffff16146118c0576040517f08c379a00000000000000000000000000000000000000000000000000000000081526004018080602001828103825260208152602001807f4f776e61626c653a2063616c6c6572206973206e6f7420746865206f776e657281525060200191505060405180910390fd5b8060ce60006101000a81548160ff021916908360ff16021790555050565b6118e88383614f63565b6118f28383615113565b600115156118ff83611af0565b151514611957576040517f08c379a000000000000000000000000000000000000000000000000000000000815260040180806020018281038252602581526020018061884f6025913960400191505060405180910390fd5b60008114156119c55761196a8383615249565b8273ffffffffffffffffffffffffffffffffffffffff167fb0b0e4adf2724af8f1646eae3a16f45d696c9334594729d09bf192da1f7838718284604051808381526020018281526020019250505060405180910390a2611aeb565b60405180604001604052803373ffffffffffffffffffffffffffffffffffffffff1681526020018281525060cc60008573ffffffffffffffffffffffffffffffffffffffff1673ffffffffffffffffffffffffffffffffffffffff168152602001908152602001600020600084815260200190815260200160002060008201518160000160006101000a81548173ffffffffffffffffffffffffffffffffffffffff021916908373ffffffffffffffffffffffffffffffffffffffff160217905550602082015181600101559050508273ffffffffffffffffffffffffffffffffffffffff167fb0b0e4adf2724af8f1646eae3a16f45d696c9334594729d09bf192da1f7838718284604051808381526020018281526020019250505060405180910390a25b505050565b600060cf600083815260200190815260200160002060009054906101000a900460ff169050919050565b60ce60009054906101000a900460ff1681565b611b35614a03565b73ffffffffffffffffffffffffffffffffffffffff16611b53611e5d565b73ffffffffffffffffffffffffffffffffffffffff1614611bdc576040517f08c379a00000000000000000000000000000000000000000000000000000000081526004018080602001828103825260208152602001807f4f776e61626c653a2063616c6c6572206973206e6f7420746865206f776e657281525060200191505060405180910390fd5b600073ffffffffffffffffffffffffffffffffffffffff16603360009054906101000a900473ffffffffffffffffffffffffffffffffffffffff1673ffffffffffffffffffffffffffffffffffffffff167f8be0079c531659141344cd1fd0a4f28419497f9722a3daafe3b4186f6b6457e060405160405180910390a36000603360006101000a81548173ffffffffffffffffffffffffffffffffffffffff021916908373ffffffffffffffffffffffffffffffffffffffff160217905550565b8060cd60008573ffffffffffffffffffffffffffffffffffffffff1673ffffffffffffffffffffffffffffffffffffffff16815260200190815260200160002060008481526020019081526020016000206001015414611d48576040517f08c379a000000000000000000000000000000000000000000000000000000000815260040180806020018281038252603481526020018061859b6034913960400191505060405180910390fd5b611d5283836120ff565b505050565b600060019054906101000a900460ff1680611d765750611d75614b33565b5b80611d8c575060008054906101000a900460ff16155b611de1576040517f08c379a000000000000000000000000000000000000000000000000000000000815260040180806020018281038252602e8152602001806186d3602e913960400191505060405180910390fd5b60008060019054906101000a900460ff161590508015611e31576001600060016101000a81548160ff02191690831515021790555060016000806101000a81548160ff0219169083151502179055505b611e3961531e565b8015611e5a5760008060016101000a81548160ff0219169083151502179055505b50565b6000603360009054906101000a900473ffffffffffffffffffffffffffffffffffffffff16905090565b6000611eb1826065600086815260200190815260200160002060000161542490919063ffffffff16565b905092915050565b6000611ec58383614f63565b611ecf838361543e565b15611f2f5760cc60008473ffffffffffffffffffffffffffffffffffffffff1673ffffffffffffffffffffffffffffffffffffffff1681526020019081526020016000206000838152602001908152602001600020600101549050611f34565b600090505b92915050565b6000611f64826065600086815260200190815260200160002060000161557a90919063ffffffff16565b905092915050565b6000611f788383614f63565b611f82838361543e565b156120f4576120ed60ca60009054906101000a900473ffffffffffffffffffffffffffffffffffffffff1673ffffffffffffffffffffffffffffffffffffffff1663c3fc495260cc60008773ffffffffffffffffffffffffffffffffffffffff1673ffffffffffffffffffffffffffffffffffffffff1681526020019081526020016000206000868152602001908152602001600020600101546040518263ffffffff1660e01b81526004018082815260200191505060206040518083038186803b15801561205057600080fd5b505afa158015612064573d6000803e3d6000fd5b505050506040513d602081101561207a57600080fd5b810190808051906020019092919050505060cc60008673ffffffffffffffffffffffffffffffffffffffff1673ffffffffffffffffffffffffffffffffffffffff1681526020019081526020016000206000858152602001908152602001600020600101546155aa90919063ffffffff16565b90506120f9565b600090505b92915050565b6121098282614f63565b6121138282615113565b61211d8282615632565b612172576040517f08c379a00000000000000000000000000000000000000000000000000000000081526004018080602001828103825260328152602001806185cf6032913960400191505060405180910390fd5b61217a617002565b60cd60008473ffffffffffffffffffffffffffffffffffffffff1673ffffffffffffffffffffffffffffffffffffffff16815260200190815260200160002060008381526020019081526020016000206040518060600160405290816000820160009054906101000a900473ffffffffffffffffffffffffffffffffffffffff1673ffffffffffffffffffffffffffffffffffffffff1673ffffffffffffffffffffffffffffffffffffffff1681526020016000820160149054906101000a900460ff1660ff1660ff168152602001600182015481525050905061225e8383615249565b61226883836156df565b60008390508073ffffffffffffffffffffffffffffffffffffffff166342842e0e338460000151866040518463ffffffff1660e01b8152600401808473ffffffffffffffffffffffffffffffffffffffff1681526020018373ffffffffffffffffffffffffffffffffffffffff1681526020018281526020019350505050600060405180830381600087803b15801561230057600080fd5b505af1158015612314573d6000803e3d6000fd5b50505050600061232a612325611e5d565b6157df565b905060ca60009054906101000a900473ffffffffffffffffffffffffffffffffffffffff1673ffffffffffffffffffffffffffffffffffffffff1663511bc84c86866040518363ffffffff1660e01b8152600401808373ffffffffffffffffffffffffffffffffffffffff1681526020018281526020019250505060206040518083038186803b1580156123bd57600080fd5b505afa1580156123d1573d6000803e3d6000fd5b505050506040513d60208110156123e757600080fd5b810190808051906020019092919050505061291f576127d8836040015160ca60009054906101000a900473ffffffffffffffffffffffffffffffffffffffff1673ffffffffffffffffffffffffffffffffffffffff1663511bc84c88886040518363ffffffff1660e01b8152600401808373ffffffffffffffffffffffffffffffffffffffff1681526020018281526020019250505060206040518083038186803b15801561249557600080fd5b505afa1580156124a9573d6000803e3d6000fd5b505050506040513d60208110156124bf57600080fd5b81019080805190602001909291905050501560ca60009054906101000a900473ffffffffffffffffffffffffffffffffffffffff1673ffffffffffffffffffffffffffffffffffffffff1663834759216040518163ffffffff1660e01b815260040160206040518083038186803b15801561253957600080fd5b505afa15801561254d573d6000803e3d6000fd5b505050506040513d602081101561256357600080fd5b810190808051906020019092919050505060cb60009054906101000a900473ffffffffffffffffffffffffffffffffffffffff1673ffffffffffffffffffffffffffffffffffffffff16637c0329f78a8a6040518363ffffffff1660e01b8152600401808373ffffffffffffffffffffffffffffffffffffffff1681526020018281526020019250505060206040518083038186803b15801561260557600080fd5b505afa158015612619573d6000803e3d6000fd5b505050506040513d602081101561262f57600080fd5b810190808051906020019092919050505060ca60009054906101000a900473ffffffffffffffffffffffffffffffffffffffff1673ffffffffffffffffffffffffffffffffffffffff1663b28a7bad8b6040518263ffffffff1660e01b8152600401808273ffffffffffffffffffffffffffffffffffffffff16815260200191505060206040518083038186803b1580156126c957600080fd5b505afa1580156126dd573d6000803e3d6000fd5b505050506040513d60208110156126f357600080fd5b8101908080519060200190929190505050338760cb60009054906101000a900473ffffffffffffffffffffffffffffffffffffffff1673ffffffffffffffffffffffffffffffffffffffff1663b85ed7e48e8e6040518363ffffffff1660e01b8152600401808373ffffffffffffffffffffffffffffffffffffffff1681526020018281526020019250505060206040518083038186803b15801561279757600080fd5b505afa1580156127ab573d6000803e3d6000fd5b505050506040513d60208110156127c157600080fd5b8101908080519060200190929190505050896157e9565b60ca60009054906101000a900473ffffffffffffffffffffffffffffffffffffffff1673ffffffffffffffffffffffffffffffffffffffff16635a3c652d868660016040518463ffffffff1660e01b8152600401808473ffffffffffffffffffffffffffffffffffffffff16815260200183815260200182151581526020019350505050600060405180830381600087803b15801561287657600080fd5b505af115801561288a573d6000803e3d6000fd5b505050503373ffffffffffffffffffffffffffffffffffffffff16836000015173ffffffffffffffffffffffffffffffffffffffff168673ffffffffffffffffffffffffffffffffffffffff167f2a9d06eec42acd217a17785dbec90b8b4f01a93ecd8c127edd36bfccf239f8b6866040015188604051808381526020018281526020019250505060405180910390a4612e3e565b612cfb836040015160ca60009054906101000a900473ffffffffffffffffffffffffffffffffffffffff1673ffffffffffffffffffffffffffffffffffffffff1663511bc84c88886040518363ffffffff1660e01b8152600401808373ffffffffffffffffffffffffffffffffffffffff1681526020018281526020019250505060206040518083038186803b1580156129b857600080fd5b505afa1580156129cc573d6000803e3d6000fd5b505050506040513d60208110156129e257600080fd5b81019080805190602001909291905050501560ca60009054906101000a900473ffffffffffffffffffffffffffffffffffffffff1673ffffffffffffffffffffffffffffffffffffffff1663834759216040518163ffffffff1660e01b815260040160206040518083038186803b158015612a5c57600080fd5b505afa158015612a70573d6000803e3d6000fd5b505050506040513d6020811015612a8657600080fd5b810190808051906020019092919050505060cb60009054906101000a900473ffffffffffffffffffffffffffffffffffffffff1673ffffffffffffffffffffffffffffffffffffffff16637c0329f78a8a6040518363ffffffff1660e01b8152600401808373ffffffffffffffffffffffffffffffffffffffff1681526020018281526020019250505060206040518083038186803b158015612b2857600080fd5b505afa158015612b3c573d6000803e3d6000fd5b505050506040513d6020811015612b5257600080fd5b810190808051906020019092919050505060ca60009054906101000a900473ffffffffffffffffffffffffffffffffffffffff1673ffffffffffffffffffffffffffffffffffffffff1663a36fe8d88b6040518263ffffffff1660e01b8152600401808273ffffffffffffffffffffffffffffffffffffffff16815260200191505060206040518083038186803b158015612bec57600080fd5b505afa158015612c00573d6000803e3d6000fd5b505050506040513d6020811015612c1657600080fd5b8101908080519060200190929190505050338760cb60009054906101000a900473ffffffffffffffffffffffffffffffffffffffff1673ffffffffffffffffffffffffffffffffffffffff1663b85ed7e48e8e6040518363ffffffff1660e01b8152600401808373ffffffffffffffffffffffffffffffffffffffff1681526020018281526020019250505060206040518083038186803b158015612cba57600080fd5b505afa158015612cce573d6000803e3d6000fd5b505050506040513d6020811015612ce457600080fd5b810190808051906020019092919050505089615ca7565b60ca60009054906101000a900473ffffffffffffffffffffffffffffffffffffffff1673ffffffffffffffffffffffffffffffffffffffff16635a3c652d868660016040518463ffffffff1660e01b8152600401808473ffffffffffffffffffffffffffffffffffffffff16815260200183815260200182151581526020019350505050600060405180830381600087803b158015612d9957600080fd5b505af1158015612dad573d6000803e3d6000fd5b505050503373ffffffffffffffffffffffffffffffffffffffff16836000015173ffffffffffffffffffffffffffffffffffffffff168673ffffffffffffffffffffffffffffffffffffffff167f2a9d06eec42acd217a17785dbec90b8b4f01a93ecd8c127edd36bfccf239f8b6866040015188604051808381526020018281526020019250505060405180910390a45b5050505050565b6000801b81565b60ca60009054906101000a900473ffffffffffffffffffffffffffffffffffffffff1681565b612e9c7f544f4b454e5f434f4c4c4543544f525f524f4c4500000000000000000000000033611f3a565b612ef1576040517f08c379a00000000000000000000000000000000000000000000000000000000081526004018080602001828103825260228152602001806183fe6022913960400191505060405180910390fd5b60008311612f67576040517f08c379a00000000000000000000000000000000000000000000000000000000081526004018080602001828103825260168152602001807f6269643a3a43616e6e6f74206269642030205765692e0000000000000000000081525060200191505060405180910390fd5b600060cd60008473ffffffffffffffffffffffffffffffffffffffff1673ffffffffffffffffffffffffffffffffffffffff1681526020019081526020016000206000838152602001908152602001600020600101549050808411801561301757506130136130046064612ff660ce60009054906101000a900460ff1660ff168561614290919063ffffffff16565b6161c890919063ffffffff16565b826155aa90919063ffffffff16565b8410155b61306c576040517f08c379a00000000000000000000000000000000000000000000000000000000081526004018080602001828103825260428152602001806188746042913960600191505060405180910390fd5b600061312e60ca60009054906101000a900473ffffffffffffffffffffffffffffffffffffffff1673ffffffffffffffffffffffffffffffffffffffff1663c3fc4952876040518263ffffffff1660e01b81526004018082815260200191505060206040518083038186803b1580156130e457600080fd5b505afa1580156130f8573d6000803e3d6000fd5b505050506040513d602081101561310e57600080fd5b8101908080519060200190929190505050866155aa90919063ffffffff16565b9050348114613188576040517f08c379a00000000000000000000000000000000000000000000000000000000081526004018080602001828103825260338152602001806185236033913960400191505060405180910390fd5b600084905060008173ffffffffffffffffffffffffffffffffffffffff16636352211e866040518263ffffffff1660e01b81526004018082815260200191505060206040518083038186803b1580156131e057600080fd5b505afa1580156131f4573d6000803e3d6000fd5b505050506040513d602081101561320a57600080fd5b810190808051906020019092919050505090503373ffffffffffffffffffffffffffffffffffffffff168173ffffffffffffffffffffffffffffffffffffffff1614156132bf576040517f08c379a000000000000000000000000000000000000000000000000000000000815260040180806020018281038252601c8152602001807f6269643a3a4269646465722063616e6e6f74206265206f776e65722e0000000081525060200191505060405180910390fd5b6132c98686614bf1565b6132d587338888616251565b3373ffffffffffffffffffffffffffffffffffffffff168673ffffffffffffffffffffffffffffffffffffffff167fd21fbaad97462831ad0c216f300fefb33a10b03bb18bb70ed668562e88d15d538988604051808381526020018281526020019250505060405180910390a350505050505050565b613353614a03565b73ffffffffffffffffffffffffffffffffffffffff16613371611e5d565b73ffffffffffffffffffffffffffffffffffffffff16146133fa576040517f08c379a00000000000000000000000000000000000000000000000000000000081526004018080602001828103825260208152602001807f4f776e61626c653a2063616c6c6572206973206e6f7420746865206f776e657281525060200191505060405180910390fd5b600081905060008173ffffffffffffffffffffffffffffffffffffffff16636352211e856040518263ffffffff1660e01b81526004018082815260200191505060206040518083038186803b15801561345257600080fd5b505afa158015613466573d6000803e3d6000fd5b505050506040513d602081101561347c57600080fd5b81019080805190602001909291905050509050600073ffffffffffffffffffffffffffffffffffffffff168173ffffffffffffffffffffffffffffffffffffffff161415613515576040517f08c379a000000000000000000000000000000000000000000000000000000000815260040180806020018281038252602581526020018061876e6025913960400191505060405180910390fd5b600160cf600086815260200190815260200160002060006101000a81548160ff02191690831515021790555050505050565b8060cc60008573ffffffffffffffffffffffffffffffffffffffff1673ffffffffffffffffffffffffffffffffffffffff168152602001908152602001600020600084815260200190815260200160002060010154146135f2576040517f08c379a00000000000000000000000000000000000000000000000000000000081526004018080602001828103825260338152602001806184a16033913960400191505060405180910390fd5b6135fc838361364e565b505050565b600061362160656000848152602001908152602001600020600001616495565b9050919050565b60cb60009054906101000a900473ffffffffffffffffffffffffffffffffffffffff1681565b6136787f544f4b454e5f434f4c4c4543544f525f524f4c4500000000000000000000000033611f3a565b6136cd576040517f08c379a00000000000000000000000000000000000000000000000000000000081526004018080602001828103825260228152602001806183fe6022913960400191505060405180910390fd5b6136d78282614f63565b6136e1828261543e565b613736576040517f08c379a00000000000000000000000000000000000000000000000000000000081526004018080602001828103825260458152602001806185566045913960600191505060405180910390fd5b61373e61703c565b60cc60008473ffffffffffffffffffffffffffffffffffffffff1673ffffffffffffffffffffffffffffffffffffffff16815260200190815260200160002060008381526020019081526020016000206040518060400160405290816000820160009054906101000a900473ffffffffffffffffffffffffffffffffffffffff1673ffffffffffffffffffffffffffffffffffffffff1673ffffffffffffffffffffffffffffffffffffffff16815260200160018201548152505090506000816020015111613858576040517f08c379a00000000000000000000000000000000000000000000000000000000081526004018080602001828103825260298152602001806184fa6029913960400191505060405180910390fd5b346138638484611f6c565b146138b9576040517f08c379a000000000000000000000000000000000000000000000000000000000815260040180806020018281038252603781526020018061863a6037913960400191505060405180910390fd5b600083905060008173ffffffffffffffffffffffffffffffffffffffff16636352211e856040518263ffffffff1660e01b81526004018082815260200191505060206040518083038186803b15801561391157600080fd5b505afa158015613925573d6000803e3d6000fd5b505050506040513d602081101561393b57600080fd5b810190808051906020019092919050505090506139588585615249565b8173ffffffffffffffffffffffffffffffffffffffff166342842e0e8233876040518463ffffffff1660e01b8152600401808473ffffffffffffffffffffffffffffffffffffffff1681526020018373ffffffffffffffffffffffffffffffffffffffff1681526020018281526020019350505050600060405180830381600087803b1580156139e757600080fd5b505af11580156139fb573d6000803e3d6000fd5b50505050613a0a338686614b44565b15613a1a57613a198585614bf1565b5b6000613a2c613a27611e5d565b6157df565b905060ca60009054906101000a900473ffffffffffffffffffffffffffffffffffffffff1673ffffffffffffffffffffffffffffffffffffffff1663511bc84c87876040518363ffffffff1660e01b8152600401808373ffffffffffffffffffffffffffffffffffffffff1681526020018281526020019250505060206040518083038186803b158015613abf57600080fd5b505afa158015613ad3573d6000803e3d6000fd5b505050506040513d6020811015613ae957600080fd5b810190808051906020019092919050505061402557613ee2846020015160ca60009054906101000a900473ffffffffffffffffffffffffffffffffffffffff1673ffffffffffffffffffffffffffffffffffffffff1663511bc84c89896040518363ffffffff1660e01b8152600401808373ffffffffffffffffffffffffffffffffffffffff1681526020018281526020019250505060206040518083038186803b158015613b9757600080fd5b505afa158015613bab573d6000803e3d6000fd5b505050506040513d6020811015613bc157600080fd5b81019080805190602001909291905050501560ca60009054906101000a900473ffffffffffffffffffffffffffffffffffffffff1673ffffffffffffffffffffffffffffffffffffffff1663834759216040518163ffffffff1660e01b815260040160206040518083038186803b158015613c3b57600080fd5b505afa158015613c4f573d6000803e3d6000fd5b505050506040513d6020811015613c6557600080fd5b810190808051906020019092919050505060cb60009054906101000a900473ffffffffffffffffffffffffffffffffffffffff1673ffffffffffffffffffffffffffffffffffffffff16637c0329f78b8b6040518363ffffffff1660e01b8152600401808373ffffffffffffffffffffffffffffffffffffffff1681526020018281526020019250505060206040518083038186803b158015613d0757600080fd5b505afa158015613d1b573d6000803e3d6000fd5b505050506040513d6020811015613d3157600080fd5b810190808051906020019092919050505060ca60009054906101000a900473ffffffffffffffffffffffffffffffffffffffff1673ffffffffffffffffffffffffffffffffffffffff1663b28a7bad8c6040518263ffffffff1660e01b8152600401808273ffffffffffffffffffffffffffffffffffffffff16815260200191505060206040518083038186803b158015613dcb57600080fd5b505afa158015613ddf573d6000803e3d6000fd5b505050506040513d6020811015613df557600080fd5b8101908080519060200190929190505050613e0f886157df565b8760cb60009054906101000a900473ffffffffffffffffffffffffffffffffffffffff1673ffffffffffffffffffffffffffffffffffffffff1663b85ed7e48f8f6040518363ffffffff1660e01b8152600401808373ffffffffffffffffffffffffffffffffffffffff1681526020018281526020019250505060206040518083038186803b158015613ea157600080fd5b505afa158015613eb5573d6000803e3d6000fd5b505050506040513d6020811015613ecb57600080fd5b8101908080519060200190929190505050896157e9565b60ca60009054906101000a900473ffffffffffffffffffffffffffffffffffffffff1673ffffffffffffffffffffffffffffffffffffffff16635a3c652d878760016040518463ffffffff1660e01b8152600401808473ffffffffffffffffffffffffffffffffffffffff16815260200183815260200182151581526020019350505050600060405180830381600087803b158015613f8057600080fd5b505af1158015613f94573d6000803e3d6000fd5b505050508173ffffffffffffffffffffffffffffffffffffffff163373ffffffffffffffffffffffffffffffffffffffff168773ffffffffffffffffffffffffffffffffffffffff167f5764dbcef91eb6f946584f4ea671217c686fa7e858ce4f9f42d08422b86556a9876020015189604051808381526020018281526020019250505060405180910390a4614548565b614409846020015160ca60009054906101000a900473ffffffffffffffffffffffffffffffffffffffff1673ffffffffffffffffffffffffffffffffffffffff1663511bc84c89896040518363ffffffff1660e01b8152600401808373ffffffffffffffffffffffffffffffffffffffff1681526020018281526020019250505060206040518083038186803b1580156140be57600080fd5b505afa1580156140d2573d6000803e3d6000fd5b505050506040513d60208110156140e857600080fd5b81019080805190602001909291905050501560ca60009054906101000a900473ffffffffffffffffffffffffffffffffffffffff1673ffffffffffffffffffffffffffffffffffffffff1663834759216040518163ffffffff1660e01b815260040160206040518083038186803b15801561416257600080fd5b505afa158015614176573d6000803e3d6000fd5b505050506040513d602081101561418c57600080fd5b810190808051906020019092919050505060cb60009054906101000a900473ffffffffffffffffffffffffffffffffffffffff1673ffffffffffffffffffffffffffffffffffffffff16637c0329f78b8b6040518363ffffffff1660e01b8152600401808373ffffffffffffffffffffffffffffffffffffffff1681526020018281526020019250505060206040518083038186803b15801561422e57600080fd5b505afa158015614242573d6000803e3d6000fd5b505050506040513d602081101561425857600080fd5b810190808051906020019092919050505060ca60009054906101000a900473ffffffffffffffffffffffffffffffffffffffff1673ffffffffffffffffffffffffffffffffffffffff1663a36fe8d88c6040518263ffffffff1660e01b8152600401808273ffffffffffffffffffffffffffffffffffffffff16815260200191505060206040518083038186803b1580156142f257600080fd5b505afa158015614306573d6000803e3d6000fd5b505050506040513d602081101561431c57600080fd5b8101908080519060200190929190505050614336886157df565b8760cb60009054906101000a900473ffffffffffffffffffffffffffffffffffffffff1673ffffffffffffffffffffffffffffffffffffffff1663b85ed7e48f8f6040518363ffffffff1660e01b8152600401808373ffffffffffffffffffffffffffffffffffffffff1681526020018281526020019250505060206040518083038186803b1580156143c857600080fd5b505afa1580156143dc573d6000803e3d6000fd5b505050506040513d60208110156143f257600080fd5b810190808051906020019092919050505089615ca7565b60ca60009054906101000a900473ffffffffffffffffffffffffffffffffffffffff1673ffffffffffffffffffffffffffffffffffffffff16635a3c652d878760016040518463ffffffff1660e01b8152600401808473ffffffffffffffffffffffffffffffffffffffff16815260200183815260200182151581526020019350505050600060405180830381600087803b1580156144a757600080fd5b505af11580156144bb573d6000803e3d6000fd5b505050508173ffffffffffffffffffffffffffffffffffffffff163373ffffffffffffffffffffffffffffffffffffffff168773ffffffffffffffffffffffffffffffffffffffff167f5764dbcef91eb6f946584f4ea671217c686fa7e858ce4f9f42d08422b86556a9876020015189604051808381526020018281526020019250505060405180910390a45b505050505050565b6145776065600084815260200190815260200160002060020154614572614a03565b611f3a565b6145cc576040517f08c379a00000000000000000000000000000000000000000000000000000000081526004018080602001828103825260308152602001806186a36030913960400191505060405180910390fd5b6145d68282614a9f565b5050565b6000609860009054906101000a900473ffffffffffffffffffffffffffffffffffffffff1673ffffffffffffffffffffffffffffffffffffffff1663e3a9db1a836040518263ffffffff1660e01b8152600401808273ffffffffffffffffffffffffffffffffffffffff16815260200191505060206040518083038186803b15801561466557600080fd5b505afa158015614679573d6000803e3d6000fd5b505050506040513d602081101561468f57600080fd5b81019080805190602001909291905050509050919050565b6146af614a03565b73ffffffffffffffffffffffffffffffffffffffff166146cd611e5d565b73ffffffffffffffffffffffffffffffffffffffff1614614756576040517f08c379a00000000000000000000000000000000000000000000000000000000081526004018080602001828103825260208152602001807f4f776e61626c653a2063616c6c6572206973206e6f7420746865206f776e657281525060200191505060405180910390fd5b600073ffffffffffffffffffffffffffffffffffffffff168173ffffffffffffffffffffffffffffffffffffffff1614156147dc576040517f08c379a00000000000000000000000000000000000000000000000000000000081526004018080602001828103825260268152602001806184d46026913960400191505060405180910390fd5b8073ffffffffffffffffffffffffffffffffffffffff16603360009054906101000a900473ffffffffffffffffffffffffffffffffffffffff1673ffffffffffffffffffffffffffffffffffffffff167f8be0079c531659141344cd1fd0a4f28419497f9722a3daafe3b4186f6b6457e060405160405180910390a380603360006101000a81548173ffffffffffffffffffffffffffffffffffffffff021916908373ffffffffffffffffffffffffffffffffffffffff16021790555050565b600060019054906101000a900460ff16806148bb57506148ba614b33565b5b806148d1575060008054906101000a900460ff16155b614926576040517f08c379a000000000000000000000000000000000000000000000000000000000815260040180806020018281038252602e8152602001806186d3602e913960400191505060405180910390fd5b60008060019054906101000a900460ff161590508015614976576001600060016101000a81548160ff02191690831515021790555060016000806101000a81548160ff0219169083151502179055505b6040516149829061706c565b604051809103906000f08015801561499e573d6000803e3d6000fd5b50609760006101000a81548173ffffffffffffffffffffffffffffffffffffffff021916908373ffffffffffffffffffffffffffffffffffffffff1602179055508015614a005760008060016101000a81548160ff0219169083151502179055505b50565b600033905090565b614a3381606560008581526020019081526020016000206000016164aa90919063ffffffff16565b15614a9b57614a40614a03565b73ffffffffffffffffffffffffffffffffffffffff168173ffffffffffffffffffffffffffffffffffffffff16837f2f8788117e7eff1d82e926ec794901d17c78024a50270940304540a733656f0d60405160405180910390a45b5050565b614ac781606560008581526020019081526020016000206000016164da90919063ffffffff16565b15614b2f57614ad4614a03565b73ffffffffffffffffffffffffffffffffffffffff168173ffffffffffffffffffffffffffffffffffffffff16837ff6391f5c32d9c69d2a47ea670b442974b53935d1edc7fd64eb21e047a839171b60405160405180910390a45b5050565b6000614b3e3061650a565b15905090565b60008373ffffffffffffffffffffffffffffffffffffffff1660cd60008573ffffffffffffffffffffffffffffffffffffffff1673ffffffffffffffffffffffffffffffffffffffff168152602001908152602001600020600084815260200190815260200160002060000160009054906101000a900473ffffffffffffffffffffffffffffffffffffffff1673ffffffffffffffffffffffffffffffffffffffff161490509392505050565b614bf9617002565b60cd60008473ffffffffffffffffffffffffffffffffffffffff1673ffffffffffffffffffffffffffffffffffffffff16815260200190815260200160002060008381526020019081526020016000206040518060600160405290816000820160009054906101000a900473ffffffffffffffffffffffffffffffffffffffff1673ffffffffffffffffffffffffffffffffffffffff1673ffffffffffffffffffffffffffffffffffffffff1681526020016000820160149054906101000a900460ff1660ff1660ff1681526020016001820154815250509050600073ffffffffffffffffffffffffffffffffffffffff16816000015173ffffffffffffffffffffffffffffffffffffffff161415614d125750614d35565b614d1c83836156df565b614d3381602001518260000151836040015161651d565b505b5050565b600060019054906101000a900460ff1680614d585750614d57614b33565b5b80614d6e575060008054906101000a900460ff16155b614dc3576040517f08c379a000000000000000000000000000000000000000000000000000000000815260040180806020018281038252602e8152602001806186d3602e913960400191505060405180910390fd5b60008060019054906101000a900460ff161590508015614e13576001600060016101000a81548160ff02191690831515021790555060016000806101000a81548160ff0219169083151502179055505b614e1b6165d7565b614e236166d5565b8015614e445760008060016101000a81548160ff0219169083151502179055505b50565b600060019054906101000a900460ff1680614e665750614e65614b33565b5b80614e7c575060008054906101000a900460ff16155b614ed1576040517f08c379a000000000000000000000000000000000000000000000000000000000815260040180806020018281038252602e8152602001806186d3602e913960400191505060405180910390fd5b60008060019054906101000a900460ff161590508015614f21576001600060016101000a81548160ff02191690831515021790555060016000806101000a81548160ff0219169083151502179055505b614f296165d7565b614f3161687c565b8015614f525760008060016101000a81548160ff0219169083151502179055505b50565b614f5f8282614a0b565b5050565b600082905060008173ffffffffffffffffffffffffffffffffffffffff16636352211e846040518263ffffffff1660e01b81526004018082815260200191505060206040518083038186803b158015614fbb57600080fd5b505afa158015614fcf573d6000803e3d6000fd5b505050506040513d6020811015614fe557600080fd5b810190808051906020019092919050505090508173ffffffffffffffffffffffffffffffffffffffff1663e985e9c582306040518363ffffffff1660e01b8152600401808373ffffffffffffffffffffffffffffffffffffffff1681526020018273ffffffffffffffffffffffffffffffffffffffff1681526020019250505060206040518083038186803b15801561507d57600080fd5b505afa158015615091573d6000803e3d6000fd5b505050506040513d60208110156150a757600080fd5b810190808051906020019092919050505061510d576040517f08c379a00000000000000000000000000000000000000000000000000000000081526004018080602001828103825260218152602001806187f46021913960400191505060405180910390fd5b50505050565b60008290503373ffffffffffffffffffffffffffffffffffffffff168173ffffffffffffffffffffffffffffffffffffffff16636352211e846040518263ffffffff1660e01b81526004018082815260200191505060206040518083038186803b15801561518057600080fd5b505afa158015615194573d6000803e3d6000fd5b505050506040513d60208110156151aa57600080fd5b810190808051906020019092919050505073ffffffffffffffffffffffffffffffffffffffff1614615244576040517f08c379a000000000000000000000000000000000000000000000000000000000815260040180806020018281038252601e8152602001807f73656e646572206d7573742062652074686520746f6b656e206f776e6572000081525060200191505060405180910390fd5b505050565b6040518060400160405280600073ffffffffffffffffffffffffffffffffffffffff168152602001600081525060cc60008473ffffffffffffffffffffffffffffffffffffffff1673ffffffffffffffffffffffffffffffffffffffff168152602001908152602001600020600083815260200190815260200160002060008201518160000160006101000a81548173ffffffffffffffffffffffffffffffffffffffff021916908373ffffffffffffffffffffffffffffffffffffffff160217905550602082015181600101559050505050565b600060019054906101000a900460ff168061533d575061533c614b33565b5b80615353575060008054906101000a900460ff16155b6153a8576040517f08c379a000000000000000000000000000000000000000000000000000000000815260040180806020018281038252602e8152602001806186d3602e913960400191505060405180910390fd5b60008060019054906101000a900460ff1615905080156153f8576001600060016101000a81548160ff02191690831515021790555060016000806101000a81548160ff0219169083151502179055505b61540061697a565b80156154215760008060016101000a81548160ff0219169083151502179055505b50565b60006154338360000183616b63565b60001c905092915050565b60008083905060cc60008573ffffffffffffffffffffffffffffffffffffffff1673ffffffffffffffffffffffffffffffffffffffff168152602001908152602001600020600084815260200190815260200160002060000160009054906101000a900473ffffffffffffffffffffffffffffffffffffffff1673ffffffffffffffffffffffffffffffffffffffff168173ffffffffffffffffffffffffffffffffffffffff16636352211e856040518263ffffffff1660e01b81526004018082815260200191505060206040518083038186803b15801561551f57600080fd5b505afa158015615533573d6000803e3d6000fd5b505050506040513d602081101561554957600080fd5b810190808051906020019092919050505073ffffffffffffffffffffffffffffffffffffffff161491505092915050565b60006155a2836000018373ffffffffffffffffffffffffffffffffffffffff1660001b616be6565b905092915050565b600080828401905083811015615628576040517f08c379a000000000000000000000000000000000000000000000000000000000815260040180806020018281038252601b8152602001807f536166654d6174683a206164646974696f6e206f766572666c6f77000000000081525060200191505060405180910390fd5b8091505092915050565b60008073ffffffffffffffffffffffffffffffffffffffff1660cd60008573ffffffffffffffffffffffffffffffffffffffff1673ffffffffffffffffffffffffffffffffffffffff168152602001908152602001600020600084815260200190815260200160002060000160009054906101000a900473ffffffffffffffffffffffffffffffffffffffff1673ffffffffffffffffffffffffffffffffffffffff161415905092915050565b6040518060600160405280600073ffffffffffffffffffffffffffffffffffffffff168152602001600060ff168152602001600081525060cd60008473ffffffffffffffffffffffffffffffffffffffff1673ffffffffffffffffffffffffffffffffffffffff168152602001908152602001600020600083815260200190815260200160002060008201518160000160006101000a81548173ffffffffffffffffffffffffffffffffffffffff021916908373ffffffffffffffffffffffffffffffffffffffff16021790555060208201518160000160146101000a81548160ff021916908360ff160217905550604082015181600101559050505050565b6000819050919050565b60648760ff161115615846576040517f08c379a00000000000000000000000000000000000000000000000000000000081526004018080602001828103825260328152602001806186716032913960400191505060405180910390fd5b60646158618660ff168860ff166155aa90919063ffffffff16565b11156158b8576040517f08c379a00000000000000000000000000000000000000000000000000000000081526004018080602001828103825260288152602001806187016028913960400191505060405180910390fd5b600073ffffffffffffffffffffffffffffffffffffffff168473ffffffffffffffffffffffffffffffffffffffff16141580156159225750600073ffffffffffffffffffffffffffffffffffffffff168173ffffffffffffffffffffffffffffffffffffffff1614155b801561595b5750600073ffffffffffffffffffffffffffffffffffffffff168373ffffffffffffffffffffffffffffffffffffffff1614155b80156159945750600073ffffffffffffffffffffffffffffffffffffffff168273ffffffffffffffffffffffffffffffffffffffff1614155b6159e9576040517f08c379a00000000000000000000000000000000000000000000000000000000081526004018080602001828103825260298152602001806184206029913960400191505060405180910390fd5b6159f1617079565b6159fb8a89616c09565b81600060048110615a0857fe5b602002018181525050615a1c898b89616c3c565b81600160048110615a2957fe5b602002018181525050615a3d898b88616c61565b81600260048110615a4a57fe5b602002018181525050615a9a81600260048110615a6357fe5b6020020151615a8c83600160048110615a7857fe5b60200201518d616c8690919063ffffffff16565b616c8690919063ffffffff16565b81600360048110615aa757fe5b602002018181525050600081600060048110615abf57fe5b60200201511115615b3b57615ae58482600060048110615adb57fe5b6020020151616d09565b80600060048110615af257fe5b60200201518473ffffffffffffffffffffffffffffffffffffffff167fa9fc7bb5e4b4d7971ef0c84708e14f2f199e11a9715d4886572e0304e8c73fe860405160405180910390a35b600081600160048110615b4a57fe5b60200201511115615b7157615b708382600160048110615b6657fe5b6020020151616d09565b5b600081600260048110615b8057fe5b60200201511115615c0657615ba68282600260048110615b9c57fe5b6020020151616d09565b8173ffffffffffffffffffffffffffffffffffffffff167f8417e0b8385f07a54787925d3a4071ef159568b5572174d7a7495c3eca0090d182600260048110615beb57fe5b60200201516040518082815260200191505060405180910390a25b600081600360048110615c1557fe5b60200201511115615c9b57615c3b8582600360048110615c3157fe5b6020020151616d09565b8473ffffffffffffffffffffffffffffffffffffffff167fafc216cffbed749a53a4b413bd36b80b147454a28fd3115902e58a501ffba38282600360048110615c8057fe5b60200201516040518082815260200191505060405180910390a25b50505050505050505050565b60648760ff161115615d04576040517f08c379a00000000000000000000000000000000000000000000000000000000081526004018080602001828103825260328152602001806186716032913960400191505060405180910390fd5b6064615d1f8660ff168860ff166155aa90919063ffffffff16565b1115615d76576040517f08c379a00000000000000000000000000000000000000000000000000000000081526004018080602001828103825260288152602001806187016028913960400191505060405180910390fd5b600073ffffffffffffffffffffffffffffffffffffffff168473ffffffffffffffffffffffffffffffffffffffff1614158015615de05750600073ffffffffffffffffffffffffffffffffffffffff168173ffffffffffffffffffffffffffffffffffffffff1614155b8015615e195750600073ffffffffffffffffffffffffffffffffffffffff168373ffffffffffffffffffffffffffffffffffffffff1614155b8015615e525750600073ffffffffffffffffffffffffffffffffffffffff168273ffffffffffffffffffffffffffffffffffffffff1614155b615ea7576040517f08c379a00000000000000000000000000000000000000000000000000000000081526004018080602001828103825260298152602001806184206029913960400191505060405180910390fd5b615eaf617079565b615eb98a89616c09565b81600060048110615ec657fe5b602002018181525050615eda898b89616c3c565b81600160048110615ee757fe5b602002018181525050615efb898b88616d7a565b81600260048110615f0857fe5b602002018181525050615f3581600260048110615f2157fe5b60200201518b616c8690919063ffffffff16565b81600360048110615f4257fe5b602002018181525050600081600060048110615f5a57fe5b60200201511115615fd657615f808482600060048110615f7657fe5b6020020151616d09565b80600060048110615f8d57fe5b60200201518473ffffffffffffffffffffffffffffffffffffffff167f30959225fb4a138d6a38478ac258d8a7f8dccfb908b036b9f12afe9d2f1ebcb760405160405180910390a35b600081600160048110615fe557fe5b6020020151111561600c5761600b838260016004811061600157fe5b6020020151616d09565b5b60008160026004811061601b57fe5b602002015111156160a157616041828260026004811061603757fe5b6020020151616d09565b8173ffffffffffffffffffffffffffffffffffffffff167fb7b5ff0f53e5ef824dff7f1fcf06b4a5067ddb2a2d387c95a606397692fea0938260026004811061608657fe5b60200201516040518082815260200191505060405180910390a25b6000816003600481106160b057fe5b60200201511115616136576160d685826003600481106160cc57fe5b6020020151616d09565b8473ffffffffffffffffffffffffffffffffffffffff167ff5a5ff0237e3f4ba0a79c87a698d741c35373f699f010ed55ff74b202bcd22088260036004811061611b57fe5b60200201516040518082815260200191505060405180910390a25b50505050505050505050565b60008083141561615557600090506161c2565b600082840290508284828161616657fe5b04146161bd576040517f08c379a00000000000000000000000000000000000000000000000000000000081526004018080602001828103825260218152602001806187d36021913960400191505060405180910390fd5b809150505b92915050565b600080821161623f576040517f08c379a000000000000000000000000000000000000000000000000000000000815260040180806020018281038252601a8152602001807f536166654d6174683a206469766973696f6e206279207a65726f00000000000081525060200191505060405180910390fd5b81838161624857fe5b04905092915050565b600073ffffffffffffffffffffffffffffffffffffffff168373ffffffffffffffffffffffffffffffffffffffff1614156162f4576040517f08c379a000000000000000000000000000000000000000000000000000000000815260040180806020018281038252601b8152602001807f4269646465722063616e6e6f74206265203020616464726573732e000000000081525060200191505060405180910390fd5b60405180606001604052808473ffffffffffffffffffffffffffffffffffffffff16815260200160ca60009054906101000a900473ffffffffffffffffffffffffffffffffffffffff1673ffffffffffffffffffffffffffffffffffffffff1663834759216040518163ffffffff1660e01b815260040160206040518083038186803b15801561638357600080fd5b505afa158015616397573d6000803e3d6000fd5b505050506040513d60208110156163ad57600080fd5b810190808051906020019092919050505060ff1681526020018581525060cd60008473ffffffffffffffffffffffffffffffffffffffff1673ffffffffffffffffffffffffffffffffffffffff168152602001908152602001600020600083815260200190815260200160002060008201518160000160006101000a81548173ffffffffffffffffffffffffffffffffffffffff021916908373ffffffffffffffffffffffffffffffffffffffff16021790555060208201518160000160146101000a81548160ff021916908360ff1602179055506040820151816001015590505050505050565b60006164a382600001616d9e565b9050919050565b60006164d2836000018373ffffffffffffffffffffffffffffffffffffffff1660001b616daf565b905092915050565b6000616502836000018373ffffffffffffffffffffffffffffffffffffffff1660001b616e1f565b905092915050565b600080823b905060008111915050919050565b600073ffffffffffffffffffffffffffffffffffffffff168273ffffffffffffffffffffffffffffffffffffffff1614156165a3576040517f08c379a00000000000000000000000000000000000000000000000000000000081526004018080602001828103825260298152602001806184786029913960400191505060405180910390fd5b60008111156165d2576165d1826165cc6165bd8487616c09565b846155aa90919063ffffffff16565b616d09565b5b505050565b600060019054906101000a900460ff16806165f657506165f5614b33565b5b8061660c575060008054906101000a900460ff16155b616661576040517f08c379a000000000000000000000000000000000000000000000000000000000815260040180806020018281038252602e8152602001806186d3602e913960400191505060405180910390fd5b60008060019054906101000a900460ff1615905080156166b1576001600060016101000a81548160ff02191690831515021790555060016000806101000a81548160ff0219169083151502179055505b80156166d25760008060016101000a81548160ff0219169083151502179055505b50565b600060019054906101000a900460ff16806166f457506166f3614b33565b5b8061670a575060008054906101000a900460ff16155b61675f576040517f08c379a000000000000000000000000000000000000000000000000000000000815260040180806020018281038252602e8152602001806186d3602e913960400191505060405180910390fd5b60008060019054906101000a900460ff1615905080156167af576001600060016101000a81548160ff02191690831515021790555060016000806101000a81548160ff0219169083151502179055505b60006167b9614a03565b905080603360006101000a81548173ffffffffffffffffffffffffffffffffffffffff021916908373ffffffffffffffffffffffffffffffffffffffff1602179055508073ffffffffffffffffffffffffffffffffffffffff16600073ffffffffffffffffffffffffffffffffffffffff167f8be0079c531659141344cd1fd0a4f28419497f9722a3daafe3b4186f6b6457e060405160405180910390a35080156168795760008060016101000a81548160ff0219169083151502179055505b50565b600060019054906101000a900460ff168061689b575061689a614b33565b5b806168b1575060008054906101000a900460ff16155b616906576040517f08c379a000000000000000000000000000000000000000000000000000000000815260040180806020018281038252602e8152602001806186d3602e913960400191505060405180910390fd5b60008060019054906101000a900460ff161590508015616956576001600060016101000a81548160ff02191690831515021790555060016000806101000a81548160ff0219169083151502179055505b80156169775760008060016101000a81548160ff0219169083151502179055505b50565b600060019054906101000a900460ff16806169995750616998614b33565b5b806169af575060008054906101000a900460ff16155b616a04576040517f08c379a000000000000000000000000000000000000000000000000000000000815260040180806020018281038252602e8152602001806186d3602e913960400191505060405180910390fd5b60008060019054906101000a900460ff161590508015616a54576001600060016101000a81548160ff02191690831515021790555060016000806101000a81548160ff0219169083151502179055505b604051616a609061709b565b604051809103906000f080158015616a7c573d6000803e3d6000fd5b50609860006101000a81548173ffffffffffffffffffffffffffffffffffffffff021916908373ffffffffffffffffffffffffffffffffffffffff160217905550609860009054906101000a900473ffffffffffffffffffffffffffffffffffffffff1673ffffffffffffffffffffffffffffffffffffffff16638129fc1c6040518163ffffffff1660e01b8152600401600060405180830381600087803b158015616b2757600080fd5b505af1158015616b3b573d6000803e3d6000fd5b505050508015616b605760008060016101000a81548160ff0219169083151502179055505b50565b600081836000018054905011616bc4576040517f08c379a00000000000000000000000000000000000000000000000000000000081526004018080602001828103825260228152602001806183dc6022913960400191505060405180910390fd5b826000018281548110616bd357fe5b9060005260206000200154905092915050565b600080836001016000848152602001908152602001600020541415905092915050565b6000616c346064616c268460ff168661614290919063ffffffff16565b6161c890919063ffffffff16565b905092915050565b60008315616c4d5760009050616c5a565b616c578383616c09565b90505b9392505050565b60008315616c7a57616c738383616c09565b9050616c7f565b600090505b9392505050565b600082821115616cfe576040517f08c379a000000000000000000000000000000000000000000000000000000000815260040180806020018281038252601e8152602001807f536166654d6174683a207375627472616374696f6e206f766572666c6f77000081525060200191505060405180910390fd5b818303905092915050565b6000616d158383616f07565b905080616d2757616d268383616f5a565b5b8273ffffffffffffffffffffffffffffffffffffffff167fd88d14434dd4c47d8cd227a931f475ddfaa46a219994f6c5094bd04d940c3c1b836040518082815260200191505060405180910390a2505050565b600083616d9257616d8b8383616c09565b9050616d97565b600090505b9392505050565b600081600001805490509050919050565b6000616dbb8383616be6565b616e14578260000182908060018154018082558091505060019003906000526020600020016000909190919091505582600001805490508360010160008481526020019081526020016000208190555060019050616e19565b600090505b92915050565b60008083600101600084815260200190815260200160002054905060008114616efb5760006001820390506000600186600001805490500390506000866000018281548110616e6a57fe5b9060005260206000200154905080876000018481548110616e8757fe5b9060005260206000200181905550600183018760010160008381526020019081526020016000208190555086600001805480616ebf57fe5b60019003818190600052602060002001600090559055866001016000878152602001908152602001600020600090556001945050505050616f01565b60009150505b92915050565b60008273ffffffffffffffffffffffffffffffffffffffff166108fc839081150290604051600060405180830381858888f19350505050158015616f4f573d6000803e3d6000fd5b506001905092915050565b609860009054906101000a900473ffffffffffffffffffffffffffffffffffffffff1673ffffffffffffffffffffffffffffffffffffffff1663f340fa0182846040518363ffffffff1660e01b8152600401808273ffffffffffffffffffffffffffffffffffffffff1681526020019150506000604051808303818588803b158015616fe557600080fd5b505af1158015616ff9573d6000803e3d6000fd5b50505050505050565b6040518060600160405280600073ffffffffffffffffffffffffffffffffffffffff168152602001600060ff168152602001600081525090565b6040518060400160405280600073ffffffffffffffffffffffffffffffffffffffff168152602001600081525090565b610100806170a983390190565b6040518060800160405280600490602082028036833780820191505090505090565b6111e6806171a98339019056fe608060405234801561001057600080fd5b5060e18061001f6000396000f3fe608060405260043610601c5760003560e01c80637d286e48146021575b600080fd5b606060048036036020811015603557600080fd5b81019080803573ffffffffffffffffffffffffffffffffffffffff1690602001909291905050506062565b005b8073ffffffffffffffffffffffffffffffffffffffff166108fc349081150290604051600060405180830381858888f1935050505015801560a7573d6000803e3d6000fd5b505056fea2646970667358221220aea19f6a0e9cb4b64b9698e0d4f9c18b9652a81015203a30f0b5bebd60e729a464736f6c634300060c0033608060405234801561001057600080fd5b506111c6806100206000396000f3fe6080604052600436106100705760003560e01c80638da5cb5b1161004e5780638da5cb5b146100f4578063e3a9db1a14610135578063f2fde38b1461019a578063f340fa01146101eb57610070565b806351cff8d914610075578063715018a6146100c65780638129fc1c146100dd575b600080fd5b34801561008157600080fd5b506100c46004803603602081101561009857600080fd5b81019080803573ffffffffffffffffffffffffffffffffffffffff16906020019092919050505061022f565b005b3480156100d257600080fd5b506100db6103e2565b005b3480156100e957600080fd5b506100f2610552565b005b34801561010057600080fd5b50610109610658565b604051808273ffffffffffffffffffffffffffffffffffffffff16815260200191505060405180910390f35b34801561014157600080fd5b506101846004803603602081101561015857600080fd5b81019080803573ffffffffffffffffffffffffffffffffffffffff169060200190929190505050610682565b6040518082815260200191505060405180910390f35b3480156101a657600080fd5b506101e9600480360360208110156101bd57600080fd5b81019080803573ffffffffffffffffffffffffffffffffffffffff1690602001909291905050506106cb565b005b61022d6004803603602081101561020157600080fd5b81019080803573ffffffffffffffffffffffffffffffffffffffff1690602001909291905050506108c0565b005b610237610a5b565b73ffffffffffffffffffffffffffffffffffffffff16610255610658565b73ffffffffffffffffffffffffffffffffffffffff16146102de576040517f08c379a00000000000000000000000000000000000000000000000000000000081526004018080602001828103825260208152602001807f4f776e61626c653a2063616c6c6572206973206e6f7420746865206f776e657281525060200191505060405180910390fd5b6000606560008373ffffffffffffffffffffffffffffffffffffffff1673ffffffffffffffffffffffffffffffffffffffff1681526020019081526020016000205490506000606560008473ffffffffffffffffffffffffffffffffffffffff1673ffffffffffffffffffffffffffffffffffffffff16815260200190815260200160002081905550610390818373ffffffffffffffffffffffffffffffffffffffff16610a6390919063ffffffff16565b8173ffffffffffffffffffffffffffffffffffffffff167f7084f5476618d8e60b11ef0d7d3f06914655adb8793e28ff7f018d4c76d505d5826040518082815260200191505060405180910390a25050565b6103ea610a5b565b73ffffffffffffffffffffffffffffffffffffffff16610408610658565b73ffffffffffffffffffffffffffffffffffffffff1614610491576040517f08c379a00000000000000000000000000000000000000000000000000000000081526004018080602001828103825260208152602001807f4f776e61626c653a2063616c6c6572206973206e6f7420746865206f776e657281525060200191505060405180910390fd5b600073ffffffffffffffffffffffffffffffffffffffff16603360009054906101000a900473ffffffffffffffffffffffffffffffffffffffff1673ffffffffffffffffffffffffffffffffffffffff167f8be0079c531659141344cd1fd0a4f28419497f9722a3daafe3b4186f6b6457e060405160405180910390a36000603360006101000a81548173ffffffffffffffffffffffffffffffffffffffff021916908373ffffffffffffffffffffffffffffffffffffffff160217905550565b600060019054906101000a900460ff16806105715750610570610b9d565b5b80610587575060008054906101000a900460ff16155b6105dc576040517f08c379a000000000000000000000000000000000000000000000000000000000815260040180806020018281038252602e815260200180611163602e913960400191505060405180910390fd5b60008060019054906101000a900460ff16159050801561062c576001600060016101000a81548160ff02191690831515021790555060016000806101000a81548160ff0219169083151502179055505b610634610bae565b80156106555760008060016101000a81548160ff0219169083151502179055505b50565b6000603360009054906101000a900473ffffffffffffffffffffffffffffffffffffffff16905090565b6000606560008373ffffffffffffffffffffffffffffffffffffffff1673ffffffffffffffffffffffffffffffffffffffff168152602001908152602001600020549050919050565b6106d3610a5b565b73ffffffffffffffffffffffffffffffffffffffff166106f1610658565b73ffffffffffffffffffffffffffffffffffffffff161461077a576040517f08c379a00000000000000000000000000000000000000000000000000000000081526004018080602001828103825260208152602001807f4f776e61626c653a2063616c6c6572206973206e6f7420746865206f776e657281525060200191505060405180910390fd5b600073ffffffffffffffffffffffffffffffffffffffff168173ffffffffffffffffffffffffffffffffffffffff161415610800576040517f08c379a00000000000000000000000000000000000000000000000000000000081526004018080602001828103825260268152602001806111036026913960400191505060405180910390fd5b8073ffffffffffffffffffffffffffffffffffffffff16603360009054906101000a900473ffffffffffffffffffffffffffffffffffffffff1673ffffffffffffffffffffffffffffffffffffffff167f8be0079c531659141344cd1fd0a4f28419497f9722a3daafe3b4186f6b6457e060405160405180910390a380603360006101000a81548173ffffffffffffffffffffffffffffffffffffffff021916908373ffffffffffffffffffffffffffffffffffffffff16021790555050565b6108c8610a5b565b73ffffffffffffffffffffffffffffffffffffffff166108e6610658565b73ffffffffffffffffffffffffffffffffffffffff161461096f576040517f08c379a00000000000000000000000000000000000000000000000000000000081526004018080602001828103825260208152602001807f4f776e61626c653a2063616c6c6572206973206e6f7420746865206f776e657281525060200191505060405180910390fd5b60003490506109c681606560008573ffffffffffffffffffffffffffffffffffffffff1673ffffffffffffffffffffffffffffffffffffffff16815260200190815260200160002054610cc490919063ffffffff16565b606560008473ffffffffffffffffffffffffffffffffffffffff1673ffffffffffffffffffffffffffffffffffffffff168152602001908152602001600020819055508173ffffffffffffffffffffffffffffffffffffffff167f2da466a7b24304f47e87fa2e1e5a81b9831ce54fec19055ce277ca2f39ba42c4826040518082815260200191505060405180910390a25050565b600033905090565b80471015610ad9576040517f08c379a000000000000000000000000000000000000000000000000000000000815260040180806020018281038252601d8152602001807f416464726573733a20696e73756666696369656e742062616c616e636500000081525060200191505060405180910390fd5b60008273ffffffffffffffffffffffffffffffffffffffff168260405180600001905060006040518083038185875af1925050503d8060008114610b39576040519150601f19603f3d011682016040523d82523d6000602084013e610b3e565b606091505b5050905080610b98576040517f08c379a000000000000000000000000000000000000000000000000000000000815260040180806020018281038252603a815260200180611129603a913960400191505060405180910390fd5b505050565b6000610ba830610d4c565b15905090565b600060019054906101000a900460ff1680610bcd5750610bcc610b9d565b5b80610be3575060008054906101000a900460ff16155b610c38576040517f08c379a000000000000000000000000000000000000000000000000000000000815260040180806020018281038252602e815260200180611163602e913960400191505060405180910390fd5b60008060019054906101000a900460ff161590508015610c88576001600060016101000a81548160ff02191690831515021790555060016000806101000a81548160ff0219169083151502179055505b610c90610d5f565b610c98610e5d565b610ca0611004565b8015610cc15760008060016101000a81548160ff0219169083151502179055505b50565b600080828401905083811015610d42576040517f08c379a000000000000000000000000000000000000000000000000000000000815260040180806020018281038252601b8152602001807f536166654d6174683a206164646974696f6e206f766572666c6f77000000000081525060200191505060405180910390fd5b8091505092915050565b600080823b905060008111915050919050565b600060019054906101000a900460ff1680610d7e5750610d7d610b9d565b5b80610d94575060008054906101000a900460ff16155b610de9576040517f08c379a000000000000000000000000000000000000000000000000000000000815260040180806020018281038252602e815260200180611163602e913960400191505060405180910390fd5b60008060019054906101000a900460ff161590508015610e39576001600060016101000a81548160ff02191690831515021790555060016000806101000a81548160ff0219169083151502179055505b8015610e5a5760008060016101000a81548160ff0219169083151502179055505b50565b600060019054906101000a900460ff1680610e7c5750610e7b610b9d565b5b80610e92575060008054906101000a900460ff16155b610ee7576040517f08c379a000000000000000000000000000000000000000000000000000000000815260040180806020018281038252602e815260200180611163602e913960400191505060405180910390fd5b60008060019054906101000a900460ff161590508015610f37576001600060016101000a81548160ff02191690831515021790555060016000806101000a81548160ff0219169083151502179055505b6000610f41610a5b565b905080603360006101000a81548173ffffffffffffffffffffffffffffffffffffffff021916908373ffffffffffffffffffffffffffffffffffffffff1602179055508073ffffffffffffffffffffffffffffffffffffffff16600073ffffffffffffffffffffffffffffffffffffffff167f8be0079c531659141344cd1fd0a4f28419497f9722a3daafe3b4186f6b6457e060405160405180910390a35080156110015760008060016101000a81548160ff0219169083151502179055505b50565b600060019054906101000a900460ff16806110235750611022610b9d565b5b80611039575060008054906101000a900460ff16155b61108e576040517f08c379a000000000000000000000000000000000000000000000000000000000815260040180806020018281038252602e815260200180611163602e913960400191505060405180910390fd5b60008060019054906101000a900460ff1615905080156110de576001600060016101000a81548160ff02191690831515021790555060016000806101000a81548160ff0219169083151502179055505b80156110ff5760008060016101000a81548160ff0219169083151502179055505b5056fe4f776e61626c653a206e6577206f776e657220697320746865207a65726f2061646472657373416464726573733a20756e61626c6520746f2073656e642076616c75652c20726563697069656e74206d61792068617665207265766572746564496e697469616c697a61626c653a20636f6e747261637420697320616c726561647920696e697469616c697a6564a2646970667358221220aa14e0debf5e30504e73a4c337c930e63a8e5048b7d863e29c86505f3089d55864736f6c634300060c00337365744945524337323143726561746f72526f79616c74793a3a43616e6e6f742068617665206e756c6c206164647265737320666f72205f6945524337323143726561746f72526f79616c7479456e756d657261626c655365743a20696e646578206f7574206f6620626f756e6473596f7520617265206e6f7420616c6c6f77656420746f20636f6c6c656374204172747061796f75743a3a6e6f207061796565732063616e20626520746865207a65726f2061646472657373416363657373436f6e74726f6c3a2073656e646572206d75737420626520616e2061646d696e20746f206772616e74726566756e643a3a6e6f207061796565732063616e20626520746865207a65726f2061646472657373736166654275793a3a507572636861736520616d6f756e74206d75737420657175616c20657870656374656420616d6f756e744f776e61626c653a206e6577206f776e657220697320746865207a65726f20616464726573736275793a3a546f6b656e7320707269636564206174203020617265206e6f7420666f722073616c652e6269643a3a4d7573742070757263686173652074686520746f6b656e20666f722074686520636f72726563742070726963652e6275793a3a43757272656e7420746f6b656e206f776e6572206d7573742062652074686520706572736f6e20746f206861766520746865206c61746573742070726963652e736166654163636570744269643a3a42696420616d6f756e74206d75737420657175616c20657870656374656420616d6f756e746163636570744269643a3a43616e6e6f7420616363657074206120626964207768656e207468657265206973206e6f6e652e63616e63656c4269643a3a43616e6e6f742063616e63656c2061206269642069662073656e646572206861736e2774206d616465206f6e652e6275793a3a4d7573742070757263686173652074686520746f6b656e20666f722074686520636f727265637420707269636528627579297061796f75743a3a6d61726b6574706c6163652070657263656e746167652063616e6e6f742062652061626f766520313030416363657373436f6e74726f6c3a2073656e646572206d75737420626520616e2061646d696e20746f207265766f6b65496e697469616c697a61626c653a20636f6e747261637420697320616c726561647920696e697469616c697a65647061796f75743a3a70657263656e74616765732063616e6e6f7420676f206265796f6e64203130307365744d61726b6574706c61636553657474696e67733a3a43616e6e6f742068617665206e756c6c206164647265737320666f72205f694d61726b657453657474696e6773636f6e6669726d546f6b656e427941646d696e3a20746f6b656e206e6f7420657869737473636f6e7374727563746f723a3a43616e6e6f742068617665206e756c6c206164647265737320666f72205f6945524337323143726561746f72526f79616c7479536166654d6174683a206d756c7469706c69636174696f6e206f766572666c6f776f776e6572206d757374206861766520617070726f76656420636f6e7472616374636f6e7374727563746f723a3a43616e6e6f742068617665206e756c6c206164647265737320666f72205f694d61726b657453657474696e6773546f6b656e206e6f7420636f6e6669726d65642062792061646d696e20746f2074726164656269643a3a4d75737420706c6163652068696768657220626964207468616e206578697374696e6720626964202b206d696e696d756d2070657263656e746167652e416363657373436f6e74726f6c3a2063616e206f6e6c792072656e6f756e636520726f6c657320666f722073656c66a2646970667358221220833fdc2e952ee6b7502cebf9870ceed1161831a27778bf245c050ec79e6540d764736f6c634300060c0033",
  "immutableReferences": {},
  "source": "// SPDX-License-Identifier: MIT\npragma solidity 0.6.12;\n\nimport \"@openzeppelin/contracts-upgradeable/token/ERC721/IERC721Upgradeable.sol\";\nimport '@openzeppelin/contracts-upgradeable/math/SafeMathUpgradeable.sol';\nimport '@openzeppelin/contracts-upgradeable/access/OwnableUpgradeable.sol';\nimport '@openzeppelin/contracts-upgradeable/access/AccessControlUpgradeable.sol';\nimport '@openzeppelin/contracts-upgradeable/proxy/Initializable.sol';\n// import \"https://github.com/OpenZeppelin/openzeppelin-contracts-upgradeable/blob/release-v3.3/contracts/token/ERC721/IERC721Upgradeable.sol\";\n// import 'https://github.com/OpenZeppelin/openzeppelin-contracts-upgradeable/blob/release-v3.3/contracts/math/SafeMathUpgradeable.sol';\n// import 'https://github.com/OpenZeppelin/openzeppelin-contracts-upgradeable/blob/release-v3.3/contracts/access/OwnableUpgradeable.sol';\n// import 'https://github.com/OpenZeppelin/openzeppelin-contracts-upgradeable/blob/release-v3.3/contracts/access/AccessControlUpgradeable.sol';\n// import 'https://github.com/OpenZeppelin/openzeppelin-contracts-upgradeable/blob/release-v3.3/contracts/proxy/Initializable.sol';\n\n\nimport \"./IERC721CreatorRoyalty.sol\";\nimport \"./IMarketplaceSettings.sol\";\nimport \"./Payments.sol\";\n\n\ncontract ChimeraMarketAuctionV2 is Initializable, OwnableUpgradeable, AccessControlUpgradeable ,Payments {\n    using SafeMathUpgradeable for uint256;\n\n    /////////////////////////////////////////////////////////////////////////\n    // Structs\n    /////////////////////////////////////////////////////////////////////////\n\n    // The active bid for a given token, contains the bidder, the marketplace fee at the time of the bid, and the amount of wei placed on the token\n    struct ActiveBid {\n        address payable bidder;\n        uint8 marketplaceFee;\n        uint256 amount;\n    }\n\n    // The sale price for a given token containing the seller and the amount of wei to be sold for\n    struct SalePrice {\n        address payable seller;\n        uint256 amount;\n    }\n    \n    /////////////////////////////////////////////////////////////////////////\n    // Constants\n    /////////////////////////////////////////////////////////////////////////\n        \n    bytes32 public constant TOKEN_COLLECTOR_ROLE = \"TOKEN_COLLECTOR_ROLE\";\n    \n    /////////////////////////////////////////////////////////////////////////\n    // State Variables\n    /////////////////////////////////////////////////////////////////////////\n\n    // Marketplace Settings Interface\n    IMarketplaceSettings public iMarketplaceSettings;\n\n    // Creator Royalty Interface\n    IERC721CreatorRoyalty public iERC721CreatorRoyalty;\n\n    // Mapping from ERC721 contract to mapping of tokenId to sale price.\n    mapping(address => mapping(uint256 => SalePrice)) private tokenPrices;\n\n    // Mapping of ERC721 contract to mapping of token ID to the current bid amount.\n    mapping(address => mapping(uint256 => ActiveBid)) private tokenCurrentBids;\n\n    // A minimum increase in bid amount when out bidding someone.\n    uint8 public minimumBidIncreasePercentage; // 10 = 10%\n    \n\n        mapping(uint256 => bool) private TokenConfirmedByAdmin;\n    \n    function confirmTokenByAdmin(uint256 _tokenId, address _originContract) onlyOwner external{\n         IERC721Upgradeable erc721 = IERC721Upgradeable(_originContract);\n         address tokenOwner = erc721.ownerOf(_tokenId);\n         require(tokenOwner != address(0), \"confirmTokenByAdmin: token not exists\");\n         TokenConfirmedByAdmin[_tokenId]  = true;\n         \n         \n    }\n    function isTokenConfirmedByAdmin(uint256 _tokenId) public view returns(bool){\n        return TokenConfirmedByAdmin[_tokenId]; \n    }\n\n    /////////////////////////////////////////////////////////////////////////////\n    // Events\n    /////////////////////////////////////////////////////////////////////////////\n    event Sold(\n        address indexed _originContract,\n        address indexed _buyer,\n        address indexed _seller,\n        uint256 _amount,\n        uint256 _tokenId\n    );\n\n    event SetSalePrice(\n        address indexed _originContract,\n        uint256 _amount,\n        uint256 _tokenId\n    );\n\n    event Bid(\n        address indexed _originContract,\n        address indexed _bidder,\n        uint256 _amount,\n        uint256 _tokenId\n    );\n\n    event AcceptBid(\n        address indexed _originContract,\n        address indexed _bidder,\n        address indexed _seller,\n        uint256 _amount,\n        uint256 _tokenId\n    );\n\n    event CancelBid(\n        address indexed _originContract,\n        address indexed _bidder,\n        uint256 _amount,\n        uint256 _tokenId\n    );\n    event collectorRoleGrantedTo(\n        address _collector\n        );\n        \n    event collectorRoleRevokedTo(\n        address _collector\n        );\n    /////////////////////////////////////////////////////////////////////////\n    // initialize\n    /////////////////////////////////////////////////////////////////////////\n    /**\n     * @dev Initializes the contract setting the market settings and creator royalty interfaces.\n     * @param _iMarketSettings address to set as iMarketplaceSettings.\n     * @param _iERC721CreatorRoyalty address to set as iERC721CreatorRoyalty.\n     */\n    function initialize(address _iMarketSettings, address _iERC721CreatorRoyalty) public initializer {\n        require(\n        _iMarketSettings != address(0),\n        \"constructor::Cannot have null address for _iMarketSettings\"\n        );\n\n        require(\n            _iERC721CreatorRoyalty != address(0),\n            \"constructor::Cannot have null address for _iERC721CreatorRoyalty\"\n        );\n        __Ownable_init();\n        __AccessControl_init();\n        Payments.initializePayment();\n        \n        // Grant the contract deployer the default admin role: it will be able\n        // to grant and revoke any roles\n        _setupRole(AccessControlUpgradeable.DEFAULT_ADMIN_ROLE, owner());\n        // Set iMarketSettings\n        iMarketplaceSettings = IMarketplaceSettings(_iMarketSettings);\n\n        // Set iERC721CreatorRoyalty\n        iERC721CreatorRoyalty = IERC721CreatorRoyalty(_iERC721CreatorRoyalty);\n        \n        minimumBidIncreasePercentage = 10;\n    }\n    \n    //Grant Role to Collectors\n    \n    function grantCollectorRole(address _collector) onlyOwner private {\n     \n        grantRole(TOKEN_COLLECTOR_ROLE, _collector);\n        \n        emit collectorRoleGrantedTo(_collector);\n    }\n    \n    //revoke roles\n    function revokeCollectorRole(address _collector) onlyOwner private{\n        revokeRole(TOKEN_COLLECTOR_ROLE, _collector);\n        \n        emit collectorRoleRevokedTo(_collector);\n    }\n    \n    /////////////////////////////////////////////////////////////////////////\n    // setIMarketplaceSettings\n    /////////////////////////////////////////////////////////////////////////\n    /**\n     * @dev Admin function to set the marketplace settings.\n     * Rules:\n     * - only owner\n     * - _address != address(0)\n     * @param _address address of the IMarketplaceSettings.\n     */\n    function setMarketplaceSettings(address _address) public onlyOwner {\n        require(\n            _address != address(0),\n            \"setMarketplaceSettings::Cannot have null address for _iMarketSettings\"\n        );\n\n        iMarketplaceSettings = IMarketplaceSettings(_address);\n    }\n\n    /////////////////////////////////////////////////////////////////////////\n    // setIERC721CreatorRoyalty\n    /////////////////////////////////////////////////////////////////////////\n    /**\n     * @dev Admin function to set the IERC721CreatorRoyalty.\n     * Rules:\n     * - only owner\n     * - _address != address(0)\n     * @param _address address of the IERC721CreatorRoyalty.\n     */\n    function setIERC721CreatorRoyalty(address _address) public onlyOwner {\n        require(\n            _address != address(0),\n            \"setIERC721CreatorRoyalty::Cannot have null address for _iERC721CreatorRoyalty\"\n        );\n\n        iERC721CreatorRoyalty = IERC721CreatorRoyalty(_address);\n    }\n\n    /////////////////////////////////////////////////////////////////////////\n    // setMinimumBidIncreasePercentage\n    /////////////////////////////////////////////////////////////////////////\n    /**\n     * @dev Admin function to set the minimum bid increase percentage.\n     * Rules:\n     * - only owner\n     * @param _percentage uint8 to set as the new percentage.\n     */\n    function setMinimumBidIncreasePercentage(uint8 _percentage)\n        public\n        onlyOwner\n    {\n        minimumBidIncreasePercentage = _percentage;\n    }\n\n    /////////////////////////////////////////////////////////////////////////\n    // Modifiers (as functions)\n    /////////////////////////////////////////////////////////////////////////\n    /**\n     * @dev Checks that the token owner is approved for the ERC721Market\n     * @param _originContract address of the contract storing the token.\n     * @param _tokenId uint256 ID of the token\n     */\n    function ownerMustHaveMarketplaceApproved(\n        address _originContract,\n        uint256 _tokenId\n    ) internal view {\n        IERC721Upgradeable erc721 = IERC721Upgradeable(_originContract);\n        address owner = erc721.ownerOf(_tokenId);\n        require(\n            erc721.isApprovedForAll(owner, address(this)),\n            \"owner must have approved contract\"\n        );\n    }\n\n    /**\n     * @dev Checks that the token is owned by the sender\n     * @param _originContract address of the contract storing the token.\n     * @param _tokenId uint256 ID of the token\n     */\n    function senderMustBeTokenOwner(address _originContract, uint256 _tokenId)\n        internal\n        view\n    {\n        IERC721Upgradeable erc721 = IERC721Upgradeable(_originContract);\n        require(\n            erc721.ownerOf(_tokenId) == msg.sender,\n            \"sender must be the token owner\"\n        );\n    }\n\n    /////////////////////////////////////////////////////////////////////////\n    // setSalePrice\n    /////////////////////////////////////////////////////////////////////////\n    /**\n     * @dev Set the token for sale. The owner of the token must be the sender and have the marketplace approved.\n     * @param _originContract address of the contract storing the token.\n     * @param _tokenId uint256 ID of the token\n     * @param _amount uint256 wei value that the item is for sale\n     */\n    function setSalePrice(\n        address _originContract,\n        uint256 _tokenId,\n        uint256 _amount\n    ) external {\n        \n        // The owner of the token must have the marketplace approved\n        ownerMustHaveMarketplaceApproved(_originContract, _tokenId);\n        \n        // The sender must be the token owner\n        senderMustBeTokenOwner(_originContract, _tokenId);\n        \n        require(isTokenConfirmedByAdmin(_tokenId) == true, \"Token not confirmed by admin to trade\");\n\n        if (_amount == 0) {\n            // Set not for sale and exit\n            _resetTokenPrice(_originContract, _tokenId);\n            emit SetSalePrice(_originContract, _amount, _tokenId);\n            return;\n        }\n\n        tokenPrices[_originContract][_tokenId] = SalePrice(msg.sender, _amount);\n        emit SetSalePrice(_originContract, _amount, _tokenId);\n    }\n    /////////////////////////////////////////////////////////////////////////\n    /**\n     * @dev Purchase the token with the expected amount. The current token owner must have the marketplace approved.\n     * @param _originContract address of the contract storing the token.\n\n    /////////////////////////////////////////////////////////////////////////\n    // safeBuy\n     * @param _tokenId uint256 ID of the token\n     * @param _amount uint256 wei amount expecting to purchase the token for.\n     */\n    function safeBuy(\n        address _originContract,\n        uint256 _tokenId,\n        uint256 _amount\n    ) external payable {\n        \n        // Make sure the tokenPrice is the expected amount\n        require(\n            tokenPrices[_originContract][_tokenId].amount == _amount,\n            \"safeBuy::Purchase amount must equal expected amount\"\n        );\n        buy(_originContract, _tokenId);\n    }\n\n/////////////////////////////////////////////////////////////////////////\n    // buy\n    /////////////////////////////////////////////////////////////////////////\n    /**\n     * @dev Purchases the token if it is for sale.\n     * @param _originContract address of the contract storing the token.\n     * @param _tokenId uint256 ID of the token.\n     */\n    function buy(address _originContract, uint256 _tokenId) public payable {\n        require(hasRole(TOKEN_COLLECTOR_ROLE, msg.sender), \"You are not allowed to collect Art\");\n        // The owner of the token must have the marketplace approved\n        ownerMustHaveMarketplaceApproved(_originContract, _tokenId);\n\n        // Check that the person who set the price still owns the token.\n        require(\n            _priceSetterStillOwnsTheToken(_originContract, _tokenId),\n            \"buy::Current token owner must be the person to have the latest price.\"\n        );\n\n        SalePrice memory sp = tokenPrices[_originContract][_tokenId];\n\n        // Check that token is for sale.\n        require(sp.amount > 0, \"buy::Tokens priced at 0 are not for sale.\");\n\n        // Check that enough ether was sent.\n        require(\n            tokenPriceFeeIncluded(_originContract, _tokenId) == msg.value,\n            \"buy::Must purchase the token for the correct price(buy)\"\n        );\n\n        // Get token contract details.\n        IERC721Upgradeable erc721 = IERC721Upgradeable(_originContract);\n        address tokenOwner = erc721.ownerOf(_tokenId);\n\n        // Wipe the token price.\n        _resetTokenPrice(_originContract, _tokenId);\n\n        // Transfer token.\n        erc721.safeTransferFrom(tokenOwner, msg.sender, _tokenId);\n\n        // if the buyer had an existing bid, return it\n        if (_addressHasBidOnToken(msg.sender, _originContract, _tokenId)) {\n            _refundBid(_originContract, _tokenId);\n        }\n        //Made 2 types of Payments in Payments.sol Primary and secondary\n        // Payout all parties.\n        address payable owner = _makePayable(owner());\n        if(!iMarketplaceSettings.hasERC721TokenSold(_originContract, _tokenId)){\n            Payments.payoutPrimary(\n            sp.amount,\n            !iMarketplaceSettings.hasERC721TokenSold(_originContract, _tokenId),\n            iMarketplaceSettings.getMarketplaceFeePercentage(),\n            iERC721CreatorRoyalty.getERC721TokenRoyaltyPercentage(\n                _originContract,\n                _tokenId\n            ),\n            iMarketplaceSettings.getERC721ContractPrimarySaleFeePercentage(\n                _originContract\n            ),\n            _makePayable(tokenOwner),\n            owner,\n            iERC721CreatorRoyalty.tokenCreator(_originContract, _tokenId),\n            owner\n        );\n\n        // Set token as sold\n        iMarketplaceSettings.markERC721Token(_originContract, _tokenId, true);\n\n        emit Sold(_originContract, msg.sender, tokenOwner, sp.amount, _tokenId);\n        }\n        else{\n            Payments.payoutSecondary(\n            sp.amount,\n            !iMarketplaceSettings.hasERC721TokenSold(_originContract, _tokenId),\n            iMarketplaceSettings.getMarketplaceFeePercentage(),\n            iERC721CreatorRoyalty.getERC721TokenRoyaltyPercentage(\n                _originContract,\n                _tokenId\n            ),\n            iMarketplaceSettings.getERC721ContractSecondarySaleFeePercentage(\n                _originContract\n            ),\n            _makePayable(tokenOwner),\n            owner,\n            iERC721CreatorRoyalty.tokenCreator(_originContract, _tokenId),\n            owner\n        );\n\n        // Set token as sold\n        iMarketplaceSettings.markERC721Token(_originContract, _tokenId, true);\n\n        emit Sold(_originContract, msg.sender, tokenOwner, sp.amount, _tokenId);\n        }\n        \n    }\n\n    /////////////////////////////////////////////////////////////////////////\n    // tokenPrice\n    /////////////////////////////////////////////////////////////////////////\n    /**\n     * @dev Gets the sale price of the token\n     * @param _originContract address of the contract storing the token.\n     * @param _tokenId uint256 ID of the token\n     * @return uint256 sale price of the token\n     */\n    function tokenPrice(address _originContract, uint256 _tokenId)\n        external\n        view\n        returns (uint256)\n    {\n        // The owner of the token must have the marketplace approved\n        ownerMustHaveMarketplaceApproved(_originContract, _tokenId); // TODO: Make sure to write test to verify that this returns 0 when it fails\n\n        if (_priceSetterStillOwnsTheToken(_originContract, _tokenId)) {\n            return tokenPrices[_originContract][_tokenId].amount;\n        }\n        return 0;\n    }\n\n    /////////////////////////////////////////////////////////////////////////\n    // tokenPriceFeeIncluded\n    /////////////////////////////////////////////////////////////////////////\n    /**\n     * @dev Gets the sale price of the token including the marketplace fee.\n     * @param _originContract address of the contract storing the token.\n     * @param _tokenId uint256 ID of the token\n     * @return uint256 sale price of the token including the fee.\n     */\n    function tokenPriceFeeIncluded(address _originContract, uint256 _tokenId)\n        public\n        view\n        returns (uint256)\n    {\n        // The owner of the token must have the marketplace approved\n        ownerMustHaveMarketplaceApproved(_originContract, _tokenId); // TODO: Make sure to write test to verify that this returns 0 when it fails\n\n        if (_priceSetterStillOwnsTheToken(_originContract, _tokenId)) {\n            return\n                tokenPrices[_originContract][_tokenId].amount.add(\n                    iMarketplaceSettings.calculateMarketplaceFee(\n                        tokenPrices[_originContract][_tokenId].amount\n                    )\n                );\n        }\n        return 0;\n    }\n\n    /////////////////////////////////////////////////////////////////////////\n    // bid\n    /////////////////////////////////////////////////////////////////////////\n    /**\n     * @dev Bids on the token, replacing the bid if the bid is higher than the current bid. You cannot bid on a token you already own.\n     * @param _newBidAmount uint256 value in wei to bid.\n     * @param _originContract address of the contract storing the token.\n     * @param _tokenId uint256 ID of the token\n     */\n    function bid(\n        uint256 _newBidAmount,\n        address _originContract,\n        uint256 _tokenId\n    ) external payable {\n        require(hasRole(TOKEN_COLLECTOR_ROLE, msg.sender), \"You are not allowed to collect Art\");\n        // Check that bid is greater than 0.\n        require(_newBidAmount > 0, \"bid::Cannot bid 0 Wei.\");\n\n        // Check that bid is higher than previous bid\n        uint256 currentBidAmount =\n            tokenCurrentBids[_originContract][_tokenId].amount;\n        require(\n            _newBidAmount > currentBidAmount &&\n                _newBidAmount >=\n                currentBidAmount.add(\n                    currentBidAmount.mul(minimumBidIncreasePercentage).div(100)\n                ),\n            \"bid::Must place higher bid than existing bid + minimum percentage.\"\n        );\n\n        // Check that enough ether was sent.\n        uint256 requiredCost =\n            _newBidAmount.add(\n                iMarketplaceSettings.calculateMarketplaceFee(_newBidAmount)\n            );\n        require(\n            requiredCost == msg.value,\n            \"bid::Must purchase the token for the correct price.\"\n        );\n\n        // Check that bidder is not owner.\n        IERC721Upgradeable erc721 = IERC721Upgradeable(_originContract);\n        address tokenOwner = erc721.ownerOf(_tokenId);\n        require(tokenOwner != msg.sender, \"bid::Bidder cannot be owner.\");\n\n        // Refund previous bidder.\n        _refundBid(_originContract, _tokenId);\n\n        // Set the new bid.\n        _setBid(_newBidAmount, msg.sender, _originContract, _tokenId);\n\n        emit Bid(_originContract, msg.sender, _newBidAmount, _tokenId);\n    }\n\n    /////////////////////////////////////////////////////////////////////////\n    // safeAcceptBid\n    /////////////////////////////////////////////////////////////////////////\n    /**\n     * @dev Accept the bid on the token with the expected bid amount.\n     * @param _originContract address of the contract storing the token.\n     * @param _tokenId uint256 ID of the token\n     * @param _amount uint256 wei amount of the bid\n     */\n    function safeAcceptBid(\n        address _originContract,\n        uint256 _tokenId,\n        uint256 _amount\n    ) external {\n        // Make sure accepting bid is the expected amount\n        require(\n            tokenCurrentBids[_originContract][_tokenId].amount == _amount,\n            \"safeAcceptBid::Bid amount must equal expected amount\"\n        );\n        acceptBid(_originContract, _tokenId);\n    }\n\n /////////////////////////////////////////////////////////////////////////\n    // acceptBid\n    /////////////////////////////////////////////////////////////////////////\n    /**\n     * @dev Accept the bid on the token.\n     * @param _originContract address of the contract storing the token.\n     * @param _tokenId uint256 ID of the token\n     */\n    function acceptBid(address _originContract, uint256 _tokenId) public {\n        // The owner of the token must have the marketplace approved\n        ownerMustHaveMarketplaceApproved(_originContract, _tokenId);\n\n        // The sender must be the token owner\n        senderMustBeTokenOwner(_originContract, _tokenId);\n\n        // Check that a bid exists.\n        require(\n            _tokenHasBid(_originContract, _tokenId),\n            \"acceptBid::Cannot accept a bid when there is none.\"\n        );\n\n        // Get current bid on token\n\n        ActiveBid memory currentBid =\n            tokenCurrentBids[_originContract][_tokenId];\n\n        // Wipe the token price and bid.\n        _resetTokenPrice(_originContract, _tokenId);\n        _resetBid(_originContract, _tokenId);\n\n        // Transfer token.\n        IERC721Upgradeable erc721 = IERC721Upgradeable(_originContract);\n        erc721.safeTransferFrom(msg.sender, currentBid.bidder, _tokenId);\n\n        // Payout all parties.\n        address payable owner = _makePayable(owner());\n        \n        if(!iMarketplaceSettings.hasERC721TokenSold(_originContract, _tokenId)){\n            \n        Payments.payoutPrimary(\n            currentBid.amount,\n            !iMarketplaceSettings.hasERC721TokenSold(_originContract, _tokenId),\n            iMarketplaceSettings.getMarketplaceFeePercentage(),\n            iERC721CreatorRoyalty.getERC721TokenRoyaltyPercentage(\n                _originContract,\n                _tokenId\n            ),\n            iMarketplaceSettings.getERC721ContractPrimarySaleFeePercentage(\n                _originContract\n            ),\n            msg.sender,\n            owner,\n            iERC721CreatorRoyalty.tokenCreator(_originContract, _tokenId),\n            owner\n        );\n\n        iMarketplaceSettings.markERC721Token(_originContract, _tokenId, true);\n\n        emit AcceptBid(\n            _originContract,\n            currentBid.bidder,\n            msg.sender,\n            currentBid.amount,\n            _tokenId\n        );\n            \n        }\n       else{\n            Payments.payoutSecondary(\n            currentBid.amount,\n            !iMarketplaceSettings.hasERC721TokenSold(_originContract, _tokenId),\n            iMarketplaceSettings.getMarketplaceFeePercentage(),\n            iERC721CreatorRoyalty.getERC721TokenRoyaltyPercentage(\n                _originContract,\n                _tokenId\n            ),\n            iMarketplaceSettings.getERC721ContractSecondarySaleFeePercentage(\n                _originContract\n            ),\n            msg.sender,\n            owner,\n            iERC721CreatorRoyalty.tokenCreator(_originContract, _tokenId),\n            owner\n        );\n\n        iMarketplaceSettings.markERC721Token(_originContract, _tokenId, true);\n\n        emit AcceptBid(\n            _originContract,\n            currentBid.bidder,\n            msg.sender,\n            currentBid.amount,\n            _tokenId\n        );\n       }\n    }\n    \n\n    /////////////////////////////////////////////////////////////////////////\n    // cancelBid\n    /////////////////////////////////////////////////////////////////////////\n    /**\n     * @dev Cancel the bid on the token.\n     * @param _originContract address of the contract storing the token.\n     * @param _tokenId uint256 ID of the token.\n     */\n    function cancelBid(address _originContract, uint256 _tokenId) external {\n        // Check that sender has a current bid.\n        require(\n            _addressHasBidOnToken(msg.sender, _originContract, _tokenId),\n            \"cancelBid::Cannot cancel a bid if sender hasn't made one.\"\n        );\n\n        // Refund the bidder.\n        _refundBid(_originContract, _tokenId);\n\n        emit CancelBid(\n            _originContract,\n            msg.sender,\n            tokenCurrentBids[_originContract][_tokenId].amount,\n            _tokenId\n        );\n    }\n\n    /////////////////////////////////////////////////////////////////////////\n    // currentBidDetailsOfToken\n    /////////////////////////////////////////////////////////////////////////\n    /**\n     * @dev Function to get current bid and bidder of a token.\n     * @param _originContract address of ERC721 contract.\n     * @param _tokenId uin256 id of the token.\n     */\n    function currentBidDetailsOfToken(address _originContract, uint256 _tokenId)\n        public\n        view\n        returns (uint256, address)\n    {\n        return (\n            tokenCurrentBids[_originContract][_tokenId].amount,\n            tokenCurrentBids[_originContract][_tokenId].bidder\n        );\n    }\n\n    /////////////////////////////////////////////////////////////////////////\n    // _priceSetterStillOwnsTheToken\n    /////////////////////////////////////////////////////////////////////////\n    /**\n     * @dev Checks that the token is owned by the same person who set the sale price.\n     * @param _originContract address of the contract storing the token.\n     * @param _tokenId uint256 id of the.\n     */\n    function _priceSetterStillOwnsTheToken(\n        address _originContract,\n        uint256 _tokenId\n    ) internal view returns (bool) {\n        IERC721Upgradeable erc721 = IERC721Upgradeable(_originContract);\n        return\n            erc721.ownerOf(_tokenId) ==\n            tokenPrices[_originContract][_tokenId].seller;\n    }\n\n    /////////////////////////////////////////////////////////////////////////\n    // _resetTokenPrice\n    /////////////////////////////////////////////////////////////////////////\n    /**\n     * @dev Internal function to set token price to 0 for a given contract.\n     * @param _originContract address of ERC721 contract.\n     * @param _tokenId uin256 id of the token.\n     */\n    function _resetTokenPrice(address _originContract, uint256 _tokenId)\n        internal\n    {\n        tokenPrices[_originContract][_tokenId] = SalePrice(address(0), 0);\n    }\n\n    /////////////////////////////////////////////////////////////////////////\n    // _addressHasBidOnToken\n    /////////////////////////////////////////////////////////////////////////\n    /**\n     * @dev Internal function see if the given address has an existing bid on a token.\n     * @param _bidder address that may have a current bid.\n     * @param _originContract address of ERC721 contract.\n     * @param _tokenId uin256 id of the token.\n     */\n    function _addressHasBidOnToken(\n        address _bidder,\n        address _originContract,\n        uint256 _tokenId\n    ) internal view returns (bool) {\n        return tokenCurrentBids[_originContract][_tokenId].bidder == _bidder;\n    }\n\n    /////////////////////////////////////////////////////////////////////////\n    // _tokenHasBid\n    /////////////////////////////////////////////////////////////////////////\n    /**\n     * @dev Internal function see if the token has an existing bid.\n     * @param _originContract address of ERC721 contract.\n     * @param _tokenId uin256 id of the token.\n     */\n    function _tokenHasBid(address _originContract, uint256 _tokenId)\n        internal\n        view\n        returns (bool)\n    {\n        return tokenCurrentBids[_originContract][_tokenId].bidder != address(0);\n    }\n\n    /////////////////////////////////////////////////////////////////////////\n    // _refundBid\n    /////////////////////////////////////////////////////////////////////////\n    /**\n     * @dev Internal function to return an existing bid on a token to the\n     *      bidder and reset bid.\n     * @param _originContract address of ERC721 contract.\n     * @param _tokenId uin256 id of the token.\n     */\n    function _refundBid(address _originContract, uint256 _tokenId) internal {\n        ActiveBid memory currentBid =\n            tokenCurrentBids[_originContract][_tokenId];\n        if (currentBid.bidder == address(0)) {\n            return;\n        }\n        _resetBid(_originContract, _tokenId);\n        Payments.refund(\n            currentBid.marketplaceFee,\n            currentBid.bidder,\n            currentBid.amount\n        );\n    }\n\n    /////////////////////////////////////////////////////////////////////////\n    // _resetBid\n    /////////////////////////////////////////////////////////////////////////\n    /**\n     * @dev Internal function to reset bid by setting bidder and bid to 0.\n     * @param _originContract address of ERC721 contract.\n     * @param _tokenId uin256 id of the token.\n     */\n    function _resetBid(address _originContract, uint256 _tokenId) internal {\n        tokenCurrentBids[_originContract][_tokenId] = ActiveBid(\n            address(0),\n            0,\n            0\n        );\n    }\n\n    /////////////////////////////////////////////////////////////////////////\n    // _setBid\n    /////////////////////////////////////////////////////////////////////////\n    /**\n     * @dev Internal function to set a bid.\n     * @param _amount uint256 value in wei to bid. Does not include marketplace fee.\n     * @param _bidder address of the bidder.\n     * @param _originContract address of ERC721 contract.\n     * @param _tokenId uin256 id of the token.\n     */\n    function _setBid(\n        uint256 _amount,\n        address payable _bidder,\n        address _originContract,\n        uint256 _tokenId\n    ) internal {\n        // Check bidder not 0 address.\n        require(_bidder != address(0), \"Bidder cannot be 0 address.\");\n\n        // Set bid.\n        tokenCurrentBids[_originContract][_tokenId] = ActiveBid(\n            _bidder,\n            iMarketplaceSettings.getMarketplaceFeePercentage(),\n            _amount\n        );\n    }\n\n    /////////////////////////////////////////////////////////////////////////\n    // _makePayable\n    /////////////////////////////////////////////////////////////////////////\n    /**\n     * @dev Internal function to set a bid.\n     * @param _address non-payable address\n     * @return payable address\n     */\n    function _makePayable(address _address)\n        internal\n        pure\n        returns (address payable)\n    {\n        return address(uint160(_address));\n    }\n}\n",
  "sourcePath": "/home/aliwisam/AliWisamData/OptimusFox/chimera/repo/TruffleChimera/contracts/ChimeraMarketAuctionV2.sol",
  "compiler": {
    "name": "solc",
    "version": "0.6.12+commit.27d51765.Emscripten.clang"
  },
  "schemaVersion": "3.4.0",
  "updatedAt": "2021-05-27T18:18:40.586Z",
  "devdoc": {
    "kind": "dev",
    "methods": {
      "acceptBid(address,uint256)": {
        "details": "Accept the bid on the token.",
        "params": {
          "_originContract": "address of the contract storing the token.",
          "_tokenId": "uint256 ID of the token"
        }
      },
      "bid(uint256,address,uint256)": {
        "details": "Bids on the token, replacing the bid if the bid is higher than the current bid. You cannot bid on a token you already own.",
        "params": {
          "_newBidAmount": "uint256 value in wei to bid.",
          "_originContract": "address of the contract storing the token.",
          "_tokenId": "uint256 ID of the token"
        }
      },
      "buy(address,uint256)": {
        "details": "Purchases the token if it is for sale.",
        "params": {
          "_originContract": "address of the contract storing the token.",
          "_tokenId": "uint256 ID of the token."
        }
      },
      "cancelBid(address,uint256)": {
        "details": "Cancel the bid on the token.",
        "params": {
          "_originContract": "address of the contract storing the token.",
          "_tokenId": "uint256 ID of the token."
        }
      },
      "currentBidDetailsOfToken(address,uint256)": {
        "details": "Function to get current bid and bidder of a token.",
        "params": {
          "_originContract": "address of ERC721 contract.",
          "_tokenId": "uin256 id of the token."
        }
      },
      "getRoleAdmin(bytes32)": {
        "details": "Returns the admin role that controls `role`. See {grantRole} and {revokeRole}. To change a role's admin, use {_setRoleAdmin}."
      },
      "getRoleMember(bytes32,uint256)": {
        "details": "Returns one of the accounts that have `role`. `index` must be a value between 0 and {getRoleMemberCount}, non-inclusive. Role bearers are not sorted in any particular way, and their ordering may change at any point. WARNING: When using {getRoleMember} and {getRoleMemberCount}, make sure you perform all queries on the same block. See the following https://forum.openzeppelin.com/t/iterating-over-elements-on-enumerableset-in-openzeppelin-contracts/2296[forum post] for more information."
      },
      "getRoleMemberCount(bytes32)": {
        "details": "Returns the number of accounts that have `role`. Can be used together with {getRoleMember} to enumerate all bearers of a role."
      },
      "grantRole(bytes32,address)": {
        "details": "Grants `role` to `account`. If `account` had not been already granted `role`, emits a {RoleGranted} event. Requirements: - the caller must have ``role``'s admin role."
      },
      "hasRole(bytes32,address)": {
        "details": "Returns `true` if `account` has been granted `role`."
      },
      "initialize(address,address)": {
        "details": "Initializes the contract setting the market settings and creator royalty interfaces.",
        "params": {
          "_iERC721CreatorRoyalty": "address to set as iERC721CreatorRoyalty.",
          "_iMarketSettings": "address to set as iMarketplaceSettings."
        }
      },
      "owner()": {
        "details": "Returns the address of the current owner."
      },
      "payments(address)": {
        "details": "Returns the payments owed to an address.",
        "params": {
          "dest": "The creditor's address."
        }
      },
      "renounceOwnership()": {
        "details": "Leaves the contract without owner. It will not be possible to call `onlyOwner` functions anymore. Can only be called by the current owner. NOTE: Renouncing ownership will leave the contract without an owner, thereby removing any functionality that is only available to the owner."
      },
      "renounceRole(bytes32,address)": {
        "details": "Revokes `role` from the calling account. Roles are often managed via {grantRole} and {revokeRole}: this function's purpose is to provide a mechanism for accounts to lose their privileges if they are compromised (such as when a trusted device is misplaced). If the calling account had been granted `role`, emits a {RoleRevoked} event. Requirements: - the caller must be `account`."
      },
      "revokeRole(bytes32,address)": {
        "details": "Revokes `role` from `account`. If `account` had been granted `role`, emits a {RoleRevoked} event. Requirements: - the caller must have ``role``'s admin role."
      },
      "safeAcceptBid(address,uint256,uint256)": {
        "details": "Accept the bid on the token with the expected bid amount.",
        "params": {
          "_amount": "uint256 wei amount of the bid",
          "_originContract": "address of the contract storing the token.",
          "_tokenId": "uint256 ID of the token"
        }
      },
      "safeBuy(address,uint256,uint256)": {
        "details": "Purchase the token with the expected amount. The current token owner must have the marketplace approved.",
        "params": {
          "_amount": "uint256 wei amount expecting to purchase the token for.",
          "_originContract": "address of the contract storing the token. ///////////////////////////////////////////////////////////////////////// // safeBuy",
          "_tokenId": "uint256 ID of the token"
        }
      },
      "setIERC721CreatorRoyalty(address)": {
        "details": "Admin function to set the IERC721CreatorRoyalty. Rules: - only owner - _address != address(0)",
        "params": {
          "_address": "address of the IERC721CreatorRoyalty."
        }
      },
      "setMarketplaceSettings(address)": {
        "details": "Admin function to set the marketplace settings. Rules: - only owner - _address != address(0)",
        "params": {
          "_address": "address of the IMarketplaceSettings."
        }
      },
      "setMinimumBidIncreasePercentage(uint8)": {
        "details": "Admin function to set the minimum bid increase percentage. Rules: - only owner",
        "params": {
          "_percentage": "uint8 to set as the new percentage."
        }
      },
      "setSalePrice(address,uint256,uint256)": {
        "details": "Set the token for sale. The owner of the token must be the sender and have the marketplace approved.",
        "params": {
          "_amount": "uint256 wei value that the item is for sale",
          "_originContract": "address of the contract storing the token.",
          "_tokenId": "uint256 ID of the token"
        }
      },
      "tokenPrice(address,uint256)": {
        "details": "Gets the sale price of the token",
        "params": {
          "_originContract": "address of the contract storing the token.",
          "_tokenId": "uint256 ID of the token"
        },
        "returns": {
          "_0": "uint256 sale price of the token"
        }
      },
      "tokenPriceFeeIncluded(address,uint256)": {
        "details": "Gets the sale price of the token including the marketplace fee.",
        "params": {
          "_originContract": "address of the contract storing the token.",
          "_tokenId": "uint256 ID of the token"
        },
        "returns": {
          "_0": "uint256 sale price of the token including the fee."
        }
      },
      "transferOwnership(address)": {
        "details": "Transfers ownership of the contract to a new account (`newOwner`). Can only be called by the current owner."
      },
      "withdrawPayments(address)": {
        "details": "Withdraw accumulated payments, forwarding all gas to the recipient. Note that _any_ account can call this function, not just the `payee`. This means that contracts unaware of the `PullPayment` protocol can still receive funds this way, by having a separate account call {withdrawPayments}. WARNING: Forwarding all gas opens the door to reentrancy vulnerabilities. Make sure you trust the recipient, or are either following the checks-effects-interactions pattern or using {ReentrancyGuard}.",
        "params": {
          "payee": "Whose payments will be withdrawn."
        }
      }
    },
    "version": 1
  },
  "userdoc": {
    "kind": "user",
    "methods": {},
    "version": 1
  }
}