{
  "contractName": "MaybeSendValue",
  "abi": [
    {
      "inputs": [],
      "name": "SendValueProxyInitialize",
      "outputs": [],
      "stateMutability": "nonpayable",
      "type": "function"
    }
  ],
  "bytecode": "0x608060405234801561001057600080fd5b50610336806100206000396000f3fe608060405234801561001057600080fd5b506004361061002b5760003560e01c8063f4f75dd814610030575b600080fd5b61003861003a565b005b600060019054906101000a900460ff168061005957506100586101a1565b5b8061006f575060008054906101000a900460ff16155b6100c4576040517f08c379a000000000000000000000000000000000000000000000000000000000815260040180806020018281038252602e8152602001806102d3602e913960400191505060405180910390fd5b60008060019054906101000a900460ff161590508015610114576001600060016101000a81548160ff02191690831515021790555060016000806101000a81548160ff0219169083151502179055505b604051610120906101c5565b604051809103906000f08015801561013c573d6000803e3d6000fd5b50600060026101000a81548173ffffffffffffffffffffffffffffffffffffffff021916908373ffffffffffffffffffffffffffffffffffffffff160217905550801561019e5760008060016101000a81548160ff0219169083151502179055505b50565b60006101ac306101b2565b15905090565b600080823b905060008111915050919050565b610100806101d38339019056fe608060405234801561001057600080fd5b5060e18061001f6000396000f3fe608060405260043610601c5760003560e01c80637d286e48146021575b600080fd5b606060048036036020811015603557600080fd5b81019080803573ffffffffffffffffffffffffffffffffffffffff1690602001909291905050506062565b005b8073ffffffffffffffffffffffffffffffffffffffff166108fc349081150290604051600060405180830381858888f1935050505015801560a7573d6000803e3d6000fd5b505056fea2646970667358221220aea19f6a0e9cb4b64b9698e0d4f9c18b9652a81015203a30f0b5bebd60e729a464736f6c634300060c0033496e697469616c697a61626c653a20636f6e747261637420697320616c726561647920696e697469616c697a6564a2646970667358221220f6fdb26ac3b4f853636b237531259601a3690b384a816d8a640a82996f2cda5764736f6c634300060c0033",
  "immutableReferences": {},
  "source": "// SPDX-License-Identifier: MIT\npragma solidity 0.6.12;\n\n\nimport '@openzeppelin/contracts-upgradeable/proxy/Initializable.sol';\n// import 'https://github.com/OpenZeppelin/openzeppelin-contracts-upgradeable/blob/release-v3.3/contracts/proxy/Initializable.sol';\nimport \"./SendValueProxy.sol\";\n\n/**\n * @dev Contract with a ISendValueProxy that will catch reverts when attempting to transfer funds.\n */\ncontract MaybeSendValue is Initializable {\n    SendValueProxy proxy;\n\n    // constructor() internal {\n    //     proxy = new SendValueProxy();\n    // }\n\n     function SendValueProxyInitialize() public initializer {\n        proxy = new SendValueProxy();\n    }\n\n    /**\n     * @dev Maybe send some wei to the address via a proxy. Returns true on success and false if transfer fails.\n     * @param _to address to send some value to.\n     * @param _value uint256 amount to send.\n     */\n    // function maybeSendValue(address payable _to, uint256 _value)\n    //     internal\n    //     returns (bool)\n    // {\n    //     // Call sendValue on the proxy contract and forward the mesg.value.\n    //     /* solium-disable-next-line */\n    //     // (bool success, bytes memory _) = address(proxy).call.value(_value)(\n    //     //     abi.encodeWithSignature(\"sendValue(address)\", _to)\n    //     // );\n    //     (bool success, bytes memory _) = address(proxy).call{value:(_value)}(\n    //         abi.encodeWithSignature(\"sendValue(address)\", _to)\n    //     );\n    //     return success;\n    // }\n    \n    /**\n     * @dev Maybe send some wei to the address via a proxy. Returns true on success and false if transfer fails.\n     * @param _to address to send some value to.\n     * @param _value uint256 amount to send.\n     */\n    function maybeSendValue(address payable _to, uint256 _value)\n        internal\n        returns (bool)\n    {\n\n        _to.transfer(_value);\n        \n        return true;\n    }\n\n}\n",
  "sourcePath": "/home/aliwisam/AliWisamData/OptimusFox/chimera/repo/TruffleChimera/contracts/MaybeSendValue.sol",
  "compiler": {
    "name": "solc",
    "version": "0.6.12+commit.27d51765.Emscripten.clang"
  },
  "schemaVersion": "3.4.0",
  "updatedAt": "2021-05-27T18:18:40.642Z",
  "devdoc": {
    "details": "Contract with a ISendValueProxy that will catch reverts when attempting to transfer funds.",
    "kind": "dev",
    "methods": {},
    "version": 1
  },
  "userdoc": {
    "kind": "user",
    "methods": {},
    "version": 1
  }
}