{
  "contractName": "SendValueOrEscrow",
  "abi": [
    {
      "anonymous": false,
      "inputs": [
        {
          "indexed": true,
          "internalType": "address",
          "name": "_payee",
          "type": "address"
        },
        {
          "indexed": false,
          "internalType": "uint256",
          "name": "amount",
          "type": "uint256"
        }
      ],
      "name": "SendValue",
      "type": "event"
    },
    {
      "inputs": [],
      "name": "SendValueProxyInitialize",
      "outputs": [],
      "stateMutability": "nonpayable",
      "type": "function"
    },
    {
      "inputs": [
        {
          "internalType": "address",
          "name": "dest",
          "type": "address"
        }
      ],
      "name": "payments",
      "outputs": [
        {
          "internalType": "uint256",
          "name": "",
          "type": "uint256"
        }
      ],
      "stateMutability": "view",
      "type": "function"
    },
    {
      "inputs": [
        {
          "internalType": "address payable",
          "name": "payee",
          "type": "address"
        }
      ],
      "name": "withdrawPayments",
      "outputs": [],
      "stateMutability": "nonpayable",
      "type": "function"
    },
    {
      "inputs": [],
      "name": "initialize",
      "outputs": [],
      "stateMutability": "nonpayable",
      "type": "function"
    }
  ],
  "bytecode": "0x608060405234801561001057600080fd5b50611b58806100206000396000f3fe608060405234801561001057600080fd5b506004361061004c5760003560e01c806331b3eb94146100515780638129fc1c14610095578063e2982c211461009f578063f4f75dd8146100f7575b600080fd5b6100936004803603602081101561006757600080fd5b81019080803573ffffffffffffffffffffffffffffffffffffffff169060200190929190505050610101565b005b61009d6101a7565b005b6100e1600480360360208110156100b557600080fd5b81019080803573ffffffffffffffffffffffffffffffffffffffff1690602001909291905050506102ad565b6040518082815260200191505060405180910390f35b6100ff61037a565b005b600160009054906101000a900473ffffffffffffffffffffffffffffffffffffffff1673ffffffffffffffffffffffffffffffffffffffff166351cff8d9826040518263ffffffff1660e01b8152600401808273ffffffffffffffffffffffffffffffffffffffff168152602001915050600060405180830381600087803b15801561018c57600080fd5b505af11580156101a0573d6000803e3d6000fd5b5050505050565b600060019054906101000a900460ff16806101c657506101c56104e1565b5b806101dc575060008054906101000a900460ff16155b610231576040517f08c379a000000000000000000000000000000000000000000000000000000000815260040180806020018281038252602e815260200180611af5602e913960400191505060405180910390fd5b60008060019054906101000a900460ff161590508015610281576001600060016101000a81548160ff02191690831515021790555060016000806101000a81548160ff0219169083151502179055505b6102896104f2565b80156102aa5760008060016101000a81548160ff0219169083151502179055505b50565b6000600160009054906101000a900473ffffffffffffffffffffffffffffffffffffffff1673ffffffffffffffffffffffffffffffffffffffff1663e3a9db1a836040518263ffffffff1660e01b8152600401808273ffffffffffffffffffffffffffffffffffffffff16815260200191505060206040518083038186803b15801561033857600080fd5b505afa15801561034c573d6000803e3d6000fd5b505050506040513d602081101561036257600080fd5b81019080805190602001909291905050509050919050565b600060019054906101000a900460ff168061039957506103986104e1565b5b806103af575060008054906101000a900460ff16155b610404576040517f08c379a000000000000000000000000000000000000000000000000000000000815260040180806020018281038252602e815260200180611af5602e913960400191505060405180910390fd5b60008060019054906101000a900460ff161590508015610454576001600060016101000a81548160ff02191690831515021790555060016000806101000a81548160ff0219169083151502179055505b604051610460906107f4565b604051809103906000f08015801561047c573d6000803e3d6000fd5b50600060026101000a81548173ffffffffffffffffffffffffffffffffffffffff021916908373ffffffffffffffffffffffffffffffffffffffff16021790555080156104de5760008060016101000a81548160ff0219169083151502179055505b50565b60006104ec306105f8565b15905090565b600060019054906101000a900460ff168061051157506105106104e1565b5b80610527575060008054906101000a900460ff16155b61057c576040517f08c379a000000000000000000000000000000000000000000000000000000000815260040180806020018281038252602e815260200180611af5602e913960400191505060405180910390fd5b60008060019054906101000a900460ff1615905080156105cc576001600060016101000a81548160ff02191690831515021790555060016000806101000a81548160ff0219169083151502179055505b6105d461060b565b80156105f55760008060016101000a81548160ff0219169083151502179055505b50565b600080823b905060008111915050919050565b600060019054906101000a900460ff168061062a57506106296104e1565b5b80610640575060008054906101000a900460ff16155b610695576040517f08c379a000000000000000000000000000000000000000000000000000000000815260040180806020018281038252602e815260200180611af5602e913960400191505060405180910390fd5b60008060019054906101000a900460ff1615905080156106e5576001600060016101000a81548160ff02191690831515021790555060016000806101000a81548160ff0219169083151502179055505b6040516106f190610801565b604051809103906000f08015801561070d573d6000803e3d6000fd5b50600160006101000a81548173ffffffffffffffffffffffffffffffffffffffff021916908373ffffffffffffffffffffffffffffffffffffffff160217905550600160009054906101000a900473ffffffffffffffffffffffffffffffffffffffff1673ffffffffffffffffffffffffffffffffffffffff16638129fc1c6040518163ffffffff1660e01b8152600401600060405180830381600087803b1580156107b857600080fd5b505af11580156107cc573d6000803e3d6000fd5b5050505080156107f15760008060016101000a81548160ff0219169083151502179055505b50565b6101008061080f83390190565b6111e68061090f8339019056fe608060405234801561001057600080fd5b5060e18061001f6000396000f3fe608060405260043610601c5760003560e01c80637d286e48146021575b600080fd5b606060048036036020811015603557600080fd5b81019080803573ffffffffffffffffffffffffffffffffffffffff1690602001909291905050506062565b005b8073ffffffffffffffffffffffffffffffffffffffff166108fc349081150290604051600060405180830381858888f1935050505015801560a7573d6000803e3d6000fd5b505056fea2646970667358221220aea19f6a0e9cb4b64b9698e0d4f9c18b9652a81015203a30f0b5bebd60e729a464736f6c634300060c0033608060405234801561001057600080fd5b506111c6806100206000396000f3fe6080604052600436106100705760003560e01c80638da5cb5b1161004e5780638da5cb5b146100f4578063e3a9db1a14610135578063f2fde38b1461019a578063f340fa01146101eb57610070565b806351cff8d914610075578063715018a6146100c65780638129fc1c146100dd575b600080fd5b34801561008157600080fd5b506100c46004803603602081101561009857600080fd5b81019080803573ffffffffffffffffffffffffffffffffffffffff16906020019092919050505061022f565b005b3480156100d257600080fd5b506100db6103e2565b005b3480156100e957600080fd5b506100f2610552565b005b34801561010057600080fd5b50610109610658565b604051808273ffffffffffffffffffffffffffffffffffffffff16815260200191505060405180910390f35b34801561014157600080fd5b506101846004803603602081101561015857600080fd5b81019080803573ffffffffffffffffffffffffffffffffffffffff169060200190929190505050610682565b6040518082815260200191505060405180910390f35b3480156101a657600080fd5b506101e9600480360360208110156101bd57600080fd5b81019080803573ffffffffffffffffffffffffffffffffffffffff1690602001909291905050506106cb565b005b61022d6004803603602081101561020157600080fd5b81019080803573ffffffffffffffffffffffffffffffffffffffff1690602001909291905050506108c0565b005b610237610a5b565b73ffffffffffffffffffffffffffffffffffffffff16610255610658565b73ffffffffffffffffffffffffffffffffffffffff16146102de576040517f08c379a00000000000000000000000000000000000000000000000000000000081526004018080602001828103825260208152602001807f4f776e61626c653a2063616c6c6572206973206e6f7420746865206f776e657281525060200191505060405180910390fd5b6000606560008373ffffffffffffffffffffffffffffffffffffffff1673ffffffffffffffffffffffffffffffffffffffff1681526020019081526020016000205490506000606560008473ffffffffffffffffffffffffffffffffffffffff1673ffffffffffffffffffffffffffffffffffffffff16815260200190815260200160002081905550610390818373ffffffffffffffffffffffffffffffffffffffff16610a6390919063ffffffff16565b8173ffffffffffffffffffffffffffffffffffffffff167f7084f5476618d8e60b11ef0d7d3f06914655adb8793e28ff7f018d4c76d505d5826040518082815260200191505060405180910390a25050565b6103ea610a5b565b73ffffffffffffffffffffffffffffffffffffffff16610408610658565b73ffffffffffffffffffffffffffffffffffffffff1614610491576040517f08c379a00000000000000000000000000000000000000000000000000000000081526004018080602001828103825260208152602001807f4f776e61626c653a2063616c6c6572206973206e6f7420746865206f776e657281525060200191505060405180910390fd5b600073ffffffffffffffffffffffffffffffffffffffff16603360009054906101000a900473ffffffffffffffffffffffffffffffffffffffff1673ffffffffffffffffffffffffffffffffffffffff167f8be0079c531659141344cd1fd0a4f28419497f9722a3daafe3b4186f6b6457e060405160405180910390a36000603360006101000a81548173ffffffffffffffffffffffffffffffffffffffff021916908373ffffffffffffffffffffffffffffffffffffffff160217905550565b600060019054906101000a900460ff16806105715750610570610b9d565b5b80610587575060008054906101000a900460ff16155b6105dc576040517f08c379a000000000000000000000000000000000000000000000000000000000815260040180806020018281038252602e815260200180611163602e913960400191505060405180910390fd5b60008060019054906101000a900460ff16159050801561062c576001600060016101000a81548160ff02191690831515021790555060016000806101000a81548160ff0219169083151502179055505b610634610bae565b80156106555760008060016101000a81548160ff0219169083151502179055505b50565b6000603360009054906101000a900473ffffffffffffffffffffffffffffffffffffffff16905090565b6000606560008373ffffffffffffffffffffffffffffffffffffffff1673ffffffffffffffffffffffffffffffffffffffff168152602001908152602001600020549050919050565b6106d3610a5b565b73ffffffffffffffffffffffffffffffffffffffff166106f1610658565b73ffffffffffffffffffffffffffffffffffffffff161461077a576040517f08c379a00000000000000000000000000000000000000000000000000000000081526004018080602001828103825260208152602001807f4f776e61626c653a2063616c6c6572206973206e6f7420746865206f776e657281525060200191505060405180910390fd5b600073ffffffffffffffffffffffffffffffffffffffff168173ffffffffffffffffffffffffffffffffffffffff161415610800576040517f08c379a00000000000000000000000000000000000000000000000000000000081526004018080602001828103825260268152602001806111036026913960400191505060405180910390fd5b8073ffffffffffffffffffffffffffffffffffffffff16603360009054906101000a900473ffffffffffffffffffffffffffffffffffffffff1673ffffffffffffffffffffffffffffffffffffffff167f8be0079c531659141344cd1fd0a4f28419497f9722a3daafe3b4186f6b6457e060405160405180910390a380603360006101000a81548173ffffffffffffffffffffffffffffffffffffffff021916908373ffffffffffffffffffffffffffffffffffffffff16021790555050565b6108c8610a5b565b73ffffffffffffffffffffffffffffffffffffffff166108e6610658565b73ffffffffffffffffffffffffffffffffffffffff161461096f576040517f08c379a00000000000000000000000000000000000000000000000000000000081526004018080602001828103825260208152602001807f4f776e61626c653a2063616c6c6572206973206e6f7420746865206f776e657281525060200191505060405180910390fd5b60003490506109c681606560008573ffffffffffffffffffffffffffffffffffffffff1673ffffffffffffffffffffffffffffffffffffffff16815260200190815260200160002054610cc490919063ffffffff16565b606560008473ffffffffffffffffffffffffffffffffffffffff1673ffffffffffffffffffffffffffffffffffffffff168152602001908152602001600020819055508173ffffffffffffffffffffffffffffffffffffffff167f2da466a7b24304f47e87fa2e1e5a81b9831ce54fec19055ce277ca2f39ba42c4826040518082815260200191505060405180910390a25050565b600033905090565b80471015610ad9576040517f08c379a000000000000000000000000000000000000000000000000000000000815260040180806020018281038252601d8152602001807f416464726573733a20696e73756666696369656e742062616c616e636500000081525060200191505060405180910390fd5b60008273ffffffffffffffffffffffffffffffffffffffff168260405180600001905060006040518083038185875af1925050503d8060008114610b39576040519150601f19603f3d011682016040523d82523d6000602084013e610b3e565b606091505b5050905080610b98576040517f08c379a000000000000000000000000000000000000000000000000000000000815260040180806020018281038252603a815260200180611129603a913960400191505060405180910390fd5b505050565b6000610ba830610d4c565b15905090565b600060019054906101000a900460ff1680610bcd5750610bcc610b9d565b5b80610be3575060008054906101000a900460ff16155b610c38576040517f08c379a000000000000000000000000000000000000000000000000000000000815260040180806020018281038252602e815260200180611163602e913960400191505060405180910390fd5b60008060019054906101000a900460ff161590508015610c88576001600060016101000a81548160ff02191690831515021790555060016000806101000a81548160ff0219169083151502179055505b610c90610d5f565b610c98610e5d565b610ca0611004565b8015610cc15760008060016101000a81548160ff0219169083151502179055505b50565b600080828401905083811015610d42576040517f08c379a000000000000000000000000000000000000000000000000000000000815260040180806020018281038252601b8152602001807f536166654d6174683a206164646974696f6e206f766572666c6f77000000000081525060200191505060405180910390fd5b8091505092915050565b600080823b905060008111915050919050565b600060019054906101000a900460ff1680610d7e5750610d7d610b9d565b5b80610d94575060008054906101000a900460ff16155b610de9576040517f08c379a000000000000000000000000000000000000000000000000000000000815260040180806020018281038252602e815260200180611163602e913960400191505060405180910390fd5b60008060019054906101000a900460ff161590508015610e39576001600060016101000a81548160ff02191690831515021790555060016000806101000a81548160ff0219169083151502179055505b8015610e5a5760008060016101000a81548160ff0219169083151502179055505b50565b600060019054906101000a900460ff1680610e7c5750610e7b610b9d565b5b80610e92575060008054906101000a900460ff16155b610ee7576040517f08c379a000000000000000000000000000000000000000000000000000000000815260040180806020018281038252602e815260200180611163602e913960400191505060405180910390fd5b60008060019054906101000a900460ff161590508015610f37576001600060016101000a81548160ff02191690831515021790555060016000806101000a81548160ff0219169083151502179055505b6000610f41610a5b565b905080603360006101000a81548173ffffffffffffffffffffffffffffffffffffffff021916908373ffffffffffffffffffffffffffffffffffffffff1602179055508073ffffffffffffffffffffffffffffffffffffffff16600073ffffffffffffffffffffffffffffffffffffffff167f8be0079c531659141344cd1fd0a4f28419497f9722a3daafe3b4186f6b6457e060405160405180910390a35080156110015760008060016101000a81548160ff0219169083151502179055505b50565b600060019054906101000a900460ff16806110235750611022610b9d565b5b80611039575060008054906101000a900460ff16155b61108e576040517f08c379a000000000000000000000000000000000000000000000000000000000815260040180806020018281038252602e815260200180611163602e913960400191505060405180910390fd5b60008060019054906101000a900460ff1615905080156110de576001600060016101000a81548160ff02191690831515021790555060016000806101000a81548160ff0219169083151502179055505b80156110ff5760008060016101000a81548160ff0219169083151502179055505b5056fe4f776e61626c653a206e6577206f776e657220697320746865207a65726f2061646472657373416464726573733a20756e61626c6520746f2073656e642076616c75652c20726563697069656e74206d61792068617665207265766572746564496e697469616c697a61626c653a20636f6e747261637420697320616c726561647920696e697469616c697a6564a2646970667358221220aa14e0debf5e30504e73a4c337c930e63a8e5048b7d863e29c86505f3089d55864736f6c634300060c0033496e697469616c697a61626c653a20636f6e747261637420697320616c726561647920696e697469616c697a6564a264697066735822122066497e686c27c3844ea0dbacc94c2d5881a4e26745a8479500c22c18587dcf8c64736f6c634300060c0033",
  "immutableReferences": {},
  "source": "// SPDX-License-Identifier: MIT\npragma solidity 0.6.12;\n\nimport \"@openzeppelin/contracts-upgradeable/payment/PullPaymentUpgradeable.sol\";\nimport '@openzeppelin/contracts-upgradeable/proxy/Initializable.sol';\n// import \"https://github.com/OpenZeppelin/openzeppelin-contracts-upgradeable/blob/release-v3.3/contracts/payment/PullPaymentUpgradeable.sol\";\n// import 'https://github.com/OpenZeppelin/openzeppelin-contracts-upgradeable/blob/release-v3.3/contracts/proxy/Initializable.sol';\nimport \"./MaybeSendValue.sol\";\n\n/**\n * @dev Contract to make payments. If a direct transfer fails, it will store the payment in escrow until the address decides to pull the payment.\n */\ncontract SendValueOrEscrow is MaybeSendValue, PullPaymentUpgradeable {\n    /////////////////////////////////////////////////////////////////////////\n    // Events\n    /////////////////////////////////////////////////////////////////////////\n    event SendValue(address indexed _payee, uint256 amount);\n    \n    //initializer\n    function initialize() public  initializer {\n         __PullPayment_init();\n    }\n\n    /////////////////////////////////////////////////////////////////////////\n    // sendValueOrEscrow\n    /////////////////////////////////////////////////////////////////////////\n    /**\n     * @dev Send some value to an address.\n     * @param _to address to send some value to.\n     * @param _value uint256 amount to send.\n     */\n    function sendValueOrEscrow(address payable _to, uint256 _value) internal {\n        // attempt to make the transfer\n        bool successfulTransfer = MaybeSendValue.maybeSendValue(_to, _value);\n        // if it fails, transfer it into escrow for them to redeem at their will.\n        if (!successfulTransfer) {\n            _asyncTransfer(_to, _value);\n        }\n        emit SendValue(_to, _value);\n    }\n}\n",
  "sourcePath": "/home/aliwisam/AliWisamData/OptimusFox/chimera/repo/TruffleChimera/contracts/SendValueOrEscrow.sol",
  "compiler": {
    "name": "solc",
    "version": "0.6.12+commit.27d51765.Emscripten.clang"
  },
  "schemaVersion": "3.4.0",
  "updatedAt": "2021-05-27T18:18:40.653Z",
  "devdoc": {
    "details": "Contract to make payments. If a direct transfer fails, it will store the payment in escrow until the address decides to pull the payment.",
    "kind": "dev",
    "methods": {
      "payments(address)": {
        "details": "Returns the payments owed to an address.",
        "params": {
          "dest": "The creditor's address."
        }
      },
      "withdrawPayments(address)": {
        "details": "Withdraw accumulated payments, forwarding all gas to the recipient. Note that _any_ account can call this function, not just the `payee`. This means that contracts unaware of the `PullPayment` protocol can still receive funds this way, by having a separate account call {withdrawPayments}. WARNING: Forwarding all gas opens the door to reentrancy vulnerabilities. Make sure you trust the recipient, or are either following the checks-effects-interactions pattern or using {ReentrancyGuard}.",
        "params": {
          "payee": "Whose payments will be withdrawn."
        }
      }
    },
    "version": 1
  },
  "userdoc": {
    "kind": "user",
    "methods": {},
    "version": 1
  }
}