{
  "contractName": "TestAssertFailOnPay",
  "abi": [
    {
      "stateMutability": "payable",
      "type": "receive"
    },
    {
      "inputs": [
        {
          "internalType": "uint256",
          "name": "_newBidAmount",
          "type": "uint256"
        },
        {
          "internalType": "address",
          "name": "_originContract",
          "type": "address"
        },
        {
          "internalType": "uint256",
          "name": "_tokenId",
          "type": "uint256"
        },
        {
          "internalType": "address",
          "name": "_market",
          "type": "address"
        }
      ],
      "name": "bid",
      "outputs": [],
      "stateMutability": "payable",
      "type": "function"
    }
  ],
  "bytecode": "0x608060405234801561001057600080fd5b5061017c806100206000396000f3fe6080604052600436106100225760003560e01c80634da00aea1461003657610031565b3661003157600061002f57fe5b005b600080fd5b6100ac6004803603608081101561004c57600080fd5b8101908080359060200190929190803573ffffffffffffffffffffffffffffffffffffffff16906020019092919080359060200190929190803573ffffffffffffffffffffffffffffffffffffffff1690602001909291905050506100ae565b005b8073ffffffffffffffffffffffffffffffffffffffff1663c0f4ed31348686866040518563ffffffff1660e01b8152600401808481526020018373ffffffffffffffffffffffffffffffffffffffff16815260200182815260200193505050506000604051808303818588803b15801561012757600080fd5b505af115801561013b573d6000803e3d6000fd5b50505050505050505056fea2646970667358221220c3ca1f1a10359ea63010e7b65da9022d19f5706df8a35ee110316a201461938364736f6c634300060c0033",
  "immutableReferences": {},
  "source": "pragma solidity 0.6.12;\n\nimport \"./ChimeraMarketAuctionV2.sol\";\n\ncontract TestAssertFailOnPay {\n    /**\n     * @dev A payment method that will fail by an assertion\n     */\n    receive() external payable {\n        assert(false);\n    }\n\n    /**\n     * @dev Place a bid for the owner\n     * @param _newBidAmount uint256 value in wei to bid, plus marketplace fee.\n     * @param _originContract address of the contract storing the token.\n     * @param _tokenId uint256 ID of the token\n     * @param _market address of the marketplace to make the bid\n     */\n    function bid(\n        uint256 _newBidAmount,\n        address _originContract,\n        uint256 _tokenId,\n        address _market\n    ) public payable {\n        ChimeraMarketAuctionV2(_market).bid{value: msg.value}(\n            _newBidAmount,\n            _originContract,\n            _tokenId\n        );\n    }\n}\n",
  "sourcePath": "/home/aliwisam/AliWisamData/OptimusFox/chimera/repo/TruffleChimera/contracts/TestAssertFailOnPay.sol",
  "compiler": {
    "name": "solc",
    "version": "0.6.12+commit.27d51765.Emscripten.clang"
  },
  "schemaVersion": "3.4.0",
  "updatedAt": "2021-05-27T18:18:40.654Z",
  "devdoc": {
    "kind": "dev",
    "methods": {
      "bid(uint256,address,uint256,address)": {
        "details": "Place a bid for the owner",
        "params": {
          "_market": "address of the marketplace to make the bid",
          "_newBidAmount": "uint256 value in wei to bid, plus marketplace fee.",
          "_originContract": "address of the contract storing the token.",
          "_tokenId": "uint256 ID of the token"
        }
      }
    },
    "version": 1
  },
  "userdoc": {
    "kind": "user",
    "methods": {},
    "version": 1
  }
}