{
  "contractName": "TestRevertOnPay",
  "abi": [
    {
      "stateMutability": "payable",
      "type": "receive"
    },
    {
      "inputs": [
        {
          "internalType": "uint256",
          "name": "_newBidAmount",
          "type": "uint256"
        },
        {
          "internalType": "address",
          "name": "_originContract",
          "type": "address"
        },
        {
          "internalType": "uint256",
          "name": "_tokenId",
          "type": "uint256"
        },
        {
          "internalType": "address",
          "name": "_market",
          "type": "address"
        }
      ],
      "name": "bid",
      "outputs": [],
      "stateMutability": "payable",
      "type": "function"
    }
  ],
  "bytecode": "0x608060405234801561001057600080fd5b506101e0806100206000396000f3fe6080604052600436106100225760003560e01c80634da00aea1461009a57610095565b36610095576040517f08c379a000000000000000000000000000000000000000000000000000000000815260040180806020018281038252600b8152602001807f57696c6c20616c7761797300000000000000000000000000000000000000000081525060200191505060405180910390fd5b600080fd5b610110600480360360808110156100b057600080fd5b8101908080359060200190929190803573ffffffffffffffffffffffffffffffffffffffff16906020019092919080359060200190929190803573ffffffffffffffffffffffffffffffffffffffff169060200190929190505050610112565b005b8073ffffffffffffffffffffffffffffffffffffffff1663c0f4ed31348686866040518563ffffffff1660e01b8152600401808481526020018373ffffffffffffffffffffffffffffffffffffffff16815260200182815260200193505050506000604051808303818588803b15801561018b57600080fd5b505af115801561019f573d6000803e3d6000fd5b50505050505050505056fea2646970667358221220d213a0486573510a845de74b922a181c7a9c88929bd87ce999503f243640108e64736f6c634300060c0033",
  "immutableReferences": {},
  "source": "pragma solidity 0.6.12;\n\nimport \"./ChimeraMarketAuctionV2.sol\";\n\ncontract TestRevertOnPay {\n    /**\n     * @dev A payment method that will fail by a failed revert\n     */\n    receive() external payable {\n        revert(\"Will always\");\n    }\n\n    /**\n     * @dev Place a bid for the owner\n     * @param _newBidAmount uint256 value in wei to bid, plus marketplace fee.\n     * @param _originContract address of the contract storing the token.\n     * @param _tokenId uint256 ID of the token\n     * @param _market address of the marketplace to make the bid\n     */\n    function bid(\n        uint256 _newBidAmount,\n        address _originContract,\n        uint256 _tokenId,\n        address _market\n    ) public payable {\n        ChimeraMarketAuctionV2(_market).bid{value: msg.value}(\n            _newBidAmount,\n            _originContract,\n            _tokenId\n        );\n    }\n}\n",
  "sourcePath": "/home/aliwisam/AliWisamData/OptimusFox/chimera/repo/TruffleChimera/contracts/TestRevertOnPay.sol",
  "compiler": {
    "name": "solc",
    "version": "0.6.12+commit.27d51765.Emscripten.clang"
  },
  "schemaVersion": "3.4.0",
  "updatedAt": "2021-05-27T18:18:40.658Z",
  "devdoc": {
    "kind": "dev",
    "methods": {
      "bid(uint256,address,uint256,address)": {
        "details": "Place a bid for the owner",
        "params": {
          "_market": "address of the marketplace to make the bid",
          "_newBidAmount": "uint256 value in wei to bid, plus marketplace fee.",
          "_originContract": "address of the contract storing the token.",
          "_tokenId": "uint256 ID of the token"
        }
      }
    },
    "version": 1
  },
  "userdoc": {
    "kind": "user",
    "methods": {},
    "version": 1
  }
}